:020000040800F2
:10000000A80E0020CD010008911000085B08000830
:100010008F100008C90400085F1C000800000000E1
:10002000000000000000000000000000A113000814
:1000300013050008000000004F110008A31300087A
:10004000611C00084D110008A51300089713000853
:10005000F1050008351300084105000845050008B2
:1000600047050008490500084B050008FD04000885
:10007000FF04000801050008030500080505000845
:1000800007050008090500089F0300085B1C00081D
:100090005D1C0008CB040008CD0400084D050008D5
:1000A000A7130008AD130008AB130008A91300083C
:1000B000B1130008A5160008A71600085F0800087D
:1000C0005D08000863080008610800089B13000829
:1000D0009D130008A5180008491B00084B1B0008C9
:1000E0004305000895130008591C0008AF160008C6
:1000F000B5160008B3160008B1160008A1030008E1
:10010000B506000899130008A91600089F130008F7
:10011000A1180008A3180008AB160008AD160008C7
:100120000B0500080D0500080F0500081105000863
:1001300000F002F800F03AF80AA090E8000C8244BF
:100140008344AAF10107DA4501D100F02FF8AFF29C
:10015000090EBAE80F0013F0010F18BFFB1A43F0A5
:1001600001031847082A0000282A0000103A24BF7B
:1001700078C878C1FAD8520724BF30C830C144BF0C
:1001800004680C607047000000230024002500264E
:10019000103A28BF78C1FBD8520728BF30C148BFEA
:1001A0000B6070471FB51FBD10B510BD00F0C1F842
:1001B0001146FFF7F7FF01F055FD00F0DFF803B43B
:1001C000FFF7F2FF03BC00F0E3F80000034800472C
:1001D00003480449044A054B7047000031010008F8
:1001E000A8060020A80E0020A80A0020A80A0020C7
:1001F000032A40F2308010F0030C00F0158011F853
:10020000013BBCF1020F624498BF11F801CB00F82A
:10021000013B38BF11F8013BA2F1040298BF00F87E
:1002200001CB38BF00F8013B11F0030300F04F8011
:10023000083AC0F0088051F8043B083A51F804CB62
:10024000A0E80810F5E7121D5CBF51F8043B40F828
:10025000043BAFF30080D20724BF11F8013B11F833
:1002600001CB48BF11F8012B24BF00F8013B00F877
:1002700001CB48BF00F8012B70474FF0000200B5DA
:10028000134694469646203922BFA0E80C50A0E8B9
:100290000C50B1F12001BFF4F7AF090728BFA0E867
:1002A0000C5048BF0CC05DF804EB890028BF40F833
:1002B000042B08BF704748BF20F8022B11F0804F75
:1002C00018BF00F8012B704770477047704710B592
:1002D000203AC0F00B80B1E81850203AA0E818503E
:1002E000B1E81850A0E81850BFF4F5AF5FEA027CFF
:1002F00024BFB1E81850A0E8185044BF18C918C06E
:10030000BDE810405FEA827C24BF51F8043B40F80E
:10031000043B08BF7047D20728BF31F8023B48BFF3
:1003200011F8012B28BF20F8023B48BF00F8012B31
:100330007047754600F028F8AE46050069465346FA
:1003400020F00700854618B020B5FFF741FFBDE853
:1003500020404FF000064FF000074FF000084FF02C
:10036000000B21F00701AC46ACE8C009ACE8C009BD
:10037000ACE8C009ACE8C0098D4670470446AFF34D
:1003800000802046FFF71BFF00487047440600200E
:1003900001491820ABBEFEE72600020070477047F7
:1003A0007047002904D0816841F0010181607047E5
:1003B000816821F001018160704701460020896851
:1003C0004907002900DA01207047C06C80B27047ED
:1003D0000146002089680907002900DA01207047DA
:1003E00010B542680E4B1A400C790B6842EA0422A1
:1003F0001343436082680B4B1A40D1E90243234305
:100400004C7942EA440213438360C26A22F47002C8
:10041000097C491EC9B242EA0151C16210BD000007
:10042000FFFEF0FFFDF7F1FF70B5072609290AD995
:10043000C568A1F10A0404EB4404A640B543A340F7
:100440001D43C56007E0056901EB4104A640B543C3
:10045000A3401D4305611F23072A09D2446B521E86
:1004600002EB820293409C4391400C43446370BD75
:100470000D2A09D2046BD21F02EB820293409C43E7
:1004800091400C43046370BDC46A0D3A02EB8202D2
:1004900093409C4391400C43C46270BD816841F01D
:1004A000080181607047002904D0816841F4A001EF
:1004B00081607047816821F4A00181607047816884
:1004C00041F0040181607047FEE77047704700000B
:1004D00030B502464FF6FF70074D07E012F8013BBA
:1004E0004340DBB2040A35F8130060400B00A1F171
:1004F000010189B2F2D130BD6C2900087047704704
:100500007047704770477047704770477047704733
:1005100070477047F0B5002400230EE0CD18CE5C84
:100520006F7846EA0726AF78ED783F0447EA05651D
:100530002E4340F82460641C1B1D9342EED3F0BD93
:10054000704770477047704770477047704770B585
:100550000023002411E011F82350055531F82350F1
:100560002E0A05196E7051F82360360CAE7051F8E2
:100570002360360EEE705B1C241D9442EBD370BDDD
:100580000149C860704700000020024070B5054670
:100590004FF43026304600F07DF8042811D1094C84
:1005A000206940F0020020616561206940F0400050
:1005B0002061304600F06EF8216941F6FD7211406D
:1005C000216170BD0020024004200849CA68D2079A
:1005D00001D001207047CA68520701D50220704738
:1005E000C968C906FBD503207047000000200240FF
:1005F0007047000004490A6822F010020A600A6885
:1006000002430A6070470000002002402DE9F841D3
:1006100005460E46002000904FF40057384600F083
:1006200039F804280FD10F4C206940F001002061F7
:100630002E80B846404600F02DF8BF1E042804D096
:10064000216939402161BDE8F881AD1C0095009910
:10065000300C0880404600F01DF8216939402161C6
:10066000F1E7000000200240034A116801F0380160
:100670000143116070470000002002400348024916
:1006800041600349416070472301674500200240F3
:10069000AB89EFCD00B50346FFF796FF02E0FFF709
:1006A00093FF5B1E012801D1002BF8D1002B00D154
:1006B000052000BD7047000010B5104C8021A06AD5
:1006C000FFF706FFA16AB1F88010884209D0002028
:1006D000616A002221F81020401C2128FADB00204A
:1006E00010BD0020A16BE26B52F8202041F82020C1
:1006F000401C2128F7DB012010BD00000000002075
:100700002DE9F041274D0420E87001242C71EB6B9A
:1007100018680107002903DAC04310F0FF0F3FD12A
:1007200000210020AA6B53F8207052F82060BE42CE
:1007300000D00121401C2128F5DB002930D0FFF733
:100740009DFF6C633520FFF71BFF0020E862164E0B
:1007500007E006EB8020FFF719FFE870E86A401C0D
:10076000E862696BE86A884202D2E9780429F0D02D
:100770002E6380210D48FFF7ABFE0C49A1F88000E5
:100780000024A86B50F82410E86B50F82400814234
:1007900003D006EB8400FFF739FF641C212CF0DB4B
:1007A000BDE8F08100000020007C00083A05002030
:1007B0002DE9F0410022CC7804F00F03E406002C70
:1007C00001DA8C7823430C780F274FF0010CE4B149
:1007D00005680CFA02F40E882640A64211D1960054
:1007E00007FA06F825EA080503FA06F848EA0505B7
:1007F000CE78282E02D0482E02D002E0446100E0DC
:100800000461521C082AE4D305600A88FF2A1ED915
:100810004568002202F108060CFA06F40E8826400C
:10082000A64210D1960007FA06F825EA080503FA51
:1008300006F848EA0505CE78282E00D14461CE7826
:10084000482E00D10461521C082AE3D34560BDE85C
:10085000F0814161704701617047FEE77047704762
:10086000704770477CB505460C46082204F110011C
:100870006846FFF76CFE208AC0F3C502382A02D210
:10088000C2F1380201E0C2F178020949204600F0C5
:10089000C5FB08226946204600F0C0FB1022214615
:1008A0002846FFF754FE58212046FFF7E6FC7CBDA2
:1008B0006400002000214161016105490160054992
:1008C00041600349C94381600249C943C16070471F
:1008D0000123456789ABCDEF2DE9F04190B0044687
:1008E000D4F800806568A668E76840226846FFF78C
:1008F00011FE05EA060027EA05010843FE490844FF
:100900000099414408444FEA7060411901EA05002A
:1009100026EA01021043F94A1044019A3A4410446D
:100920004FEA3050431803EA010025EA030210435E
:10093000F34A1044029A324410444FEAF03018440B
:1009400000EA030221EA00063243EE4E3244039EDF
:1009500035442A444FEAB222024402EA000523EA5F
:1009600002063543E84E3544049E314429444FEA9B
:100970007161114401EA020520EA01063543E34EA4
:100980003544059E33442B444FEA33535D1805EA42
:10099000010322EA05063343DD4E3344069E30440C
:1009A00018444FEAF030431903EA050021EA030630
:1009B0003043D84E3044079E324410444FEAB020B2
:1009C000C21802EA030025EA02063043D24E304440
:1009D000089E314408444FEA7060811801EA020021
:1009E00023EA01063043CD4E3044099E3544284465
:1009F0004FEA3050084400EA010522EA0006354378
:100A00000A9EA5F524454F3D33442B444FEAF3336A
:100A10001D1805EA000321EA05063343C04E33449E
:100A20000B9E32441A444FEAB2222A4402EA0503DA
:100A300020EA02063343BB4E33440C9E3144194432
:100A40004FEA71618B1803EA020125EA030631437C
:100A5000B54E31440D9E304408444FEA3050C11821
:100A600001EA030022EA01063043B04E30440E9EF4
:100A7000354428444FEAF030084400EA010523EAEF
:100A800000063543AA4E35440F9E32442A444FEAAD
:100A9000B222151805EA010220EA01063243A54EEA
:100AA0003244019E33441A444FEAF2622A4402EA75
:100AB000000325EA000633439F4E3344069E31442B
:100AC00019444FEAF1518B1803EA050122EA0506A1
:100AD00031439A4E31440B9E304408444FEAB040B3
:100AE000C11801EA020023EA02063043944E304462
:100AF000009E354428444FEA3030084400EA03059C
:100B000021EA030635438F4E3544059E32442A447C
:100B10004FEAF262024402EA010520EA0106354387
:100B2000894E35440A9E33442B444FEAF353134411
:100B300003EA000522EA00063543844E35440F9E41
:100B4000314429444FEAB141194401EA020523EA3C
:100B5000020635437E4E3544049E304428444FEA15
:100B60003030084400EA030521EA03063543794E94
:100B70003544099E32442A444FEAF262024402EAB2
:100B8000010520EA01063543734E35440E9E334479
:100B90002B444FEAF353134403EA000522EA00060C
:100BA00035436E4E3544039E314429444FEAB141EA
:100BB000194401EA020523EA02063543684E35442A
:100BC000089E304428444FEA3030084400EA0305C8
:100BD00021EA03063543634E35440D9E32442A44D0
:100BE0004FEAF262024402EA010520EA01063543B7
:100BF0005D4E3544029E33442B444FEAF353134475
:100C000003EA000522EA00063543584E3544079EA4
:100C1000314429444FEAB141194401EA020523EA6B
:100C200002063543524E35440C9E304428444FEA68
:100C300030300844059D4F4E154480EA01025A4069
:100C400032442A444FEA32720244089D4A4E1D44FF
:100C500082EA00034B4033442B444FEA735313445E
:100C60000B9D464E0D4483EA020141403144294424
:100C70004FEA314119440E9D414E054481EA03007B
:100C80005040304428444FEA70200844019D3D4EB6
:100C9000154480EA01025A4032442A444FEA327233
:100CA0000244049D384E1D4482EA00034B40334405
:100CB0002B444FEA73531344079D344E0D4483EA8B
:100CC00002014140314429444FEA3141CD180A998B
:100CD0002F4E014485EA03005040304408444FEA57
:100CE000702028440D992B4E0A4480EA0501594092
:100CF0003144114450E0000078A46AD756B7C7E8E1
:100D0000DB702024EECEBDC1AF0F7CF52AC687472D
:100D1000134630A8019546FDD8988069AFF7448BFB
:100D2000BED75C892211906B937198FD8E4379A692
:100D30002108B44962251EF640B340C0515A5E26D0
:100D4000AAC7B6E95D102FD65314440281E6A1D894
:100D5000C8FBD3E7E6CDE121D60737C3870DD5F42D
:100D6000ED145A4505E9E3A9F8A3EFFCD9026F6732
:100D70008A4C2A8D4239FAFF81F6718722619D6D76
:100D80000C38E5FD44EABEA4A9CFDE4B604BBBF6B0
:100D900070BCBFBEC67E9B284FEA31710144009AE9
:100DA000874E134481EA00026A4032441A444FEAF3
:100DB00072525318039A834E154483EA010242404B
:100DC00032442A444FEA32421A44069D7E4E05447C
:100DD00082EA03004840304428444FEA702010441F
:100DE000099D7A4E0D4480EA02015940314429445C
:100DF0004FEA317101440C9D754E1D4481EA000398
:100E0000534033442B444FEA73535D180F9B714E8C
:100E1000134485EA0102424032441A444FEA324206
:100E20002A44029B6C4E034482EA05004840304449
:100E300018444FEA702083180098684E014463EA12
:100E400005005040304408444FEAB0601844079908
:100E5000634E0D4460EA02015940314429444FEA8F
:100E6000B1510D180E995F4E0A4465EA03014140E5
:100E7000314411444FEA71412944059A5A4E1344B2
:100E800061EA00026A4032441A444FEAF2220A44FC
:100E90000C9B564E034462EA050048403044184417
:100EA0004FEAB0601044039B514E1D4460EA0103B9
:100EB000534033442B444FEAB3531D180A9B4D4E05
:100EC0000B4465EA02014140314419444FEA714143
:100ED0004B190199484E0A4463EA000169403144C4
:100EE00011444FEAF121CA180899444E014462EABC
:100EF00005005840304408444FEAB06081180F980C
:100F00003F4E054461EA03005040304428444FEA14
:100F1000B050451806983B4E034465EA020048402D
:100F2000304418444FEA704028440D9B364E134419
:100F300060EA01026A4032441A444FEAF222024453
:100F4000049B324E0B4462EA05014140314419448E
:100F50004FEAB16111440B9B2D4E1D4461EA000321
:100F6000534033442B444FEAB3530B44029D294E64
:100F7000054463EA02004840304428444FEA704088
:100F80001844099D244E154460EA01025A40324437
:100F90002A444FEAF222024425682944216061680C
:100FA00011446160A1680844A060E0681844E060F2
:100FB00040216846FFF761F910B0BDE8F0810000FC
:100FC000FA27A1EA8530EFD4051D880439D0D4D999
:100FD000E599DBE6F87CA21F6556ACC4442229F4EF
:100FE00097FF2A43A72394AB39A093FCC3595B65B1
:100FF00092CC0C8F7DF4EFFFD15D84854F7EA86F7E
:10100000E0E62CFE144301A3A111084E827E53F7A3
:1010100035F23ABDBBD2D72A91D386EB2DE9F04108
:1010200005460F4616462969C1F3C50001EBC60106
:101030002961B1EBC60F02D26969491C696169690E
:1010400001EB56716961C0F14004A64216D32844F1
:10105000183022463946FFF7CBF805F1180128462B
:10106000FFF73AFC04E039192846FFF735FC403415
:1010700004F13F00B042F6D3002000E00024321B10
:1010800039192844BDE8F0411830FFF7B1B8FEE740
:10109000704738B500214FF0006000F04DF8252072
:1010A0008DF8000000248DF801408DF802400125E4
:1010B0008DF80350684600F00DF81C208DF80000F4
:1010C0008DF801408DF802408DF80350684600F01D
:1010D00001F838BDF0B50F23C278012601784FF032
:1010E000E027002A1BD0124A126802F4E062C2F51F
:1010F000E062120AC2F10404D3404578A540827828
:101100001A402A4312010B4BCA54007800F01F0109
:101110008E40400907EB8000C0F80061F0BD01F08F
:101120001F008640480907EB8000C0F88061F0BDD1
:101130000CED00E000E400E0024A114001430248E7
:101140000160704780FFFF1F08ED00E070477047A7
:10115000034A516821F44041014351607047000047
:1011600000100240054A002903D0D1690143D16132
:101170007047D1698143D16170470000001002407F
:10118000054A002903D09169014391617047916933
:1011900081439161704700000010024010B500F0DB
:1011A00029F81020FFF726FA0220FFF75DFA002049
:1011B00000F0B6F8002000F0C9F84FF4806000F0AD
:1011C000BBF84FF48040FFF7C3FF4FF480110020BD
:1011D00000F0CCF8012000F0C3F8392000F080F8CE
:1011E0000028FAD0022000F0CBF800F091F808288F
:1011F000FBD110BD0C48016841F00101016041685C
:101200000A4A114041600168094A114001600168C1
:1012100021F480210160416821F4FE0141604FF416
:101220001F01816070470000001002400000FFF8BD
:10123000FFFFF6FE10B5264A516801F00C01254B60
:10124000002927D0042927D0082927D00360516816
:1012500001F0F0010909204B5C5C0168E14041604C
:10126000546804F4E064240A1C5D21FA04F48460E8
:10127000546804F46054E40A1B5DD940C1605268AC
:1012800002F44042920B144B1B1F9A5CB1FBF2F12B
:10129000016110BD0360DAE70360D8E7516801F42B
:1012A0007011536803F48033022404EB914133B18D
:1012B00053689B0307D5094B59430160C7E7074BA8
:1012C00059430160C3E7034B59430160BFE7000086
:1012D0000010024000127A00A800002000093D0022
:1012E000034600205909094A01290AD002290AD0D7
:1012F000516A03F01F02012393400B4200D00120EA
:1013000070471168F5E7116AF3E70000001002402A
:101310000248406800F00C007047000000100240D6
:10132000034A516821F0F001014351607047000009
:101330000010024070470000034A516821F4E06148
:10134000014351607047000000100240034A516899
:1013500021F4605141EAC000506070470010024023
:10136000014908667047000000004242034B5A687A
:1013700022F47C120843104358607047001002406A
:10138000034A516821F00301014351607047000096
:1013900000100240704770477047704770477047B1
:1013A000704770477047704770477047704700003C
:1013B0002DE9F047B04D286C05280ED0401C28645C
:1013C000AE4F3846FFF701F8296CAD4E062924D2FE
:1013D000DFE801F005243E55718D0020EFE7696DCF
:1013E000C1EB004001EB2020686546F66051A1EB9F
:1013F000204001F066F9A34AA34B00F0DDFF002274
:10140000A24B00F031FF01F02FF9A6F89600072358
:10141000012203213846FFF707F877E0296DA0F590
:101420000040C1EB004001EB2020286500145A2148
:101430004843C11700EB5140C013C0F50040A6F867
:1014400094000723012204213846FEF7EDFF5DE0FA
:10145000E96CC1EB004001EB2020E864001440F689
:101460001651484343F2F93190FBF1F0A6F892008F
:101470000723012205213846FEF7D6FF46E0AA7869
:10148000696CC2EBC20202EB420206EB4202C1EB04
:10149000004392F8262013411944696432785207B8
:1014A00000D50814A6F88E0007230122062138462D
:1014B000FEF7BAFF2AE0AA78A96CC2EBC20202EBDF
:1014C000420206EB4202C1EB004392F82620134190
:1014D0001944A9643278520700D50814A6F8900080
:1014E0000723012200213846FEF79EFF0EE0A0F5FB
:1014F000A850BA3840F2BF71884201D20320A865D3
:101500000723012210213846FEF78EFF01213846BD
:10151000FEF7C9FFE868B0B1401EE86013D16A78F1
:101520005B485C4F4FF48051012A1CD08046FFF786
:1015300090F979144046FFF78CF9012240F22551C9
:10154000384600F00FFB5449E86D884201DC801CEE
:10155000E865A86DDFF844914FF4004847F2305732
:10156000012817D023E0FFF776F9012240F2277116
:10157000384600F0F7FA38880006E4D52969A868EB
:101580008842E0DA411CA9604549085C4149091DCF
:101590000880D8E7E86DB84209DDB6F88C0040F065
:1015A0002000A6F88C0041464846FFF754F9E86D44
:1015B000B84207DD287828B9B6F88C0040F0200042
:1015C000A6F88C00A86D012803D141464846FFF7D4
:1015D00042F9A96D4FF0804003293BD1E96D43F6F4
:1015E000D10945F23A5C47F2A21848F60B63B942BA
:1015F00001DA4C4612E096F88C2012F0030206D075
:10160000012A06D0022A06D0032A07D105E04C465B
:1016100004E0644602E0444600E01C4646F2A8129C
:10162000914200DA644644F62062914200DA444670
:1016300043F69822914200DA1C4642F2107291421F
:1016400001DA4AF6742441F28832914201DA41F615
:1016500068440487E988B1F5545F06D3A97800226D
:1016600009B1491CA970EA8001E0491CE980BDE884
:10167000F047012100F01FB80000002000240140C5
:101680003A05002029BFE7813E14214000406F4009
:10169000000C014000380140F04902000008014000
:1016A000B800002070477047704770477047704718
:1016B000704770477047C94301827047002904D0C2
:1016C000018841F0010101807047018821F001018A
:1016D0000180704730B5028C22F001020284028C36
:1016E0008388048B24F0700424F003050C882C43B9
:1016F00022F002020D8915434A882A43124DA8425E
:101700000BD0124DA84208D0114DA84205D0114D62
:10171000A84202D0104DA8420FD122F008054A89F4
:101720002A4322F004058A882A4323F4807323F491
:1017300000738D891D43CB892B4383800483C98823
:101740008186028430BD0000002C0140003401403D
:10175000004001400044014000480140028B22F05B
:1017600008020A430283704770B5028C22F010020F
:101770000284028C8388048B24F4E04424F44076B1
:101780000D884FF6FF7404EA0525354322F0200248
:101790000E8904EA061616434A8804EA0212324306
:1017A000114EB04202D0114EB04217D122F0800249
:1017B0004E8904EA0616164326F040068A8804EA93
:1017C0000212324323F4806323F400638E8904EA17
:1017D00086061E43CB8904EA830333438380058353
:1017E000C9880187028470BD002C0140003401408B
:1017F000028B22F400624FF6FF7303EA01211143CA
:101800000183704730B502881B4C1C4DA0420DD09F
:10181000A8420BD0B0F1804F08D0194B984205D0A8
:10182000184B984202D0184B984203D122F0700313
:101830004A881A43154B984206D0154B984203D05C
:1018400022F44073CA881A4302808A8882850A88F3
:101850000285A0420AD0A84208D00E4A904205D084
:101860000D4A904202D00D4A904201D1097A018678
:101870000121818230BD0000002C01400034014074
:101880000004004000080040000C00400010004030
:101890000014004000400140004401400048014065
:1018A000704770472DE9F047A14F3888C0B2020653
:1018B000002A00DA02219F4B020700D51A88800611
:1018C00000D504219B48083000889C4C00269A4D86
:1018D000A2684FF0140A02290FD0042901D00C2964
:1018E00079D11888C1B261714FF0FF3302B3012A78
:1018F00024D0A954062A37D03EE0398838460F064E
:101900008E49096905D58A4203DA571CA760AA5C8B
:101910001A80A2688A427AD1C4F80CA06670A660C8
:101920002661BDE8F047002240F2277100F01AB9A5
:10193000012901D0A36067E0297065E0697004297E
:101940000FD003290DD00F290BD0102909D006295B
:1019500007D0012905D0022903D0052901D0A360B1
:1019600052E0082020614FE06878102801D00F284D
:1019700002D1A879093020612169881E904243DA9A
:10198000A3606D48FEF7A4FD08B126613CE04FF46A
:1019900000516B48FEF75FFF002240F225513846A8
:1019A00000F0E0F8E878A97800EB012069792A795D
:1019B00001EB02216A78032301274FF0020C4FF05C
:1019C000060942F21078052A23D005DC032A41D00B
:1019D000042A05D166E01AE0062A29D0102A76D01A
:1019E00080326A70AF70236153482169FEF770FD41
:1019F0002269511CA854C0F30722481C20616A5474
:101A0000C4F80CA067706661A068401CA060BDE8C7
:101A1000F08741F66161884201D8E06828B18520ED
:101A2000687085F802C02361DEE7C4F81090DBE738
:101A300042F2D062904201D8E2682AB186206870F2
:101A400085F802C02361CFE7C4F81090626A22F8DB
:101A50001010C9E74218521E424501D2E2682AB16D
:101A60008320687085F802C02361BDE74A06120E24
:101A7000AA70D21C22610022D4F824800FE08318BF
:101A800000D1A76138F813C04FEA1C2905EB420CBE
:101A90008CF8039018F813308CF80430521C8A42EA
:101AA000EDD9A1E74218521E402A01D2E2682AB1BC
:101AB0008420687085F802C0236195E74A06120EFB
:101AC000AA70D21C22610022DFF878900CE00EE0B0
:101AD000831839F813C005EB42034FEA1C2883F83A
:101AE000038083F804C0521C8A42F1D97CE7421873
:101AF000521E424501D2E2682AB19020687085F8F2
:101B000002C0236170E70022D4F824800BE005EBCB
:101B1000420393F808C0DB790CEB032302EB000CC3
:101B200028F81C30521C8A42F1D3C4F810905BE7AD
:101B30000038014004380140B800002000000020B7
:101B4000000C0140B804002070477047002904D001
:101B5000818941F4005181817047818921F40051CC
:101B60008181704710B540F66A13C1F3421301F04A
:101B70001F040121A140012B07D0022B07D01430F4
:101B80003AB102680A43026010BD0C30F8E7103029
:101B9000F6E702688A43026010BD000030B585B0E8
:101BA00004460D46208A4CF6FF710840E98801433F
:101BB0002182A0894EF6F3110840A9882A89114391
:101BC0006A8902431143A181A08A4FF6FF41084070
:101BD000A9890143A1826846FFF72CFB1D48844276
:101BE00001D1039800E00298A189090408D500EB0F
:101BF000C00101EB001029684900B0FBF1F007E0DB
:101C000000EBC00101EB001029688900B0FBF1F086
:101C10006422B0FBF2F109010B096FF018056B4368
:101C200000EB8300A3891D044FF0320307D503EBBB
:101C3000C000B0FBF2F000F00700084306E003EB41
:101C40000010B0FBF2F000F00F000843208105B057
:101C500030BD000000380140704770477047FEE714
:101C6000704700009AB000244FF000656846FEF708
:101C700021FEFE4A29466846FFF7D0F9694616A8B4
:101C8000FEF7F0FDFA4F16A80BE000EB440110F848
:101C90001420497841EA022107EB4402A2F8A4107B
:101CA000641C082CF1DB40F20310A7F8B400F048E4
:101CB0004FF00108A0F8C680FFF770FA01214FF439
:101CC000C820FFF75DFA01210320FFF74BFA01213D
:101CD00040F21D20FFF754FAE6484168E64A1143F6
:101CE0004160E64C4FF4C05020801020E07002208C
:101CF000A0702146E248FEF75BFD78202080002599
:101D0000E5700220A0702146DD48FEF751FD4FF43A
:101D1000007020804FF0030A84F802A01820E070C1
:101D20002146D748FEF744FD4FF480602080032011
:101D3000A0704820E0702146D148FEF739FD4FF4ED
:101D40001E7020801820E0700320A070DFF834930C
:101D500021464846FEF72CFD4FF4704020801020AD
:101D6000E0700320A07021464846FEF721FD4FF4A5
:101D7000005020801420E0700220A070C24E214646
:101D80003046FEF715FD4FF4004BA4F800B01020CC
:101D9000E0700220A07021463046FEF709FDB448ED
:101DA000DA300560057145714FF460218160F114EE
:101DB000C16080F81080B548016841F400010160FD
:101DC000B24CAB49083CDA312046FEF709FB012151
:101DD0002046FEF7E6FA2046FEF760FBAB480838DF
:101DE000FEF7F6FA0028F9D1A8480838FEF767FB95
:101DF0009F4E4BF68030EE36B0803580F580758092
:101E0000357231464FF08040FFF7FCFC06F10A04C2
:101E100060202080A4F8028042F6E060E080258106
:101E200021464FF08040FFF79FFC0821C806FFF7CE
:101E3000DFFC01208107888101218007FFF73EFC3C
:101E400045F6C050B080A6F800A0F5807580DFF898
:101E500040A231465046FFF7D5FC6020208001208B
:101E60006080E580258121465046FFF733FC08213C
:101E70005046FFF773FC8648D8464430A0F800B0BF
:101E800001215046FFF71AFC4FF4807AA6F804A00F
:101E90003580F580758031467E48FFF7B3FC6020C1
:101EA0002080012060804FF0800BA4F806B02581CF
:101EB00021467848FFF70EFC08217648FFF74EFCD4
:101EC00074484430A0F8008072490D202031088009
:101ED00001217048FFF7F2FBA6F804A03580F580D9
:101EE000758031466C48FFF78DFC60202080012012
:101EF0006080A4F806B0258121466748FFF734FCCE
:101F000008216548FFF774FC602020800120608074
:101F10000A26E680258121465F48FFF7DBFB082182
:101F20005D48FFF71BFC01215B48FFF7C7FB4FF43F
:101F3000805B59464846FEF78CFC4FF400514846FA
:101F4000FEF787FCB7F88C0020F02000A7F88C0083
:101F50004A4C603CA06D012803D141464848FEF739
:101F600078FC43484FF4E131CA3001608580C58078
:101F7000058185810C214181DFF820A10146504671
:101F8000FFF70CFE012240F227715046FFF7EAFDF1
:101F9000012240F225515046FFF7E4FD0121504651
:101FA000FFF7D4FDDFF8E4A0AAF1080A5046FEF7D7
:101FB00004FA0028FAD140F6B8324FF47A63C0EB45
:101FC000C00101EB410107EB41014A808B80A1F880
:101FD0000680A1F80C80401C0328F0DBFEF76CFBA8
:101FE00027F88C5FE0690188B9810068000CF881EE
:101FF000206A008838828C3FFFF74BF84FF4804A04
:1020000030BF2078012857D0A0785A22C0EBC000FA
:1020100000EB400007EB4000C188A1F50041C90179
:1020200091FBF2F11C4AC1F18001343211808189A7
:10203000C822A1F50041C90191FBF2F1154A803196
:1020400034321180B7F8901040F6B83251430A0C80
:10205000B2FBF6F2008A02EB1141814251D9DFF85E
:10206000208059464046FEF7F6FB19E0FFFF0100CD
:102070003A05002000000140000900026000002035
:1020800000080140000C01400010014008240140FC
:102090000048014000440140000400400038014075
:1020A0004FF400614046FEF7D4FBB7F88C0040F0D7
:1020B0000200A7F88C002EE0B7F8900040F6B83187
:1020C0004843010CA078C0EBC00000EB400007EBD8
:1020D0004000028AB1EB420F11D9B7F88E2040F6CA
:1020E000B8335A43C389120CB2EB430F07D9438963
:1020F000B1EB430F03D90089B2EB400F00D8257034
:1021000092E059465448FEF7A4FBB7F88C0020F043
:102110000200A7F88C00B7F88E0040F6B8314843AB
:10212000010CB1FBF6F101EB1041A078C0EBC0004F
:1021300000EB400007EB4000C089814211D9DFF875
:1021400018814FF400614046FEF785FB5946404632
:10215000FEF77FFBB7F88C0040F00100A7F88C0079
:102160000AE04FF400613C48FEF773FBB7F88C00BF
:1021700020F00100A7F88C00B7F8900040F6B831C5
:102180004843010CB1FBF6F101EB1041A078C0EB24
:10219000C00000EB400007EB40004289914206D9A5
:1021A000B7F88C1041F00801A7F88C1005E0B7F8DB
:1021B0008C1021F00801A7F88C10B7F88E1040F6AB
:1021C000B83251430A0CB2FBF6F202EB114102891C
:1021D000914206D9B7F88C1041F00401A7F88C1091
:1021E00005E0B7F88C1021F00401A7F88C104188A5
:1021F00040F616520902B1FBF2F1184A491C11804F
:10220000808841F64D52A0F5FA7191420CD21449E2
:102210004000B1FBF0F0C0F38F011248018000884C
:1022200010494008083108803878800704D55146A5
:102230004846FEF70EFB03E051464846FEF70BFB0F
:102240003878C0073FF4DCAE72B671B6FEF758FAC4
:1022500062B661B6D4E600000008014038040040D0
:10226000001C4E0E2C48014010B591EA030F48BFE8
:1022700083F0004300F19882841A71EB030C05D2BD
:10228000121943EB0C03001B61EB0C01DFF824E196
:102290004FEA1154A4EB135C1EEA430F18BF9EEAE9
:1022A000445F73D023EA0E03DCF1200E21EA0451CF
:1022B00043F4801332D322FA0CFE10EB0E0023FA03
:1022C0000CFE41EB0E01CCF1200E03FA0EFE10EBDA
:1022D0000E0051F10001B1F5801FCCF1200E32D279
:1022E00001EB045112FA0EF2BDE8104058BF7047DE
:1022F000401C38BF5FEA420218BF7047002814BF75
:1023000020F0010041F100014FEA410313F5001FE5
:1023100038BF7047A1F1C04100F038BA012A43EB41
:102320000302ACF1200CDCF11F0E32BF4FF0000EA7
:1023300023FA0CF310EB030041EB0451B4EB115FF3
:10234000D0D0A1EB045101F5801149085FEA3000BB
:1023500001EB04510ED350F1000038BF12FA0EFE0B
:1023600008D1BDE81040C9E7401C38BF5FEA42020F
:10237000CAD1C3E7BDE810404FEA410313F5001F7F
:1023800038BF7047A1F1C04100F000BA9EEA445F37
:1023900008D011EA5E0FBDE8104004BF01F0004113
:1023A00000207047BDE8104070B500F0A1F900BFF3
:1023B00064FBBE3E0000E0FF2DE9C04130B4DFF811
:1023C000A0C23CEA111418BF3CEA131400F0EC80E0
:1023D00081EA03051CEA111444EAD57418BF1CEA0B
:1023E000131500F0C780A4EB05044FF0004545EA43
:1023F000C12145EAC32341EA505143EA525304F153
:102400007F74994204F500344FEAC0204FEAC2229B
:1024100008BF904200F09C804FEA13650FF240160F
:10242000765D4FEA134506FB05F7C7F1807706FB9B
:1024300007F74FEAD737A7FB03687642C8F580381D
:10244000A7FB06CE38BFA8F1010807FB08E64FF04E
:10245000000EA6FB028CE6FB03CEDCF1000CCEF1F5
:10246000004E38BFAEF1010EA6FB0C584FF000072E
:102470004FF00005E6FB0E87A1FB08C6A0FB07CEC8
:1024800016EB0E0645F10005E1FB076515F1E04E80
:102490007EBFA4F580345FEA46066D4116F18007E1
:1024A00045F100054FEA17274FEA066647EA056738
:1024B000A6F1DE46B6F1805F4FEA15251FD93846F2
:1024C00024F0010C05EBC471BCF1FE6F01EB0C11A3
:1024D00002D8F0BCBDE8008124425CBF01F5801E3B
:1024E0009EEAC47F02D4F0BCBDE80081244238D407
:1024F000F0BCA1F1C041BDE8004100F047B94FEA8E
:10250000D22242EA43524FEAD323A7FB02864FEA84
:10251000D02040EA415007FB03661EEA0E0F4FEA47
:10252000D12105FB026658BFA6EB0056B6EB00565C
:102530004FEA520E4EEAC37E18EB0E0E56EB530EC8
:10254000BDD518EB02085E417F1C55F10005B6E7CA
:102550004FF480154FF000074FF000064FF00008D1
:10256000ADE7F0BC4FF0000001F1C04101F00041C7
:10257000BDE8008111EA0C1F0CEA131500D00CE035
:1025800013EA0C1F00F025804FF00000F0BC81EA38
:10259000030101F00041BDE80081F0BCBDE800414D
:1025A00081EA030100F0F2B8F0BCBDE8004170B56B
:1025B00000F09EF8097EFC3E00F007B881EA0301B6
:1025C0004FF0000001F00041704781EA030100F084
:1025D000DDB8F0BCBDE800414FF000002149704774
:1025E000FFFDFBF9F7F5F4F2F0EEEDEBE9E8E6E4D8
:1025F000E3E1E0DEDDDBDAD8D7D5D4D3D1D0CFCD5F
:10260000CCCBCAC8C7C6C5C4C2C1C0BFBEBDBCBB97
:10261000BAB9B8B7B6B5B4B3B2B1B0AFAEADACAB92
:10262000AAA9A8A8A7A6A5A4A3A3A2A1A09F9F9E6C
:102630009D9C9C9B9A99999897979695959493931E
:10264000929191908F8F8E8E8D8C8C8B8B8A8989B5
:102650008888878786858584848383828281818038
:102660000000FF070000F87F4FEA1153A3F58063D5
:10267000D3F11E03A8BFD3F1200C08DB4FF00042BA
:1026800042EAC12252EA505232FA03F0704709423C
:102690000BD4102BC4BF0020704703F5787CBCF12D
:1026A000FF3F05D04FF0FF3070474FF000007047FC
:1026B00070B500F01DF800BF4992248000207047DB
:1026C000F0E710F0004248BF4042B0FA80F310FA41
:1026D00003F10AD0C3F11D0303F580634FEA4150B3
:1026E00002EB035202EBD12170474FF0000070471C
:1026F0000EF1020E2EF0030E5EF8046B364205D486
:10270000012A43EB030515F5001F12D8012841EB00
:10271000010C1CF5001F0CD80ED14FEAD17C15F529
:10272000001F0CEB4C0C0CF1020C08BF4CEBD37CE3
:1027300004E04FF0080C01E04FEAD37C0CEB4C05B1
:1027400026FA05F606F00706B6F1040C06D20EEBE3
:10275000860CBDE870404CF0010C6047DFE80CF0DF
:10276000090B02024FF000414FF00000A1F50021DB
:1027700070BD19461046012851EB010418BFD4F56D
:10278000001484BF002001F0004170BD0808A0F5CE
:1027900000114FEA3101704710B591EA030F48BFAD
:1027A00083F000433FF568AD841A71EB030C07D248
:1027B00012198CF0004C43EB0C03001B61EB0C0175
:1027C000DFF8A4E14FEA1154A4EB135C1EEA430FB7
:1027D00018BF9EEA445F00F0B08023EA6E035242C5
:1027E00021EA0451C3EB6E0338BF5B1EDCF1200EFF
:1027F00025D322FA0CFE10EB0E0043FA0CFE41EB3F
:102800000E01CCF1200E03FA0EFE10EB0E0051F17A
:102810000001CCF1200E29D412FA0EF201EB045182
:10282000BDE8104058BF7047401C1CBFB2F1004FBC
:10283000704700280CBF491C20F00100704712EBC4
:10284000020E43EB030218BF4FF0010E4EEA4202A4
:10285000ACF1200CDCF11E0E54D943FA0CFE10EB47
:102860000E0051F1FF31CCF11E0ED5D50EF1010E47
:1028700012FA0EFE404141EB010101EB445C5FEABC
:102880005C5C10D910EBDE7001EB045138BFBEF177
:10289000004FBDE8104018BF704700280CBF491C0E
:1028A00020F00100704730D24FEAD42C11F500110E
:1028B00024F400641BD0B1FA81F20B3AA41AA41ECE
:1028C000D2F12003914030FA03F31943904001EB19
:1028D000CC71002C01EB0451BDE81040A8BF70473B
:1028E00001F1C0414FF0000001F000417047B0FA23
:1028F00080F310FA03F100D110BDE41A173C48052B
:10290000C90AE4E701EB045110BD491001EB045181
:10291000BDE810404FEA300002E04FF00001704780
:102920004A0008BF0042F8D0B2F5001F28BF704728
:1029300001F000414FF0000070479EEA445F07D06D
:1029400011EA5E0FBDE8104004BF0021002070476F
:10295000BDE8104070B5FFF7CBFE00BF40DFF63E8C
:1029600083F00041104670470000E0FF0000C1C046
:1029700081C1400101C3C003800241C201C6C0063B
:10298000800741C70005C1C581C4400401CCC00C0B
:10299000800D41CD000FC1CF81CE400E000AC1CACB
:1029A00081CB400B01C9C009800841C801D8C018BB
:1029B000801941D9001BC1DB81DA401A001EC1DE3B
:1029C00081DF401F01DDC01D801C41DC0014C1D42B
:1029D00081D5401501D7C017801641D601D2C0124B
:1029E000801341D30011C1D181D0401001F0C0301B
:1029F000803141F10033C1F381F240320036C1F63B
:102A000081F7403701F5C035803441F4003CC1FC0A
:102A100081FD403D01FFC03F803E41FE01FAC03ACA
:102A2000803B41FB0039C1F981F840380028C1E8FA
:102A300081E9402901EBC02B802A41EA01EEC02E3A
:102A4000802F41EF002DC1ED81EC402C01E4C0242A
:102A5000802541E50027C1E781E640260022C1E24A
:102A600081E3402301E1C021802041E001A0C0605A
:102A7000806141A10063C1A381A240620066C1A63A
:102A800081A7406701A5C065806441A4006CC1AC0A
:102A900081AD406D01AFC06F806E41AE01AAC06ACA
:102AA000806B41AB0069C1A981A840680078C1B8BA
:102AB00081B9407901BBC07B807A41BA01BEC07E3A
:102AC000807F41BF007DC1BD81BC407C01B4C0742A
:102AD000807541B50077C1B781B640760072C1B24A
:102AE00081B3407301B1C071807041B00050C1909A
:102AF000819140510193C053805241920196C0563A
:102B0000805741970055C19581944054019CC05C09
:102B1000805D419D005FC19F819E405E005AC19AC9
:102B2000819B405B0199C059805841980188C048F9
:102B300080494189004BC18B818A404A004EC18E39
:102B4000818F404F018DC04D804C418C0044C18429
:102B5000818540450187C047804641860182C04249
:102B6000804341830041C181818040408C2B00081B
:102B700000000020B80000006C010008442C000890
:102B8000B8000020F00D00008801000801000000DE
:102B90000000000000000000000000000000000035
:102BA0000000000000000000E8F7FF1FECF7FF1F27
:102BB0003A050020007C0008000000000000000032
:102BC000000000003A050020007C00080000000022
:102BD00000000000000000000000000000000000F5
:102BE00000000000000000000000000000000000E5
:102BF0008000000000000000000000000000000055
:102C000000000000000000000000000000000000C4
:102C100000000000000000000000000000000000B4
:102C200000000000000000000000000000000000A4
:102C3000020406080000000001020304010203046C
:042C40000607080972
:0400000508000131BD
:00000001FF
