:020000040800F2
:10000000A00E0020CD01000855130008670A000863
:10001000511300081B0500085322000800000000CF
:10002000000000000000000000000000E1160008D1
:100030006B0500080000000027140008E316000804
:100040005722000825140008E5160008D7160008F6
:1000500079060008611600089F050008A30500083E
:10006000A5050008A7050008A90500085505000812
:1000700057050008590500085B0500085D050008E4
:100080005F050008610500089F0300084F22000873
:10009000512200081F05000821050008AB050008D3
:1000A000E7160008ED160008EB160008E916000830
:1000B000F11600089D1A00089F1A00086D0A000832
:1000C0006B0A0008710A00086F0A0008DB160008B6
:1000D000DD160008E11C00080D2100080F210008B2
:1000E000A1050008D51600084D220008A71A00082F
:1000F000AD1A0008AB1A0008A91A0008A1030008ED
:100100005B070008D9160008A11A0008DF160008CE
:10011000DD1C0008DF1C0008A31A0008A51A00084F
:100120006305000865050008670500086905000803
:1001300000F002F800F03AF80AA090E8000C8244BF
:100140008344AAF10107DA4501D100F02FF8AFF29C
:10015000090EBAE80F0013F0010F18BFFB1A43F0A5
:10016000010318477830000098300000103A24BF8F
:1001700078C878C1FAD8520724BF30C830C144BF0C
:1001800004680C607047000000230024002500264E
:10019000103A28BF78C1FBD8520728BF30C148BFEA
:1001A0000B6070471FB51FBD10B510BD00F0C1F842
:1001B0001146FFF7F7FF02F04FF800F0DFF803B445
:1001C000FFF7F2FF03BC00F0E3F80000034800472C
:1001D00003480449044A054B7047000031010008F8
:1001E000A0060020A00E0020A00A0020A00A0020E7
:1001F000032A40F2308010F0030C00F0158011F853
:10020000013BBCF1020F624498BF11F801CB00F82A
:10021000013B38BF11F8013BA2F1040298BF00F87E
:1002200001CB38BF00F8013B11F0030300F04F8011
:10023000083AC0F0088051F8043B083A51F804CB62
:10024000A0E80810F5E7121D5CBF51F8043B40F828
:10025000043BAFF30080D20724BF11F8013B11F833
:1002600001CB48BF11F8012B24BF00F8013B00F877
:1002700001CB48BF00F8012B70474FF0000200B5DA
:10028000134694469646203922BFA0E80C50A0E8B9
:100290000C50B1F12001BFF4F7AF090728BFA0E867
:1002A0000C5048BF0CC05DF804EB890028BF40F833
:1002B000042B08BF704748BF20F8022B11F0804F75
:1002C00018BF00F8012B704770477047704710B592
:1002D000203AC0F00B80B1E81850203AA0E818503E
:1002E000B1E81850A0E81850BFF4F5AF5FEA027CFF
:1002F00024BFB1E81850A0E8185044BF18C918C06E
:10030000BDE810405FEA827C24BF51F8043B40F80E
:10031000043B08BF7047D20728BF31F8023B48BFF3
:1003200011F8012B28BF20F8023B48BF00F8012B31
:100330007047754600F028F8AE46050069465346FA
:1003400020F00700854618B020B5FFF741FFBDE853
:1003500020404FF000064FF000074FF000084FF02C
:10036000000B21F00701AC46ACE8C009ACE8C009BD
:10037000ACE8C009ACE8C0098D4670470446AFF34D
:1003800000802046FFF71BFF004870473C06002016
:1003900001491820ABBEFEE72600020070477047F7
:1003A000704721B1826842F00102826003E08268F6
:1003B00022F0010282607047014600208A6812F034
:1003C000040F01D0012000E0002070470146C86CF6
:1003D00080B27047014600208A6812F0080F01D0F1
:1003E000012000E00020704730B5024600200023C5
:1003F00050680F4C20400D790C6844EA05242043D6
:10040000506090680B4C2040D1E902542C434D7948
:1004100044EA450420439060D06A20F470000C7CCC
:10042000641EE4B2234340EA0350D06230BD0000B2
:10043000FFFEF0FFFDF7F1FFF0B504460D4600208A
:100440000021092D11DDE068A5F10A0606EB46073B
:10045000072606FA07F18843A5F10A0606EB4606C9
:1004600003FA06F10843E0600CE0206905EB45075C
:10047000072606FA07F1884305EB450603FA06F15D
:1004800008432061072A0FDA606B561E06EB8607C9
:100490001F2606FA07F18843561E06EB860605FA64
:1004A00006F10843606322E00D2A0FDA206BD61FA5
:1004B00006EB86071F2606FA07F18843D61F06EBD0
:1004C000860605FA06F10843206310E0E06AA2F10F
:1004D0000D0606EB86071F2606FA07F18843A2F1F0
:1004E0000D0606EB860605FA06F10843E062F0BD4C
:1004F000816841F008018160704721B1826842F44F
:10050000A002826003E0826822F4A0028260704749
:10051000816841F004018160704700BFFEE77047C9
:100520007047000030B502460B464FF6FF7008E0FA
:1005300012F8014B4440E1B20012054C34F811406E
:1005400060401C00A3F10105ABB2F1D130BD000049
:10055000DC2F00087047704770477047704770473E
:1005600070477047704770477047704770B50346D3
:100570000024002010E00E5C451C4D5D46EA052677
:10058000851C4D5D46EA0546C51C4D5D46EA056580
:1005900043F82450641C001D9042ECD370BD70479A
:1005A00070477047704770477047704770B5034693
:1005B00014460022002015E011F822501D5431F895
:1005C0002250C5F30726451C5E5551F82250C5F34D
:1005D0000746851C5E5551F822502D0EC61C9D55B0
:1005E000521C001DA042E7D370BD00000149C86045
:1005F000704700000020024030B5044604254FF447
:10060000302000F097F80546042D17D10C480069FA
:1006100040F002000A49086108464461006940F060
:10062000400008614FF4302000F084F8054604488B
:10063000006941F6FD71084001490861284630BD56
:100640000020024004200B49C96811F0010F01D0BD
:1006500001200EE00749C96811F0040F01D0022003
:1006600007E00449C96811F0100F01D0032000E031
:1006700004207047002002407047000005490968C7
:1006800021F01001034A116011460968014311600D
:10069000704700000020024078B506460C4604254D
:1006A00000200090E80200F045F80546042D24D112
:1006B0001348006940F00100114908613480E802E4
:1006C00000F038F80546042D10D1B01C0090200C25
:1006D00000990880E80200F02DF8054608480069F6
:1006E00041F6FE7108400649086106E004480069C9
:1006F00041F6FE71084002490861284678BD0000B5
:100700000020024001460020034A106800F0380033
:10071000084310607047000000200240024803496F
:100720004860034848607047230167450020024045
:10073000AB89EFCD00B502460423FFF783FF0346E4
:1007400003E0FFF77FFF0346521E012B01D1002A71
:10075000F7D102B90523184600BD704770B522488D
:10076000A0F11402801A451005EBD5704010401C12
:100770000422C2EB80011D480068FFF7D3FE1B492D
:100780000968898A884215D0002405E000201849AC
:10079000096821F81400641C1349A1F11402891A94
:1007A000481000EBD071012202EB6101A142EDDCA7
:1007B000002070BD002408E00E48006850F82400B6
:1007C0000D49096841F82400641C0749A1F114028D
:1007D000891A481000EBD071012202EB6101A1429D
:1007E000EADC0120E5E700007A0500203400002063
:1007F0002C000020480000204400002070B5042098
:100800004949087001204949087049480068007842
:1008100010F0080F05D0464800680078FF2800D087
:1008200070BD002500240BE04248006850F8240009
:100830003F49096851F82410884200D00125641C02
:100840003D49A1F11402891A481000EBD071012230
:1008500002EB6101A142E7DC05B9E1E7FFF75EFFCA
:100860000120364908603520FFF7C0FE00203449DA
:1008700008600EE032490968324A531403FB012034
:10088000FFF7BAFE284908702D480068401C2C4923
:1008900008602B48006829490968884203D2224829
:1008A00000780428E6D02748274908602249A1F1AA
:1008B0001402891A481000EBD07149104C1C1E48D4
:1008C000801A461006EBD6704010401C0422C2EB82
:1008D000800119481438FFF725FE1749143988821A
:1008E000002413E01348006850F8240010490968F8
:1008F00051F82410884208D00E4A126852F8241089
:10090000104A02EB8400FFF7C7FE641C0A49A1F1FC
:100910001402891A481000EBD071012202EB610128
:10092000A142DFDC00BF7BE78000002081000020C7
:1009300048000020440000207A05002040000020EC
:1009400038000020007C00083C0000202DE9F04128
:10095000024600250026002000230024002791F8ED
:1009600003C00CF00F0591F803C01CF0100F03D06A
:1009700091F802C04CEA050591F800C0BCF1000FE7
:1009800031D0146800202BE04FF0010C0CFA00F37A
:10099000B1F800C00CEA03069E4220D183004FF05C
:1009A0000F0C0CFA03F7BC4305FA03FC4CEA0404F1
:1009B00091F803C0BCF1280F06D14FF0010C0CFADE
:1009C00000FCC2F814C00AE091F803C0BCF1480F63
:1009D00005D14FF0010C0CFA00FCC2F810C0401C0D
:1009E0000828D1D31460B1F800C0BCF1FF0F34DD8A
:1009F000546800202EE000F1080C4FF0010808FABE
:100A00000CF3B1F800C00CEA03069E4221D183002A
:100A10004FF00F0C0CFA03F7BC4305FA03FC4CEA49
:100A2000040491F803C0BCF1280F05D100F1080CB3
:100A300008FA0CF8C2F8148091F803C0BCF1480F12
:100A400007D100F1080C4FF0010808FA0CF8C2F8C1
:100A50001080401C0828CED35460BDE8F08141616D
:100A600070470161704700BFFEE7704770477047ED
:100A7000704700002DE9FC4106460C46082204F1AF
:100A800010016846FFF792FD208AC0F3C505382D96
:100A900002D2C5F1380001E0C5F1780007463A46B8
:100AA0000949204600F012FC08226946204600F061
:100AB0000DFC102221463046FFF778FD58212046D4
:100AC000FFF7DBFBBDE8FC818D00002000224261C6
:100AD000026105490160054941600349C9438160DC
:100AE0000249C943C16070470123456789ABCDEF17
:100AF0002DE9F04391B080468946D8F80040D8F8F7
:100B00000450D8F80860D8F80C704022494601A873
:100B1000FFF72CFD05EA060027EA050108430199C5
:100B20000844FE4908440444E00140EA54642C446B
:100B300004EA050026EA0401084302990844F8493A
:100B400008440744380340EA1757274407EA0400DB
:100B500025EA0701084303990844F249084406447A
:100B6000700440EAD6363E4406EA070024EA06014D
:100B7000084304990844EC4908440544A80540EAA0
:100B80009525354405EA060027EA0501084305993D
:100B90000844E64908440444E00140EA54642C4413
:100BA00004EA050026EA0401084306990844E049DE
:100BB00008440744380340EA1757274407EA04006B
:100BC00025EA0701084307990844DA49084406441E
:100BD000700440EAD6363E4406EA070024EA0601DD
:100BE000084308990844D44908440544A80540EA44
:100BF0009525354405EA060027EA050108430999C9
:100C00000844CE4908440444E00140EA54642C44BA
:100C100004EA050026EA040108430A990844C84981
:100C200008440744380340EA1757274407EA0400FA
:100C300025EA070108430B990844A0F524404F38E2
:100C40000644700440EAD6363E4406EA070024EA29
:100C5000060108430C990844BA4908440544A8050C
:100C600040EA9525354405EA060027EA05010843D0
:100C70000D990844B44908440444E00140EA54642E
:100C80002C4404EA050026EA040108430E990844AE
:100C9000AE4908440744380340EA1757274407EA97
:100CA000040025EA070108430F990844A8490844AD
:100CB0000644700440EAD6363E4406EA070024EAB9
:100CC0000601084310990844A24908440544A805B0
:100CD00040EA9525354405EA070026EA070108435E
:100CE000029908449C4908440444600140EAD464E1
:100CF0002C4404EA060025EA060108430799084443
:100D0000964908440744780240EAD757274407EA3F
:100D1000050024EA050108430C9908449049084459
:100D20000644B00340EA96463E4406EA040027EA39
:100D300004010843019908448A49084405442805E8
:100D400040EA1535354405EA070026EA070108435D
:100D500006990844844908440444600140EAD46484
:100D60002C4404EA060025EA060108430B990844CE
:100D70007E4908440744780240EAD757274407EAE7
:100D8000050024EA050108431099084478490844FD
:100D90000644B00340EA96463E4406EA040027EAC9
:100DA000040108430599084472490844054428058C
:100DB00040EA1535354405EA070026EA07010843ED
:100DC0000A9908446C4908440444600140EAD46428
:100DD0002C4404EA060025EA060108430F9908445A
:100DE000664908440744780240EAD757274407EA8F
:100DF000050024EA050108430499084460490844B1
:100E00000644B00340EA96463E4406EA040027EA58
:100E100004010843099908445A490844054428052F
:100E200040EA1535354405EA070026EA070108437C
:100E30000E990844544908440444600140EAD464CB
:100E40002C4404EA060025EA0601084303990844F5
:100E50004E4908440744780240EAD757274407EA36
:100E6000050024EA05010843089908444849084454
:100E70000644B00340EA96463E4406EA040027EAE8
:100E8000040108430D9908444249084405442805D3
:100E900040EA1535354485EA06007840069908444D
:100EA0003D4908440444200140EA14742C4484EA77
:100EB0000500704009990844384908440744F8027D
:100EC00040EA5757274487EA040068400C990844D1
:100ED000334908440644300440EA16463E4486EA54
:100EE000070060400F9908442E4908440544E8056E
:100EF00040EA5525354485EA0600784002990844C1
:100F0000294908440444200140EA14742C4484EA2A
:100F10000500704005990844244949E078A46AD73F
:100F200056B7C7E8DB702024EECEBDC1AF0F7CF50D
:100F30002AC68747134630A8019546FDD898806990
:100F4000AFF7448BBED75C892211906B937198FDEB
:100F50008E4379A62108B44962251EF640B340C0ED
:100F6000515A5E26AAC7B6E95D102FD65314440223
:100F700081E6A1D8C8FBD3E7E6CDE121D60737C388
:100F8000870DD5F4ED145A4505E9E3A9F8A3EFFC64
:100F9000D9026F678A4C2A8D4239FAFF81F6718730
:100FA00022619D6D0C38E5FD44EABEA4A9CFDE4B5D
:100FB00008440744F80240EA5757274487EA0400E8
:100FC000684008990844A74908440644300440EAA8
:100FD00016463E4486EA070060400B990844A24941
:100FE00008440544E80540EA5525354485EA0600ED
:100FF00078400E9908449D4908440444200140EA81
:1010000014742C4484EA05007040019908449849FE
:1010100008440744F80240EA5757274487EA040087
:10102000684004990844934908440644300440EA5F
:1010300016463E4486EA07006040079908448E49F8
:1010400008440544E80540EA5525354485EA06008C
:1010500078400A990844894908440444200140EA38
:1010600014742C4484EA050070400D9908448449A6
:1010700008440744F80240EA5757274487EA040027
:101080006840109908447F4908440644300440EA07
:1010900016463E4486EA07006040039908447A49B0
:1010A00008440544E80540EA5525354465EA07004B
:1010B000704001990844754908440444A00140EA7D
:1010C00094642C4464EA0600684008990844704916
:1010D00008440744B80240EA9757274467EA0500E6
:1010E00060400F9908446B4908440644F00340EA05
:1010F00056463E4466EA040078400699084466492C
:1011000008440544680540EAD525354465EA0700EA
:1011100070400D990844614908440444A00140EA24
:1011200094642C4464EA06006840049908445C49CD
:1011300008440744B80240EA9757274467EA050085
:1011400060400B990844574908440644F00340EABC
:1011500056463E4466EA04007840029908445249E3
:1011600008440544680540EAD525354465EA07008A
:101170007040099908444D4908440444A00140EADC
:1011800094642C4464EA0600684010990844484975
:1011900008440744B80240EA9757274467EA050025
:1011A000604007990844434908440644F00340EA74
:1011B00056463E4466EA040078400E9908443E498B
:1011C00008440544680540EAD525354465EA07002A
:1011D000704005990844394908440444A00140EA94
:1011E00094642C4464EA060068400C99084434492D
:1011F00008440744B80240EA9757274467EA0500C5
:101200006040039908442F4908440644F00340EA2B
:1012100056463E4466EA040078400A9908442A4942
:1012200008440544680540EAD5253544D8F800004F
:101230002044C8F80000D8F804002844C8F8040086
:10124000D8F808003044C8F80800D8F80C00384432
:10125000C8F80C00402101A8FFF70FF811B0BDE855
:10126000F0830000604BBBF670BCBFBEC67E9B28FF
:10127000FA27A1EA8530EFD4051D880439D0D4D9E6
:10128000E599DBE6F87CA21F6556ACC4442229F43C
:1012900097FF2A43A72394AB39A093FCC3595B65FE
:1012A00092CC0C8F7DF4EFFFD15D84854F7EA86FCB
:1012B000E0E62CFE144301A3A111084E827E53F7F1
:1012C00035F23ABDBBD2D72A91D386EB2DE9F04750
:1012D000044688461546208AC0F3C509206900EBFC
:1012E000C5002061B0EBC50F02D26069401C60618F
:1012F000606900EB55716161C9F14007BD421BD3C4
:1013000004F1180101EB09003A464146FEF770FF6F
:1013100004F118012046FFF7EBFB3E4605E008EB21
:1013200006012046FFF7E4FB403606F13F00A842E5
:10133000F5D34FF0000900E00026AA1B08EB0601D8
:1013400004F1180303EB0900FEF752FFBDE8F08734
:1013500000BFFEE7704708B500214FF0006000F0C5
:1013600057F825208DF8000000208DF801008DF839
:10137000020001208DF80300684600F00FF81C20E1
:101380008DF8000000208DF801008DF8020001208A
:101390008DF80300684600F001F808BD70B5002123
:1013A00000230F22C4780CB3164C246804F4E064C4
:1013B000C4F5E064210AC1F10403CA40447804FA88
:1013C00003F184781440214309010F4C0678A1559C
:1013D000047804F01F050124AC4005786D114FF02E
:1013E000E02606EB8505C5F8004109E0047804F025
:1013F0001F050124AC40054D0678761145F82640BE
:1014000070BD00000CED00E000E400E080E100E0D1
:10141000024A0A400243024B1A60704780FFFF1FD6
:1014200008ED00E07047704701460020034A50680D
:1014300020F4404008435060704700000010024014
:1014400029B1064AD2690243044BDA6104E0034A37
:10145000D2698243014BDA617047000000100240FC
:1014600029B1064A92690243044B9A6104E0034A97
:1014700092698243014B9A6170470000001002405C
:1014800010B500F02BF81020FFF7F8F80220FFF756
:1014900039F9002000F0D8F8002000F0EFF84FF400
:1014A000806000F0DFF84FF48040FFF7BDFF4FF49D
:1014B0008011002000F0F4F8012000F0EBF800BFEC
:1014C000392000F09BF80028FAD0022000F0F6F84E
:1014D00000BF00F0B1F80828FBD110BD0F4800682C
:1014E00040F001000D490860084640680C4908407A
:1014F0000A494860084600680A49084007490860E8
:101500000846006820F4802008600846406820F4FF
:10151000FE0048604FF41F008860704700100240D2
:101520000000FFF8FFFFF6FE30B500210022002486
:1015300000232D4D6D6805F00C0121B1042905D063
:10154000082923D105E0294D056022E0274D0560DB
:101550001FE0254D6D6805F47012234D6D6805F48C
:101560008034022505EB92421CB9214D554305609C
:101570000BE01D4D6D6815F4003F03D01C4D554325
:10158000056002E0194D5543056002E0174D056006
:1015900000BF00BF144D6D6805F0F0010909154D3D
:1015A0006B5C0568DD4045600F4D6D6805F4E061DA
:1015B000090A104D6B5C4568DD4085600A4D6D6819
:1015C00005F46051C90A0B4D6B5C4568DD40C56090
:1015D000054D6D6805F44041890B074D6B5CC5688E
:1015E000B5FBF3F5056130BD0010024000127A0032
:1015F00000093D00CD000020DD00002010B50146AF
:101600000022002300204A11012A02D1094C23683C
:1016100006E0022A02D1074C236A01E0054C636A06
:1016200001F01F02012494401C4201D0012000E07F
:10163000002010BD001002400248406800F00C007D
:10164000704700000010024001460020034A506825
:1016500020F0F00008435060704700000010024086
:101660007047000001460020034A506820F4E06003
:1016700008435060704700000010024001460020FF
:10168000034A506820F4605040EAC100506070473F
:101690000010024001490866704700000000424205
:1016A00002460020044B586820F47C1042EA0103F3
:1016B0001843014B5860704700100240014600205B
:1016C000034A506820F00300084350607047000050
:1016D000001002407047704770477047704770476E
:1016E00070477047704770477047704770470000F9
:1016F0002DE9F05FD2480068052801D1002002E002
:10170000CF480068401CCE490860CE48FEF75EFE18
:101710000446CB48006806282BD2DFE800F0032BF4
:101720004C6A89A9C8480068C0EB0440C6490968EA
:1017300001EB2020C4490860096846F66052A2EB1C
:10174000214001F0F6FA0746C04AC14B01F06CF99E
:1017500005460022BF4B01F0BFF8824601F0BCFAFB
:10176000BD49A1F84600072301220321B548FEF731
:1017700063FE8FE0A4F50040B8490968C1EB004062
:10178000B649096801EB2020B449086009680914CA
:101790005A2201FB02F0C11700EB5141C913C1F5F8
:1017A0000041AD4AA2F84410072301220421A548B4
:1017B000FEF742FE6EE0AA480068C0EB0440A8496C
:1017C000096801EB2020A64908600846006800145B
:1017D00040F61651484343F2F93190FBF1F09E492F
:1017E000A1F842000723012205219648FEF724FEB6
:1017F00050E09C480068C0EB04409749897C084150
:10180000984909680844974908609348007810F09F
:10181000040F03D008460068001400E020468E49FB
:10182000C8870723012206218648FEF705FE31E01E
:101830008D480068C0EB04408749897C08418A498B
:1018400009680844884908608348007810F0040F4C
:1018500003D008460068001400E020467E49A1F845
:1018600040000723012200217648FEF7E5FD11E044
:1018700041F67950844206DA41F2B950844202DDE1
:1018800003207A4908600723012210216D48FEF7E2
:10189000D3FD00BF00BF01216A48FEF72EFE744849
:1018A000006848B372480068401E7149086034D12E
:1018B00070480078012820D101036F48FFF7D1F864
:1018C000012240F227716D4800F02EFC6B48008821
:1018D00010F0800F21D06A4800686A490968884280
:1018E0001BDA674801680068401C654A106066485A
:1018F000405C6249091D08800FE04FF480515E484A
:10190000FFF7ADF84FF400515B48FFF7A8F801224C
:1019100040F22551594800F007FC5C4800685C49DA
:10192000884204DC59480068801C584908604F48C8
:101930000068012813D15548006847F230518842A9
:101940000DDD4548808F40F0200043498887474897
:101950000068012803D1C1034E48FFF782F84B48C5
:10196000006847F23051884208DD4B48007828B9BA
:101970003948808F40F02000374988873B4800680D
:10198000012803D1C1034348FFF76BF837480068CB
:1019900003284ED13D48006847F23051884202DAB0
:1019A00043F6D10919E02C4890F83C0010F00300F0
:1019B00006D0012807D0022808D003280CD108E05F
:1019C00043F6D10908E045F23A5905E047F2A21979
:1019D00002E048F60B6900BF00BF2C48006846F2E1
:1019E000A811884201DA45F23A592848006844F6BD
:1019F0002061884201DA47F2A2192448006843F6C0
:101A00009821884201DA48F60B692048006842F2C2
:101A10001071884201DA4AF674291C48006841F2C4
:101A20008831884201DA41F668494FF08041A1F8D7
:101A300038900121880700F03AF8BDE8F09F0000D7
:101A40004C000020002401406000002029BFE781F5
:101A50003E14214000406F40660500205C000020DD
:101A60005800002050000020540000206400002096
:101A70000800002010000020000C01400038014048
:101A8000040000200C000020E4000020680000207A
:101A9000F049020000080140000000207047704734
:101AA0007047704770477047704770477047CA4328
:101AB0000282704721B1028842F00102028004E0F4
:101AC00002884FF6FE731A400280704770B50024FA
:101AD00000220023058C4FF6FE7635400584028CEB
:101AE0008388048B4FF68F752C40B51E2C400D88D3
:101AF0002C43751E2A400D892A434D882A43144DD4
:101B0000A8420BD0134DA84208D0134DA84205D0CF
:101B1000124DA84202D0124DA84213D14FF6F775CC
:101B20002A404D892A434FF6FB752A408D882A4367
:101B30004FF6FF652B404FF6FF552B408D892B4309
:101B4000CD892B4383800483CD888586028470BD34
:101B5000002C01400034014000400140004401409D
:101B6000004801400A460021018B4FF6F7731940E7
:101B7000114301837047000070B500240022002348
:101B8000058C4FF6EF7635400584028C8388048BF4
:101B900048F6FF752C404FF6FF452C400D884FF658
:101BA000FF7606EA05252C434FF6DF752A400D899E
:101BB00006EA05152A434D8806EA05152A43154D00
:101BC000A84202D0144DA8421DD14FF67F752A407D
:101BD0004D894FF6FF7606EA05152A434FF6BF7585
:101BE0002A408D8806EA05152A434FF6FF352B401B
:101BF0004FF2FF752B408D8906EA85052B43CD8971
:101C000006EA85052B4383800483CD8805870284FB
:101C100070BD0000002C0140003401400A46002144
:101C2000018B4FF2FF7319404FF6FF7303EA022353
:101C30001943018370470000002202881D4B98421F
:101C40000ED01D4B98420BD0B0F1804F08D01B4BEB
:101C5000984205D01A4B984202D01A4B984204D1B0
:101C60004FF68F731A404B881A43174B984207D090
:101C7000164B984204D04FF6FF431A40CB881A43C4
:101C800002808B8883850B8803850A4B98420BD092
:101C9000094B984208D00E4B984205D00D4B984204
:101CA00002D00D4B984201D10B7A03860123838227
:101CB00070470000002C0140003401400004004047
:101CC00000080040000C00400010004000140040DC
:101CD0000040014000440140004801407047704707
:101CE0002DE9F047FB48008800F0FF0818F0800F4E
:101CF00001D04FF0020918F0080F02D0F548001D7E
:101D0000048818F0200F01D04FF00409F1480C307E
:101D1000008800F0FF08B9F1020F06D0B9F1040FF6
:101D200031D0B9F10C0F70D12CE0EA48008810F0E6
:101D3000800F10D0E8480068E849096888420ADA4C
:101D4000E54801680068401CE34A1060E448405CD4
:101D5000E049091D0880E0480068E04909688842B8
:101D60000FD11420DF4908600020DF490870DA49EC
:101D70000860DA490860002240F22771D54800F077
:101D8000D3F9C0E100BFD348001D0088D7490870CF
:101D9000D148006810B101283CD10DE0D34800784B
:101DA000012804D1D1480078CD49087003E04FF0F4
:101DB000FF30C949086086E1CC480078C8494870BE
:101DC00008464078042821D00846407803281DD0D2
:101DD000084640780F2819D008464078102815D0BA
:101DE00008464078062811D00846407801280DD0D2
:101DF00008464078022809D008464078052805D0D2
:101E00004FF0FF30B449086003E07BE10820B3499C
:101E1000086058E1B5480178B148AF4A126881546A
:101E2000AD48006806280CD1AD484078102803D092
:101E3000AB4840780F2804D1A94880790930A749D8
:101E40000860A6480068801EA349096888427DDAB8
:101E50004FF0FF30A0490860A0480168A048FEF795
:101E600061FB18B100209D4908602CE14FF400513E
:101E70009F48FEF7F6FD002240F22551954800F0FC
:101E800053F99748C0789649897800EB0125944822
:101E900040799349097900EB01269148407805285B
:101EA0000AD004DC03283FD004287AD17AE006283F
:101EB0001CD01028F9D1A7E041F66160854202D814
:101EC0008848006840B185208549487002208870A4
:101ED00003208249086008E00620804908608048A5
:101EE00040797F49097900EB0124CAE042F2D060D1
:101EF000854202D87B48006840B186207849487006
:101F0000022088700320754908600CE006207349A0
:101F10000860734840797249097900EB01207549DE
:101F2000096821F81500ACE0A81942F21071884246
:101F300004D8A81902D06B48006850B183206849C2
:101F40004870022088700320644900E0BAE008600D
:101F500026E07006000E6249887008468078C01C32
:101F60005E490860002419E0281902D10120624965
:101F7000086028195F49096831F810000012032130
:101F800001EB4401564A505428195A49096811F87E
:101F90001000042101EB44015054641CB442E3D905
:101FA0006FE063E0A819402804D8A81902D04D4872
:101FB000006840B184204A4948700220887003209C
:101FC000464908601FE07006000E454988700846C3
:101FD0008078C01C41490860002412E02819474954
:101FE00031F810000012032101EB44013C4A505427
:101FF0002819424911F81000042101EB4401505402
:10200000641CB442EAD93CE0A81942F2107188423B
:1020100004D8A81902D03348006840B19020304954
:1020200048700220887003202C4908601DE02C486D
:1020300040792B49097900EB0126002410E00820A3
:1020400000EB44002649085C072101EB4401244AC7
:10205000515C00EB01202749096821F81400641C39
:10206000B442ECD306201D4908600AE01C484078C1
:1020700080301B4948700120887003201749086090
:1020800000BF00BF154801681548FEF74BFA074628
:10209000124802680068401C104B186010488754B2
:1020A000C7F30722184601680068401C18600C48F6
:1020B000425414200B49086001200B49087000208D
:1020C0000F49086000BF00BF03480068401C024978
:1020D000086018E000380140040000200C000020D7
:1020E000E400002008000020100000208C000020E8
:1020F000000C01402C00002020000020E4040020FF
:102100001C00002000BF00BFBDE8F087704770478B
:1021100021B1828942F40052828104E082894DF625
:10212000FF731A4082817047F0B5034600240026F1
:1021300000250020A1F510676A3F00D100BF1846B6
:10214000C1F3421401F01F06012707FA06F5012C1E
:1021500001D10C3004E0022C01D1103000E0143029
:102160001AB107682F43076002E00768AF430760B2
:10217000F0BD00002DE9F04786B005460E4600246C
:10218000A24600BFA1460027B08900B100BF2F467C
:102190002C8A4CF6FF700440F08804432C82AC89F2
:1021A0004EF6F3100440B088318908437189084322
:1021B0000443AC81AC8A4FF6FF400440B08904432D
:1021C000AC8201A8FFF7B0F91F48874202D1DDF8C1
:1021D00010A001E0DDF80CA0A88910F4004F08D091
:1021E0000AEBCA0000EB0A1031684900B0FBF1F8B5
:1021F00007E00AEBCA0000EB0A1031688900B0FB67
:10220000F1F86420B8FBF0F004012009642101FB1F
:102210001089A88910F4004F08D0322000EBC900C3
:10222000B0FBF1F000F00700044308E0322000EBBF
:1022300009106421B0FBF1F000F00F0004432C8181
:1022400006B0BDE8F08700000038014070477047D5
:10225000704700BFFEE770479AB000244FF000655A
:102260006846FEF733FCFE4A29466846FFF72EF81B
:10227000694616A8FEF7FEFB0CE0012000EB4400C7
:1022800016A9085C11F8141040EA0121F54820F85D
:102290001410641C082CF0DB4FF48170F1495439A0
:1022A000A1F86400FFF7ECF801214FF4C820FFF714
:1022B000D7F801210320FFF7C3F8012140F21D20C8
:1022C000FFF7CEF8E8484068E8490843E649486027
:1022D0004FF4C050E64908801020C8700220887072
:1022E000E448FEF733FB7820E14908800020C870FD
:1022F00002208870DF48FEF729FB4FF40070DC49AC
:102300000880032088701820C870DA48FEF71EFB8A
:102310004FF48060D6490880032088704820C87038
:10232000D448FEF713FB4FF41E70D14908801820E3
:10233000C87003208870D048FEF708FB4FF4704047
:10234000CB4908801020C87003208870CA48FEF767
:10235000FDFA4FF40050C64908801420C8700220CE
:102360008870C648FEF7F2FA4FF40040C049088072
:102370001020C87002208870C048FEF7E7FA0020DD
:10238000BF490860087148714FF4602088604FF4BD
:102390000060C86001200874BA48006840F400007A
:1023A000B8490860B649B7480838FEF71DF801215A
:1023B000B4480838FDF7F5FFB2480838FEF798F83A
:1023C00000BFB0480838FEF705F80028F9D1AD483D
:1023D0000838FEF79DF84BF68030AB498880002026
:1023E0000880C880488008724FF08040FFF724FCC6
:1023F0006020A64908800120488042F6E060C8803D
:10240000002008814FF08040FFF7B6FB0821C80686
:10241000FFF704FC01208107888101218007FFF775
:1024200049FB45F6C0509849888003200880002069
:10243000C88048809648FFF7FFFB602093490880DA
:10244000012048800020C88008819148FFF73EFBAA
:1024500008218F48FFF786FB4FF400408C49443138
:10246000088001218A48FFF725FB4FF480708649D8
:10247000888000200880C88048808648FFF7DCFB01
:10248000602082490880012048808020C880002088
:1024900008818048FFF71AFB08217E48FFF762FB9E
:1024A0004FF400407B49443108800D2079492031A8
:1024B000088001217748FFF7FDFA4FF480707249D8
:1024C000888000200880C88048807348FFF7B4FBEC
:1024D00060206E490880012048808020C88000204C
:1024E00008816D48FFF748FB08216B48FFF796FB12
:1024F000602066490880012048800A20C8800020AA
:1025000008816548FFF7E2FA08216348FFF72AFBD4
:1025100001216148FFF7CEFA4FF480515648FEF78B
:102520009EFA4FF400515448FEF799FA4D4854383A
:10253000808F20F020004B49543988875748006825
:10254000012803D1C1034B48FEF789FA4FF4E1306B
:102550005349086000208880C880088188810C2049
:1025600048815048FFF706FE012240F227714D488E
:10257000FFF7DAFD012240F225514A48FFF7D4FD6A
:1025800001214848FFF7C4FD00BF3E480838FDF769
:1025900013FF0028F9D140F6B83032495439488049
:1025A0004FF47A6088804FF40040C8808881FEF73D
:1025B000D5F800202B49543988873B4800680088AB
:1025C000A1F84800384800680068000CA1F84A00EB
:1025D000364800680088A1F84C00FEF7BCFE6BE1AD
:1025E00030BF33480078012864D11E485438B0F811
:1025F000400040F6B831484301141A485438008A64
:10260000B1EB400F27DD17485438C08F40F6B83182
:102610004843011413485438C089B1EB400F1ADD08
:1026200010485438B0F8400040F6B831484301141F
:102630000C4854384089B1EB400F0CDD0948543840
:10264000C08F40F6B8314843011406485438008919
:10265000B1EB400F02DC00201549087011E129E0C0
:10266000FFFF0100BA050020000001400009000240
:102670008400002000080140000C014000100140CF
:102680000C06002008240140200600202A06002015
:102690000048014000440140000400406400002064
:1026A000FC05002000380140240000202800002004
:1026B000000000208148C088A0F50040C0015A21D8
:1026C00090FBF1F0C0F180007D4908807B48808953
:1026D000A0F50040C001C82190FBF1F0803079499D
:1026E00008807648B0F8400040F6B83148430014FE
:1026F0000A2190FBF1F17148B0F8400040F6B83281
:10270000504301EB20406D49098A884210DD4FF4A7
:1027100080516D48FEF7A5F94FF400616A48FEF755
:102720009EF96648808F40F00200644988870AE07D
:102730004FF480516448FEF792F96048808F20F092
:1027400002005E4988875D48C08F40F6B831484333
:1027500000140A2190FBF1F15848C08F40F6B832BE
:10276000504301EB20405549C989884210DD4FF4A0
:1027700000615548FEF775F94FF480515248FEF755
:102780006EF94E48808F40F001004C4988870AE07E
:102790004FF400614C48FEF762F94848808F20F002
:1027A0000100464988874548B0F8400040F6B831F6
:1027B000484300140A2190FBF1F14048B0F8400072
:1027C00040F6B832504301EB20403C4949898842E9
:1027D00006DD3A48808F40F008003849888705E0D8
:1027E0003648808F20F00800344988873348C08FEE
:1027F00040F6B831484300140A2190FBF1F12F480C
:10280000C08F40F6B832504301EB20402B49098974
:10281000884206DD2948808F40F0040027498887D8
:1028200005E02648808F20F004002449888723484B
:102830004088000240F6165190FBF1F0401C204900
:10284000091D08801D488088B0F5FA7F19DB1B48F8
:102850008088B0F5FA5F14DC1849898849001B4A62
:1028600092FBF1F0C11700EB9171C1F38F01184A8F
:1028700011801146088800EBD0714910144A0832C3
:1028800011800E48007810F0020F05D04FF48041FF
:102890001048FEF7E4F804E04FF480410D48FEF7DD
:1028A000E0F80648007810F0010F05D072B671B656
:1028B000FDF7A4FF62B661B692E60000660500204F
:1028C000340400403444014000080140001C4E0E16
:1028D0002C480140000C014010B591EA030F48BF9D
:1028E00083F0004300F19882841A71EB030C05D247
:1028F000121943EB0C03001B61EB0C01DFF824E120
:102900004FEA1154A4EB135C1EEA430F18BF9EEA72
:10291000445F73D023EA0E03DCF1200E21EA045158
:1029200043F4801332D322FA0CFE10EB0E0023FA8C
:102930000CFE41EB0E01CCF1200E03FA0EFE10EB63
:102940000E0051F10001B1F5801FCCF1200E32D202
:1029500001EB045112FA0EF2BDE8104058BF704767
:10296000401C38BF5FEA420218BF7047002814BFFE
:1029700020F0010041F100014FEA410313F5001F6F
:1029800038BF7047A1F1C04100F038BA012A43EBCB
:102990000302ACF1200CDCF11F0E32BF4FF0000E31
:1029A00023FA0CF310EB030041EB0451B4EB115F7D
:1029B000D0D0A1EB045101F5801149085FEA300045
:1029C00001EB04510ED350F1000038BF12FA0EFE95
:1029D00008D1BDE81040C9E7401C38BF5FEA420299
:1029E000CAD1C3E7BDE810404FEA410313F5001F09
:1029F00038BF7047A1F1C04100F000BA9EEA445FC1
:102A000008D011EA5E0FBDE8104004BF01F000419C
:102A100000207047BDE8104070B500F0A1F900BF7C
:102A200064FBBE3E0000E0FF2DE9C04130B4DFF89A
:102A3000A0C23CEA111418BF3CEA131400F0EC8069
:102A400081EA03051CEA111444EAD57418BF1CEA94
:102A5000131500F0C780A4EB05044FF0004545EACC
:102A6000C12145EAC32341EA505143EA525304F1DC
:102A70007F74994204F500344FEAC0204FEAC22225
:102A800008BF904200F09C804FEA13650FF2401699
:102A9000765D4FEA134506FB05F7C7F1807706FB25
:102AA00007F74FEAD737A7FB03687642C8F58038A7
:102AB000A7FB06CE38BFA8F1010807FB08E64FF0D8
:102AC000000EA6FB028CE6FB03CEDCF1000CCEF17F
:102AD000004E38BFAEF1010EA6FB0C584FF00007B8
:102AE0004FF00005E6FB0E87A1FB08C6A0FB07CE52
:102AF00016EB0E0645F10005E1FB076515F1E04E0A
:102B00007EBFA4F580345FEA46066D4116F180076A
:102B100045F100054FEA17274FEA066647EA0567C1
:102B2000A6F1DE46B6F1805F4FEA15251FD938467B
:102B300024F0010C05EBC471BCF1FE6F01EB0C112C
:102B400002D8F0BCBDE8008124425CBF01F5801EC4
:102B50009EEAC47F02D4F0BCBDE80081244238D490
:102B6000F0BCA1F1C041BDE8004100F047B94FEA17
:102B7000D22242EA43524FEAD323A7FB02864FEA0E
:102B8000D02040EA415007FB03661EEA0E0F4FEAD1
:102B9000D12105FB026658BFA6EB0056B6EB0056E6
:102BA0004FEA520E4EEAC37E18EB0E0E56EB530E52
:102BB000BDD518EB02085E417F1C55F10005B6E754
:102BC0004FF480154FF000074FF000064FF000085B
:102BD000ADE7F0BC4FF0000001F1C04101F0004151
:102BE000BDE8008111EA0C1F0CEA131500D00CE0BF
:102BF00013EA0C1F00F025804FF00000F0BC81EAC2
:102C0000030101F00041BDE80081F0BCBDE80041D6
:102C100081EA030100F0F2B8F0BCBDE8004170B5F4
:102C200000F09EF8097EFC3E00F007B881EA03013F
:102C30004FF0000001F00041704781EA030100F00D
:102C4000DDB8F0BCBDE800414FF0000021497047FD
:102C5000FFFDFBF9F7F5F4F2F0EEEDEBE9E8E6E461
:102C6000E3E1E0DEDDDBDAD8D7D5D4D3D1D0CFCDE8
:102C7000CCCBCAC8C7C6C5C4C2C1C0BFBEBDBCBB21
:102C8000BAB9B8B7B6B5B4B3B2B1B0AFAEADACAB1C
:102C9000AAA9A8A8A7A6A5A4A3A3A2A1A09F9F9EF6
:102CA0009D9C9C9B9A9999989797969595949393A8
:102CB000929191908F8F8E8E8D8C8C8B8B8A89893F
:102CC00088888787868585848483838282818180C2
:102CD0000000FF070000F87F4FEA1153A3F580635F
:102CE000D3F11E03A8BFD3F1200C08DB4FF0004244
:102CF00042EAC12252EA505232FA03F070470942C6
:102D00000BD4102BC4BF0020704703F5787CBCF1B6
:102D1000FF3F05D04FF0FF3070474FF00000704785
:102D200070B500F01DF800BF499224800020704764
:102D3000F0E710F0004248BF4042B0FA80F310FACA
:102D400003F10AD0C3F11D0303F580634FEA41503C
:102D500002EB035202EBD12170474FF000007047A5
:102D60000EF1020E2EF0030E5EF8046B364205D40F
:102D7000012A43EB030515F5001F12D8012841EB8A
:102D8000010C1CF5001F0CD80ED14FEAD17C15F5B3
:102D9000001F0CEB4C0C0CF1020C08BF4CEBD37C6D
:102DA00004E04FF0080C01E04FEAD37C0CEB4C053B
:102DB00026FA05F606F00706B6F1040C06D20EEB6D
:102DC000860CBDE870404CF0010C6047DFE80CF069
:102DD000090B02024FF000414FF00000A1F5002165
:102DE00070BD19461046012851EB010418BFD4F5F7
:102DF000001484BF002001F0004170BD0808A0F558
:102E000000114FEA3101704710B591EA030F48BF36
:102E100083F000433FF568AD841A71EB030C07D2D1
:102E200012198CF0004C43EB0C03001B61EB0C01FE
:102E3000DFF8A4E14FEA1154A4EB135C1EEA430F40
:102E400018BF9EEA445F00F0B08023EA6E0352424E
:102E500021EA0451C3EB6E0338BF5B1EDCF1200E88
:102E600025D322FA0CFE10EB0E0043FA0CFE41EBC8
:102E70000E01CCF1200E03FA0EFE10EB0E0051F104
:102E80000001CCF1200E29D412FA0EF201EB04510C
:102E9000BDE8104058BF7047401C1CBFB2F1004F46
:102EA000704700280CBF491C20F00100704712EB4E
:102EB000020E43EB030218BF4FF0010E4EEA42022E
:102EC000ACF1200CDCF11E0E54D943FA0CFE10EBD1
:102ED0000E0051F1FF31CCF11E0ED5D50EF1010ED1
:102EE00012FA0EFE404141EB010101EB445C5FEA46
:102EF0005C5C10D910EBDE7001EB045138BFBEF101
:102F0000004FBDE8104018BF704700280CBF491C97
:102F100020F00100704730D24FEAD42C11F5001197
:102F200024F400641BD0B1FA81F20B3AA41AA41E57
:102F3000D2F12003914030FA03F31943904001EBA2
:102F4000CC71002C01EB0451BDE81040A8BF7047C4
:102F500001F1C0414FF0000001F000417047B0FAAC
:102F600080F310FA03F100D110BDE41A173C4805B4
:102F7000C90AE4E701EB045110BD491001EB04510B
:102F8000BDE810404FEA300002E04FF0000170470A
:102F90004A0008BF0042F8D0B2F5001F28BF7047B2
:102FA00001F000414FF0000070479EEA445F07D0F7
:102FB00011EA5E0FBDE8104004BF002100207047F9
:102FC000BDE8104070B5FFF7CBFE00BF40DFF63E16
:102FD00083F00041104670470000E0FF0000C1C0D0
:102FE00081C1400101C3C003800241C201C6C006C5
:102FF000800741C70005C1C581C4400401CCC00C95
:10300000800D41CD000FC1CF81CE400E000AC1CA54
:1030100081CB400B01C9C009800841C801D8C01844
:10302000801941D9001BC1DB81DA401A001EC1DEC4
:1030300081DF401F01DDC01D801C41DC0014C1D4B4
:1030400081D5401501D7C017801641D601D2C012D4
:10305000801341D30011C1D181D0401001F0C030A4
:10306000803141F10033C1F381F240320036C1F6C4
:1030700081F7403701F5C035803441F4003CC1FC94
:1030800081FD403D01FFC03F803E41FE01FAC03A54
:10309000803B41FB0039C1F981F840380028C1E884
:1030A00081E9402901EBC02B802A41EA01EEC02EC4
:1030B000802F41EF002DC1ED81EC402C01E4C024B4
:1030C000802541E50027C1E781E640260022C1E2D4
:1030D00081E3402301E1C021802041E001A0C060E4
:1030E000806141A10063C1A381A240620066C1A6C4
:1030F00081A7406701A5C065806441A4006CC1AC94
:1031000081AD406D01AFC06F806E41AE01AAC06A53
:10311000806B41AB0069C1A981A840680078C1B843
:1031200081B9407901BBC07B807A41BA01BEC07EC3
:10313000807F41BF007DC1BD81BC407C01B4C074B3
:10314000807541B50077C1B781B640760072C1B2D3
:1031500081B3407301B1C071807041B00050C19023
:10316000819140510193C053805241920196C056C3
:10317000805741970055C19581944054019CC05C93
:10318000805D419D005FC19F819E405E005AC19A53
:10319000819B405B0199C059805841980188C04883
:1031A00080494189004BC18B818A404A004EC18EC3
:1031B000818F404F018DC04D804C418C0044C184B3
:1031C000818540450187C047804641860182C042D3
:1031D000804341830041C18181804040FC3100082F
:1031E00000000020E40000006C010008E03200084C
:1031F000E4000020BC0D0000880100080100000070
:1032000000000000000000000000000000010000BD
:1032100000000000010000000000000000000000AD
:10322000E8F7FF1FECF7FF1F66050020007C000891
:10323000007C00080000000000000000000000000A
:1032400066050020007C000800000000000000006F
:10325000000000000000000000000000000000006E
:10326000000000000000000000807701FA007D00EF
:10327000000000000000000000000000000000004E
:1032800000000000000000000080000000000000BE
:10329000000000000000000000000000000000002E
:1032A000000000000000000000000000000000001E
:1032B000000000000000000000000000000000000E
:1032C00000000000000000000000000000010203F8
:1032D00004010203040607080902040608000000AE
:0400000508000131BD
:00000001FF
