:020000040800F2
:10000000A00E0020CD01000861130008730A00084B
:100010005D1300081B0500083B23000800000000DA
:10002000000000000000000000000000C1170008F0
:100030006B0500080000000005150008C317000844
:100040003F23000803150008C5170008B71700086C
:1000500079060008411700089F050008A30500085D
:10006000A5050008A7050008A90500085505000812
:1000700057050008590500085B0500085D050008E4
:100080005F050008610500089F030008372300088A
:10009000392300081F05000821050008AB050008EA
:1000A000C7170008CD170008CB170008C9170008AC
:1000B000D11700087D1B00087F1B0008790A000883
:1000C000770A00087D0A00087B0A0008BB170008B1
:1000D000BD170008C11D0008F5210008F721000820
:1000E000A1050008B517000835230008871B000884
:1000F0008D1B00088B1B0008891B0008A10300084A
:100100005B070008B9170008811B0008BF1700082B
:10011000BD1D0008BF1D0008831B0008851B0008CB
:100120006305000865050008670500086905000803
:1001300000F002F800F03AF80AA090E8000C8244BF
:100140008344AAF10107DA4501D100F02FF8AFF29C
:10015000090EBAE80F0013F0010F18BFFB1A43F0A5
:10016000010318478C310000AC310000103A24BF65
:1001700078C878C1FAD8520724BF30C830C144BF0C
:1001800004680C607047000000230024002500264E
:10019000103A28BF78C1FBD8520728BF30C148BFEA
:1001A0000B6070471FB51FBD10B510BD00F0C1F842
:1001B0001146FFF7F7FF02F0C3F800F0DFF803B4D1
:1001C000FFF7F2FF03BC00F0E3F80000034800472C
:1001D00003480449044A054B7047000031010008F8
:1001E000A0060020A00E0020A00A0020A00A0020E7
:1001F000032A40F2308010F0030C00F0158011F853
:10020000013BBCF1020F624498BF11F801CB00F82A
:10021000013B38BF11F8013BA2F1040298BF00F87E
:1002200001CB38BF00F8013B11F0030300F04F8011
:10023000083AC0F0088051F8043B083A51F804CB62
:10024000A0E80810F5E7121D5CBF51F8043B40F828
:10025000043BAFF30080D20724BF11F8013B11F833
:1002600001CB48BF11F8012B24BF00F8013B00F877
:1002700001CB48BF00F8012B70474FF0000200B5DA
:10028000134694469646203922BFA0E80C50A0E8B9
:100290000C50B1F12001BFF4F7AF090728BFA0E867
:1002A0000C5048BF0CC05DF804EB890028BF40F833
:1002B000042B08BF704748BF20F8022B11F0804F75
:1002C00018BF00F8012B704770477047704710B592
:1002D000203AC0F00B80B1E81850203AA0E818503E
:1002E000B1E81850A0E81850BFF4F5AF5FEA027CFF
:1002F00024BFB1E81850A0E8185044BF18C918C06E
:10030000BDE810405FEA827C24BF51F8043B40F80E
:10031000043B08BF7047D20728BF31F8023B48BFF3
:1003200011F8012B28BF20F8023B48BF00F8012B31
:100330007047754600F028F8AE46050069465346FA
:1003400020F00700854618B020B5FFF741FFBDE853
:1003500020404FF000064FF000074FF000084FF02C
:10036000000B21F00701AC46ACE8C009ACE8C009BD
:10037000ACE8C009ACE8C0098D4670470446AFF34D
:1003800000802046FFF71BFF004870473C06002016
:1003900001491820ABBEFEE72600020070477047F7
:1003A000704721B1826842F00102826003E08268F6
:1003B00022F0010282607047014600208A6812F034
:1003C000040F01D0012000E0002070470146C86CF6
:1003D00080B27047014600208A6812F0080F01D0F1
:1003E000012000E00020704730B5024600200023C5
:1003F00050680F4C20400D790C6844EA05242043D6
:10040000506090680B4C2040D1E902542C434D7948
:1004100044EA450420439060D06A20F470000C7CCC
:10042000641EE4B2234340EA0350D06230BD0000B2
:10043000FFFEF0FFFDF7F1FFF0B504460D4600208A
:100440000021092D11DDE068A5F10A0606EB46073B
:10045000072606FA07F18843A5F10A0606EB4606C9
:1004600003FA06F10843E0600CE0206905EB45075C
:10047000072606FA07F1884305EB450603FA06F15D
:1004800008432061072A0FDA606B561E06EB8607C9
:100490001F2606FA07F18843561E06EB860605FA64
:1004A00006F10843606322E00D2A0FDA206BD61FA5
:1004B00006EB86071F2606FA07F18843D61F06EBD0
:1004C000860605FA06F10843206310E0E06AA2F10F
:1004D0000D0606EB86071F2606FA07F18843A2F1F0
:1004E0000D0606EB860605FA06F10843E062F0BD4C
:1004F000816841F008018160704721B1826842F44F
:10050000A002826003E0826822F4A0028260704749
:10051000816841F004018160704700BFFEE77047C9
:100520007047000030B502460B464FF6FF7008E0FA
:1005300012F8014B4440E1B20012054C34F811406E
:1005400060401C00A3F10105ABB2F1D130BD000049
:10055000F030000870477047704770477047704729
:1005600070477047704770477047704770B50346D3
:100570000024002010E00E5C451C4D5D46EA052677
:10058000851C4D5D46EA0546C51C4D5D46EA056580
:1005900043F82450641C001D9042ECD370BD70479A
:1005A00070477047704770477047704770B5034693
:1005B00014460022002015E011F822501D5431F895
:1005C0002250C5F30726451C5E5551F82250C5F34D
:1005D0000746851C5E5551F822502D0EC61C9D55B0
:1005E000521C001DA042E7D370BD00000149C86045
:1005F000704700000020024030B5044604254FF447
:10060000302000F097F80546042D17D10C480069FA
:1006100040F002000A49086108464461006940F060
:10062000400008614FF4302000F084F8054604488B
:10063000006941F6FD71084001490861284630BD56
:100640000020024004200B49C96811F0010F01D0BD
:1006500001200EE00749C96811F0040F01D0022003
:1006600007E00449C96811F0100F01D0032000E031
:1006700004207047002002407047000005490968C7
:1006800021F01001034A116011460968014311600D
:10069000704700000020024078B506460C4604254D
:1006A00000200090E80200F045F80546042D24D112
:1006B0001348006940F00100114908613480E802E4
:1006C00000F038F80546042D10D1B01C0090200C25
:1006D00000990880E80200F02DF8054608480069F6
:1006E00041F6FE7108400649086106E004480069C9
:1006F00041F6FE71084002490861284678BD0000B5
:100700000020024001460020034A106800F0380033
:10071000084310607047000000200240024803496F
:100720004860034848607047230167450020024045
:10073000AB89EFCD00B502460423FFF783FF0346E4
:1007400003E0FFF77FFF0346521E012B01D1002A71
:10075000F7D102B90523184600BD704770B524488B
:10076000A0F11402801A461006EBD6704010401C0F
:100770000422C2EB80011F480068FFF7D3FE1D4929
:100780000968898A884217D0002405E000201A49A8
:10079000096821F81400641C1549A1F11402891A92
:1007A000481000EBD071012202EB6101A142EDDCA7
:1007B00045F0010005461AE0002408E00F480068F3
:1007C00050F824000E49096841F82400641C0849C7
:1007D000A1F11402891A481000EBD071012202EB3A
:1007E0006101891CA142E9DC45F00200054670BDAB
:1007F0008A050020380000202C0000205400002032
:100800004C00002070B504204A49087001204A4974
:1008100008704A480068007810F0080F05D0474873
:1008200000680078FF2800D070BD002500240BE090
:100830004348006850F824004049096851F82410E2
:10084000884200D00125641C3E49A1F11402891A96
:10085000481000EBD071012202EB6101891CA1421A
:10086000E6DC05B9E0E7FFF759FF012036490860EB
:100870003520FFF7BBFE0020344908600EE0334905
:100880000968334A531403FB0120FFF7B5FE2949D9
:1008900008702E480068401C2C4908602B480068EE
:1008A00029490968884203D2224800780428E6D002
:1008B0002748284908602349A1F11402891A4810E1
:1008C00000EBD07149104C1C1E48801A461006EBF4
:1008D000D6704010401C0422C2EB80011948143825
:1008E000FFF720FE174914398882002413E01448CA
:1008F000006850F824001149096851F82410884212
:1009000008D00F4A126852F82410114A02EB8400F2
:10091000FFF7C2FE641C0B49A1F11402891A4810AA
:1009200000EBD071012202EB6101891CA142DEDCE7
:1009300000BF79E7900000209100002054000020C3
:100940004C0000208A0500204800002040000020C4
:10095000007C0008440000202DE9F04102460025FB
:100960000026002000230024002791F803C00CF08B
:100970000F0591F803C01CF0100F03D091F802C0CE
:100980004CEA050591F800C0BCF1000F31D01468A5
:1009900000202BE04FF0010C0CFA00F3B1F800C07E
:1009A0000CEA03069E4220D183004FF00F0C0CFA94
:1009B00003F7BC4305FA03FC4CEA040491F803C0B6
:1009C000BCF1280F06D14FF0010C0CFA00FCC2F864
:1009D00014C00AE091F803C0BCF1480F05D14FF0F4
:1009E000010C0CFA00FCC2F810C0401C0828D1D33E
:1009F0001460B1F800C0BCF1FF0F34DD5468002072
:100A00002EE000F1080C4FF0010808FA0CF3B1F8E1
:100A100000C00CEA03069E4221D183004FF00F0C68
:100A20000CFA03F7BC4305FA03FC4CEA040491F802
:100A300003C0BCF1280F05D100F1080C08FA0CF82E
:100A4000C2F8148091F803C0BCF1480F07D100F13F
:100A5000080C4FF0010808FA0CF8C2F81080401C8E
:100A60000828CED35460BDE8F08141617047016130
:100A7000704700BFFEE7704770477047704700003F
:100A80002DE9FC4106460C46082204F11001684697
:100A9000FFF78CFD208AC0F3C505382D02D2C5F1C1
:100AA000380001E0C5F1780007463A46094920467A
:100AB00000F012FC08226946204600F00DFC1022CE
:100AC00021463046FFF772FD58212046FFF7D5FB3F
:100AD000BDE8FC819D0000200022426102610549C1
:100AE0000160054941600349C94381600249C94326
:100AF000C16070470123456789ABCDEF2DE9F04315
:100B000091B080468946D8F80040D8F80450D8F80B
:100B10000860D8F80C704022494601A8FFF726FD6E
:100B200005EA060027EA0501084301990844FE4941
:100B300008440444E00140EA54642C4404EA0500FB
:100B400026EA0401084302990844F8490844074486
:100B5000380340EA1757274407EA040025EA07014B
:100B6000084303990844F24908440644700440EAE3
:100B7000D6363E4406EA070024EA060108430499F3
:100B80000844EC4908440544A80540EA9525354445
:100B900005EA060027EA0501084305990844E649E5
:100BA00008440444E00140EA54642C4404EA05008B
:100BB00026EA0401084306990844E049084407442A
:100BC000380340EA1757274407EA040025EA0701DB
:100BD000084307990844DA4908440644700440EA87
:100BE000D6363E4406EA070024EA0601084308997F
:100BF0000844D44908440544A80540EA95253544ED
:100C000005EA060027EA0501084309990844CE4988
:100C100008440444E00140EA54642C4404EA05001A
:100C200026EA040108430A990844C84908440744CD
:100C3000380340EA1757274407EA040025EA07016A
:100C400008430B990844A0F524404F38064470042B
:100C500040EAD6363E4406EA070024EA0601084385
:100C60000C990844BA4908440544A80540EA95256A
:100C7000354405EA060027EA050108430D990844B2
:100C8000B44908440444E00140EA54642C4404EAB2
:100C9000050026EA040108430E990844AE490844B9
:100CA0000744380340EA1757274407EA040025EAB7
:100CB000070108430F990844A849084406447004F2
:100CC00040EAD6363E4406EA070024EA0601084315
:100CD00010990844A24908440544A80540EA95250E
:100CE000354405EA070026EA07010843029908444B
:100CF0009C4908440444600140EAD4642C4404EA5A
:100D0000060025EA06010843079908449649084465
:100D10000744780240EAD757274407EA050024EA47
:100D2000050108430C990844904908440644B0035F
:100D300040EA96463E4406EA040027EA04010843D6
:100D4000019908448A4908440544280540EA1535B4
:100D5000354405EA070026EA0701084306990844D6
:100D6000844908440444600140EAD4642C4404EA01
:100D7000060025EA060108430B9908447E49084409
:100D80000744780240EAD757274407EA050024EAD7
:100D90000501084310990844784908440644B00303
:100DA00040EA96463E4406EA040027EA0401084366
:100DB00005990844724908440544280540EA153558
:100DC000354405EA070026EA070108430A99084462
:100DD0006C4908440444600140EAD4642C4404EAA9
:100DE000060025EA060108430F99084466490844AD
:100DF0000744780240EAD757274407EA050024EA67
:100E00000501084304990844604908440644B003B6
:100E100040EA96463E4406EA040027EA04010843F5
:100E2000099908445A4908440544280540EA1535FB
:100E3000354405EA070026EA070108430E990844ED
:100E4000544908440444600140EAD4642C4404EA50
:100E5000060025EA06010843039908444E49084460
:100E60000744780240EAD757274407EA050024EAF6
:100E70000501084308990844484908440644B0035A
:100E800040EA96463E4406EA040027EA0401084385
:100E90000D990844424908440544280540EA15359F
:100EA000354485EA06007840069908443D490844DF
:100EB0000444200140EA14742C4484EA0500704084
:100EC00009990844384908440744F80240EA57574A
:100ED000274487EA040068400C99084433490844D1
:100EE0000644300440EA16463E4486EA0700604065
:100EF0000F9908442E4908440544E80540EA552561
:100F0000354485EA06007840029908442949084496
:100F10000444200140EA14742C4484EA0500704023
:100F200005990844244949E078A46AD756B7C7E828
:100F3000DB702024EECEBDC1AF0F7CF52AC68747FB
:100F4000134630A8019546FDD8988069AFF7448BC9
:100F5000BED75C892211906B937198FD8E4379A660
:100F60002108B44962251EF640B340C0515A5E269E
:100F7000AAC7B6E95D102FD65314440281E6A1D862
:100F8000C8FBD3E7E6CDE121D60737C3870DD5F4FB
:100F9000ED145A4505E9E3A9F8A3EFFCD9026F6700
:100FA0008A4C2A8D4239FAFF81F6718722619D6D44
:100FB0000C38E5FD44EABEA4A9CFDE4B0844074443
:100FC000F80240EA5757274487EA04006840089926
:100FD0000844A74908440644300440EA16463E4403
:100FE00086EA070060400B990844A249084405447A
:100FF000E80540EA5525354485EA060078400E9913
:1010000008449D4908440444200140EA14742C44D7
:1010100084EA05007040019908449849084407444F
:10102000F80240EA5757274487EA040068400499C9
:101030000844934908440644300440EA16463E44B6
:1010400086EA07006040079908448E490844054431
:10105000E80540EA5525354485EA060078400A99B6
:101060000844894908440444200140EA14742C448B
:1010700084EA050070400D990844844908440744F7
:10108000F80240EA5757274487EA0400684010995D
:1010900008447F4908440644300440EA16463E446A
:1010A00086EA07006040039908447A4908440544E9
:1010B000E80540EA5525354465EA07007040019986
:1010C0000844754908440444A00140EA94642C444F
:1010D00064EA0600684008990844704908440744D7
:1010E000B80240EA9757274467EA050060400F9925
:1010F00008446B4908440644F00340EA56463E441F
:1011000066EA0400784006990844664908440544A4
:10111000680540EAD525354465EA070070400D9919
:101120000844614908440444A00140EA94642C4402
:1011300064EA06006840049908445C49084407448E
:10114000B80240EA9757274467EA050060400B99C8
:101150000844574908440644F00340EA56463E44D2
:1011600066EA04007840029908445249084405445C
:10117000680540EAD525354465EA070070400999BD
:1011800008444D4908440444A00140EA94642C44B6
:1011900064EA060068401099084448490844074436
:1011A000B80240EA9757274467EA0500604007996C
:1011B0000844434908440644F00340EA56463E4486
:1011C00066EA040078400E9908443E490844054404
:1011D000680540EAD525354465EA07007040059961
:1011E0000844394908440444A00140EA94642C446A
:1011F00064EA060068400C990844344908440744EE
:10120000B80240EA9757274467EA0500604003990F
:1012100008442F4908440644F00340EA56463E4439
:1012200066EA040078400A9908442A4908440544BB
:10123000680540EAD5253544D8F800002044C8F8B0
:101240000000D8F804002844C8F80400D8F80800C2
:101250003044C8F80800D8F80C003844C8F80C002E
:10126000402101A8FFF709F811B0BDE8F0830000A4
:10127000604BBBF670BCBFBEC67E9B28FA27A1EAB6
:101280008530EFD4051D880439D0D4D9E599DBE643
:10129000F87CA21F6556ACC4442229F497FF2A4368
:1012A000A72394AB39A093FCC3595B6592CC0C8FF8
:1012B0007DF4EFFFD15D84854F7EA86FE0E62CFEC4
:1012C000144301A3A111084E827E53F735F23ABDB3
:1012D000BBD2D72A91D386EB2DE9F0470446884646
:1012E0001546208AC0F3C509206900EBC5002061BE
:1012F000B0EBC50F02D26069401C6061606900EB11
:1013000055716161C9F14007BD421BD304F1180159
:1013100001EB09003A464146FEF76AFF04F1180165
:101320002046FFF7EBFB3E4605E008EB06012046B2
:10133000FFF7E4FB403606F13F00A842F5D34FF03B
:10134000000900E00026AA1B08EB060104F11803BF
:1013500003EB0900FEF74CFFBDE8F08700BFFEE796
:10136000704708B500214FF0006000F057F82520C5
:101370008DF8000000208DF801008DF8020001209A
:101380008DF80300684600F00FF81C208DF800006F
:1013900000208DF801008DF8020001208DF8030077
:1013A000684600F001F808BD70B5002100230F2247
:1013B000C4780CB3164C246804F4E064C4F5E0640B
:1013C000210AC1F10403CA40447804FA03F1847885
:1013D0001440214309010F4C0678A155047804F00C
:1013E0001F050124AC4005786D114FF0E02606EB97
:1013F0008505C5F8004109E0047804F01F050124C3
:10140000AC40054D0678761145F8264070BD0000C9
:101410000CED00E000E400E080E100E0024A0A4058
:101420000243024B1A60704780FFFF1F08ED00E087
:101430002DE9F04107468846082408212A4800681B
:10144000FFF770F885B2214627480068FFF76AF871
:1014500086B2254800684089A8421FD00020234951
:1014600008600BE0002022490968204A126821F830
:1014700012001E480068401C1C4908601D49A1F16B
:101480000A02891A481000EBD071012202EB6101B7
:10149000164A12689142E5DCBDE8F081002013494C
:1014A000086010E0144800681049096850F82100ED
:1014B000124909680D4A126841F822000B48006879
:1014C000401C0A4908600B49A1F10A02891A481018
:1014D00000EBD071012202EB6101044A12689142D3
:1014E000E0DC00BFD8E700003C00002098000020AE
:1014F0002C000020F805002058000020500000209B
:10150000704770477047000001460020034A50684A
:1015100020F4404008435060704700000010024033
:1015200029B1064AD2690243044BDA6104E0034A56
:10153000D2698243014BDA6170470000001002401B
:1015400029B1064A92690243044B9A6104E0034AB6
:1015500092698243014B9A6170470000001002407B
:1015600010B500F02BF81020FFF788F80220FFF7E5
:10157000C9F8002000F0D8F8002000F0EFF84FF490
:10158000806000F0DFF84FF48040FFF7BDFF4FF4BC
:101590008011002000F0F4F8012000F0EBF800BF0B
:1015A000392000F09BF80028FAD0022000F0F6F86D
:1015B00000BF00F0B1F80828FBD110BD0F4800684B
:1015C00040F001000D490860084640680C49084099
:1015D0000A494860084600680A4908400749086007
:1015E0000846006820F4802008600846406820F41F
:1015F000FE0048604FF41F008860704700100240F2
:101600000000FFF8FFFFF6FE30B5002100220024A5
:1016100000232D4D6D6805F00C0121B1042905D082
:10162000082923D105E0294D056022E0274D0560FA
:101630001FE0254D6D6805F47012234D6D6805F4AB
:101640008034022505EB92421CB9214D55430560BB
:101650000BE01D4D6D6815F4003F03D01C4D554344
:10166000056002E0194D5543056002E0174D056025
:1016700000BF00BF144D6D6805F0F0010909154D5C
:101680006B5C0568DD4045600F4D6D6805F4E061F9
:10169000090A104D6B5C4568DD4085600A4D6D6838
:1016A00005F46051C90A0B4D6B5C4568DD40C560AF
:1016B000054D6D6805F44041890B074D6B5CC568AD
:1016C000B5FBF3F5056130BD0010024000127A0051
:1016D00000093D00DD000020ED00002010B50146AE
:1016E0000022002300204A11012A02D1094C23685C
:1016F00006E0022A02D1074C236A01E0054C636A26
:1017000001F01F02012494401C4201D0012000E09E
:10171000002010BD001002400248406800F00C009C
:10172000704700000010024001460020034A506844
:1017300020F0F000084350607047000000100240A5
:101740007047000001460020034A506820F4E06022
:10175000084350607047000000100240014600201E
:10176000034A506820F4605040EAC100506070475E
:101770000010024001490866704700000000424224
:1017800002460020044B586820F47C1042EA010312
:101790001843014B5860704700100240014600207A
:1017A000034A506820F0030008435060704700006F
:1017B000001002407047704770477047704770478D
:1017C0007047704770477047704770477047000018
:1017D0002DE9F05FD2480068052801D1002002E021
:1017E000CF480068401CCE490860CE48FEF7EEFDA9
:1017F0000446CB48006806282BD2DFE800F0032B14
:101800004C6A89A9C8480068C0EB0440C649096809
:1018100001EB2020C4490860096846F66052A2EB3B
:10182000214001F010FB0746C04AC14B01F086F988
:1018300005460022BF4B01F0D9F8824601F0D6FAE6
:10184000BD49A1F84600072301220321B548FEF750
:10185000F3FD8FE0A4F50040B8490968C1EB0040F2
:10186000B649096801EB2020B449086009680914E9
:101870005A2201FB02F0C11700EB5141C913C1F517
:101880000041AD4AA2F84410072301220421A548D3
:10189000FEF7D2FD6EE0AA480068C0EB0440A849FC
:1018A000096801EB2020A64908600846006800147A
:1018B00040F61651484343F2F93190FBF1F09E494E
:1018C000A1F842000723012205219648FEF7B4FD46
:1018D00050E09C480068C0EB04409749897C08416F
:1018E000984909680844974908609348007810F0BF
:1018F000040F03D008460068001400E020468E491B
:10190000C8870723012206218648FEF795FD31E0AE
:101910008D480068C0EB04408749897C08418A49AA
:1019200009680844884908608348007810F0040F6B
:1019300003D008460068001400E020467E49A1F864
:1019400040000723012200217648FEF775FD11E0D3
:1019500041F67950844206DA41F2B950844202DD00
:1019600003207A4908600723012210216D48FEF701
:1019700063FD00BF00BF01216A48FEF7BEFD744849
:10198000006848B372480068401E7149086034D14D
:1019900070480078012820D101036F48FFF767F8ED
:1019A000012240F227716D4800F032FC6B4800883C
:1019B00010F0800F21D06A4800686A49096888429F
:1019C0001BDA674801680068401C654A1060664879
:1019D000405C6249091D08800FE04FF480515E4869
:1019E000FFF743F84FF400515B48FFF73EF8012240
:1019F00040F22551594800F00BFC5C4800685C49F6
:101A0000884204DC59480068801C584908604F48E7
:101A10000068012813D15548006847F230518842C8
:101A20000DDD4548808F40F02000434988874748B6
:101A30000068012803D1C1034E48FFF718F84B484E
:101A4000006847F23051884208DD4B48007828B9D9
:101A50003948808F40F02000374988873B4800682C
:101A6000012803D1C1034348FFF701F83748006854
:101A700003284ED13D48006847F23051884202DACF
:101A800043F6D10919E02C4890F83C0010F003000F
:101A900006D0012807D0022808D003280CD108E07E
:101AA00043F6D10908E045F23A5905E047F2A21998
:101AB00002E048F60B6900BF00BF2C48006846F200
:101AC000A811884201DA45F23A592848006844F6DC
:101AD0002061884201DA47F2A2192448006843F6DF
:101AE0009821884201DA48F60B692048006842F2E2
:101AF0001071884201DA4AF674291C48006841F2E4
:101B00008831884201DA41F668494FF08041A1F8F6
:101B100038900121880700F03AF8BDE8F09F0000F6
:101B20005C000020002401407000002029BFE781F4
:101B30003E14214000406F40760500206C000020DC
:101B40006800002060000020640000207400002075
:101B50000800002010000020000C01400038014067
:101B6000040000200C000020F40000207800002079
:101B7000F049020000080140000000207047704753
:101B80007047704770477047704770477047CA4347
:101B90000282704721B1028842F00102028004E013
:101BA00002884FF6FE731A400280704770B5002419
:101BB00000220023058C4FF6FE7635400584028C0A
:101BC0008388048B4FF68F752C40B51E2C400D88F2
:101BD0002C43751E2A400D892A434D882A43144DF3
:101BE000A8420BD0134DA84208D0134DA84205D0EF
:101BF000124DA84202D0124DA84213D14FF6F775EC
:101C00002A404D892A434FF6FB752A408D882A4386
:101C10004FF6FF652B404FF6FF552B408D892B4328
:101C2000CD892B4383800483CD888586028470BD53
:101C3000002C0140003401400040014000440140BC
:101C4000004801400A460021018B4FF6F773194006
:101C5000114301837047000070B500240022002367
:101C6000058C4FF6EF7635400584028C8388048B13
:101C700048F6FF752C404FF6FF452C400D884FF677
:101C8000FF7606EA05252C434FF6DF752A400D89BD
:101C900006EA05152A434D8806EA05152A43154D1F
:101CA000A84202D0144DA8421DD14FF67F752A409C
:101CB0004D894FF6FF7606EA05152A434FF6BF75A4
:101CC0002A408D8806EA05152A434FF6FF352B403A
:101CD0004FF2FF752B408D8906EA85052B43CD8990
:101CE00006EA85052B4383800483CD88058702841B
:101CF00070BD0000002C0140003401400A46002164
:101D0000018B4FF2FF7319404FF6FF7303EA022372
:101D10001943018370470000002202881D4B98423E
:101D20000ED01D4B98420BD0B0F1804F08D01B4B0A
:101D3000984205D01A4B984202D01A4B984204D1CF
:101D40004FF68F731A404B881A43174B984207D0AF
:101D5000164B984204D04FF6FF431A40CB881A43E3
:101D600002808B8883850B8803850A4B98420BD0B1
:101D7000094B984208D00E4B984205D00D4B984223
:101D800002D00D4B984201D10B7A03860123838246
:101D900070470000002C0140003401400004004066
:101DA00000080040000C00400010004000140040FB
:101DB0000040014000440140004801407047704726
:101DC0002DE9F047FD48008800F0FF0818F0800F6B
:101DD00001D04FF0020918F0080F02D0F748001D9B
:101DE000048818F0200F01D04FF00409F3480C309C
:101DF000008800F0FF08B9F1020F06D0B9F1040F16
:101E000031D0B9F10C0F73D12CE0EC48008810F000
:101E1000800F10D0EA480068EA49096888420ADA67
:101E2000E74801680068401CE54A1060E648405CED
:101E3000E249091D0880E2480068E24909688842D1
:101E40000FD11420E14908600020E1490870DC4905
:101E50000860DC490860002240F22771D74800F092
:101E6000D7F9C4E100BFD548001D0088D9490870E2
:101E7000D348006810B101283FD110E0D548007860
:101E8000012802D0D348007820B9D2480078CE4942
:101E9000087003E04FF0FF30C949086086E1CD4883
:101EA0000078C949487008464078042821D008467F
:101EB000407803281DD0084640780F2819D00846DE
:101EC0004078102815D008464078062811D00846DA
:101ED000407801280DD008464078022809D00846ED
:101EE0004078052805D04FF0FF30B549086003E081
:101EF0007CE10820B349086058E1B6480078B2494F
:101F0000AF4A12688854AE48006806280CD10846CB
:101F10004078102803D0084640780F2804D1AA48FA
:101F200080790930A7490860A6480068801EA44946
:101F3000096888427EDA4FF0FF30A1490860A14865
:101F40000168A148FEF7EEFA18B100209D4908602B
:101F50002CE14FF40051A048FEF789FD002240F229
:101F60002551964800F054F99748C07896498978E9
:101F700000EB0125944840799349097900EB01264B
:101F80009148407805280AD004DC03283FD0042873
:101F900079D179E006281CD01028F9D1A6E041F6C5
:101FA0006160854202D88948006840B18520864931
:101FB00048700220887003208249086008E00620EB
:101FC00080490860804840797F49097900EB012405
:101FD000CAE042F2D060854202D87C48006840B135
:101FE000862079494870022088700320754908606E
:101FF0000CE00620734908607348407972490979FA
:1020000000EB01207549096821F81500ACE0A8191A
:1020100042F21071884204D8A81902D06B480068B7
:1020200048B18320684948700220887003206549C0
:10203000086027E0B9E07006000E63498870084622
:102040008078C01C5F490860002419E0281902D17B
:1020500001206349086028196049096831F81000B7
:102060000012032101EB4401574A505428195B49DF
:10207000096811F81000042101EB44015054641C5C
:10208000B442E3D970E064E0A819402804D8A81944
:1020900002D04E48006840B184204B49487002206D
:1020A00088700320474908601FE07006000E46490B
:1020B000887008468078C01C42490860002412E0FD
:1020C0002819484931F810000012032101EB44019E
:1020D0003D4A50542819434911F81000042101EBDE
:1020E00044015054641CB442EAD93DE0A81942F2BC
:1020F0001071884204D8A81902D03448006840B151
:102100009020314948700220887003202D490860D2
:102110001EE02D4840792C49097900EB0126002466
:1021200011E0082000EB44002749085C072101EB7F
:102130004401254A515C00EB01206119274A1268CD
:1021400022F81100641CB442EBD306201D4908603C
:102150000AE01D48407880301B4948700120887093
:1021600003201849086000BF00BF164801681648E0
:10217000FEF7D8F90746134802680068401C114B67
:10218000186011488754C7F3072118460268006891
:10219000401C18600C48815414200C490860012030
:1021A0000B49087000201049086000BF00BF0448B8
:1021B0000068401C0249086019E000000038014036
:1021C000040000200C000020F40000200800002083
:1021D000100000209C000020000C01402C0000207A
:1021E00020000020F40400201C00002000BF00BFDD
:1021F000BDE8F0877047704721B1828942F40052F0
:10220000828104E082894DF6FF731A408281704713
:10221000F0B503460024002600250020A1F5106734
:102220006A3F00D100BF1846C1F3421401F01F06F7
:10223000012707FA06F5012C01D10C3004E0022C2D
:1022400001D1103000E014301AB107682F43076045
:1022500002E00768AF430760F0BD00002DE9F047DA
:1022600086B005460E460024A24600BFA1460027C0
:10227000B08900B100BF2F462C8A4CF6FF70044095
:10228000F08804432C82AC894EF6F3100440B088E9
:1022900031890843718908430443AC81AC8A4FF605
:1022A000FF400440B0890443AC8201A8FFF7ACF9B9
:1022B0001F48874202D1DDF810A001E0DDF80CA034
:1022C000A88910F4004F08D00AEBCA0000EB0A10EE
:1022D00031684900B0FBF1F807E00AEBCA0000EBF7
:1022E0000A1031688900B0FBF1F86420B8FBF0F007
:1022F00004012009642101FB1089A88910F4004F12
:1023000008D0322000EBC900B0FBF1F000F007006C
:10231000044308E0322000EB09106421B0FBF1F027
:1023200000F00F0004432C8106B0BDE8F0870000E8
:102330000038014070477047704700BFFEE77047A4
:102340009AB000244FF000656846FEF7C5FBFE4AD0
:1023500029466846FEF7C0FF694616A8FEF790FBBF
:102360000CE0012000EB440016A9085C11F81410E1
:1023700040EA0121F54820F81410641C082CF0DB19
:102380004FF40070F1495439A1F86400FFF7E8F800
:1023900001214FF4C820FFF7D3F801210320FFF7F4
:1023A000BFF8012140F21D20FFF7CAF8E848406855
:1023B000E8490843E64948604FF4C050E6490880C0
:1023C0001020C87002208870E448FEF7C5FA782013
:1023D000E14908800020C87002208870DF48FEF7BD
:1023E000BBFA4FF40070DC49088003208870182085
:1023F000C870DA48FEF7B0FA4FF48060D64908801A
:10240000032088704820C870D448FEF7A5FA4FF41E
:102410001E70D14908801820C87003208870D048E9
:10242000FEF79AFA4FF47040CB4908801020C8702C
:1024300003208870CA48FEF78FFA4FF40050C6494F
:1024400008801420C87002208870C648FEF784FAFD
:102450004FF40040C04908801020C87002208870E6
:10246000C048FEF779FA0020BF490860087148713A
:102470004FF4602088604FF40060C8600120087449
:10248000BA48006840F40000B8490860B649B74847
:102490000838FDF7A9FF0121B4480838FDF781FF8E
:1024A000B2480838FEF724F800BFB0480838FDF7F6
:1024B00091FF0028F9D1AD480838FEF729F84BF60E
:1024C0008030AB49888000200880C880488008722E
:1024D0004FF08040FFF720FC6020A64908800120D3
:1024E000488042F6E060C880002008814FF08040BC
:1024F000FFF7B2FB0821C806FFF700FC01208107A7
:10250000888101218007FFF745FB45F6C0509849B7
:102510008880032008800020C88048809648FFF704
:10252000FBFB602093490880012048800020C88080
:1025300008819148FFF73AFB08218F48FFF782FB9B
:102540004FF400408C494431088001218A48FFF74C
:1025500021FB4FF480708649888000200880C88065
:1025600048808648FFF7D8FB602082490880012018
:1025700048808020C880002008818048FFF716FB33
:1025800008217E48FFF75EFB4FF400407B49443151
:1025900008800D2079492031088001217748FFF714
:1025A000F9FA4FF480707249888000200880C88052
:1025B00048807348FFF7B0FB60206E490880012017
:1025C00048808020C880002008816D48FFF744FBC8
:1025D00008216B48FFF792FB6020664908800120C4
:1025E00048800A20C880002008816548FFF7DEFA8D
:1025F00008216348FFF726FB01216148FFF7CAFA6B
:102600004FF480515648FEF730FA4FF400515448C9
:10261000FEF72BFA4D485438808F20F020004B49AC
:102620005439888757480068012803D1C1034B48B3
:10263000FEF71BFA544945485438FEF7F9FE4FF4AB
:10264000E1305249086000208880C8800881888174
:102650000C2048814E48FFF701FE012240F227710D
:102660004B48FFF7D5FD012240F225514848FFF7BE
:10267000CFFD01214648FFF7BFFD00BF3B480838AA
:10268000FDF79AFE0028F9D140F6B8302F495439A9
:1026900048804FF47A6088804FF40040C880888179
:1026A000FEF75CF8002029495439888739480068CA
:1026B0000088A1F84800374800680068000CA1F8BD
:1026C0004A00354800680088A1F84C00FEF749FE32
:1026D0002D491E485438FEF713FF0A212A48FDF7FA
:1026E00021FF72E130BF2D480078012865D11748DD
:1026F0005438B0F8400040F6B8314843011413484C
:102700005438008AB1EB400F53DD10485438C08F65
:1027100040F6B831484301140C485438C089B1EB35
:10272000400F46DD09485438B0F8400040F6B83153
:1027300048430114054854384089B1EB400F38DD57
:1027400002485438C08F2BE0FFFF0100CA0500206B
:102750000000014000090002940000200008014030
:10276000000C0140001001400C060020082401402C
:10277000200600202A0600200048014000440140B5
:102780000004004074000020EE050020FC0500203D
:102790000038014024000020280000200000002014
:1027A00040F6B8314843011488480089B1EB400F26
:1027B00002DC002086490870E6E08448C088A0F565
:1027C0000040C0015A2190FBF1F0C0F18000814926
:1027D00008807E488089A0F50040C001C82190FB98
:1027E000F1F080307C4908807848B0F8400040F62D
:1027F000B831484300140A2190FBF1F17348B0F856
:10280000400040F6B832504301EB20406F49098A3E
:10281000884210DD4FF480517048FEF728F94FF4DC
:1028200000616E48FEF721F96848808F40F0020091
:10283000664988870AE04FF480516848FEF715F929
:102840006248808F20F00200604988875F48C08F0F
:1028500040F6B831484300140A2190FBF1F15B487F
:10286000C08F40F6B832504301EB20405749C98928
:10287000884210DD4FF400615848FEF7F8F84FF435
:1028800080515648FEF7F1F85048808F40F0010023
:102890004E4988870AE04FF400615048FEF7E5F89A
:1028A0004A48808F20F00100484988874748B0F89F
:1028B000400040F6B831484300140A2190FBF1F182
:1028C0004248B0F8400040F6B832504301EB204097
:1028D0003E494989884206DD3C48808F40F0080027
:1028E0003A49888705E03948808F20F00800374949
:1028F00088873648C08F40F6B831484300140A2113
:1029000090FBF1F13148C08F40F6B832504301EBF3
:1029100020402E490989884206DD2C48808F40F0EE
:1029200004002A49888705E02848808F20F00400A9
:102930002649888725484088000240F6165190FBBA
:10294000F1F0401C2349091D088020488088B0F51B
:10295000FA7F19DB1D488088B0F5FA5F14DC1B494B
:10296000898849001E4A92FBF1F0C11700EB917172
:10297000C1F38F011B4A11801146088800EBD0710A
:102980004910184A083211801048007810F0020FE0
:1029900005D04FF480411448FEF767F804E04FF487
:1029A00080411148FEF763F80848007810F0010FE5
:1029B0000BD072B671B60548008820F001000349BB
:1029C0000880FDF71FFF62B661B68BE67605002032
:1029D000000000203404004034440140000801405D
:1029E000001C4E0E2C480140000C014010B591EA2D
:1029F000030F48BF83F0004300F19882841A71EB03
:102A0000030C05D2121943EB0C03001B61EB0C0104
:102A1000DFF824E14FEA1154A4EB135C1EEA430FE4
:102A200018BF9EEA445F73D023EA0E03DCF1200E48
:102A300021EA045143F4801332D322FA0CFE10EB46
:102A40000E0023FA0CFE41EB0E01CCF1200E03FA2E
:102A50000EFE10EB0E0051F10001B1F5801FCCF11C
:102A6000200E32D201EB045112FA0EF2BDE81040F2
:102A700058BF7047401C38BF5FEA420218BF70471A
:102A8000002814BF20F0010041F100014FEA41038A
:102A900013F5001F38BF7047A1F1C04100F038BAEC
:102AA000012A43EB0302ACF1200CDCF11F0E32BF14
:102AB0004FF0000E23FA0CF310EB030041EB04512E
:102AC000B4EB115FD0D0A1EB045101F5801149089E
:102AD0005FEA300001EB04510ED350F1000038BF23
:102AE00012FA0EFE08D1BDE81040C9E7401C38BFFD
:102AF0005FEA4202CAD1C3E7BDE810404FEA410392
:102B000013F5001F38BF7047A1F1C04100F000BAB3
:102B10009EEA445F08D011EA5E0FBDE8104004BF92
:102B200001F0004100207047BDE8104070B500F092
:102B3000A1F900BF64FBBE3E0000E0FF2DE9C041EB
:102B400030B4DFF8A0C23CEA111418BF3CEA1314F9
:102B500000F0EC8081EA03051CEA111444EAD57404
:102B600018BF1CEA131500F0C780A4EB05044FF052
:102B7000004545EAC12145EAC32341EA505143EAF1
:102B8000525304F17F74994204F500344FEAC02097
:102B90004FEAC22208BF904200F09C804FEA1365C2
:102BA0000FF24016765D4FEA134506FB05F7C7F1B5
:102BB000807706FB07F74FEAD737A7FB0368764213
:102BC000C8F58038A7FB06CE38BFA8F1010807FB7F
:102BD00008E64FF0000EA6FB028CE6FB03CEDCF10C
:102BE000000CCEF1004E38BFAEF1010EA6FB0C5822
:102BF0004FF000074FF00005E6FB0E87A1FB08C66B
:102C0000A0FB07CE16EB0E0645F10005E1FB0765BC
:102C100015F1E04E7EBFA4F580345FEA46066D41B3
:102C200016F1800745F100054FEA17274FEA0666BF
:102C300047EA0567A6F1DE46B6F1805F4FEA152543
:102C40001FD9384624F0010C05EBC471BCF1FE6FAE
:102C500001EB0C1102D8F0BCBDE8008124425CBF3E
:102C600001F5801E9EEAC47F02D4F0BCBDE800815D
:102C7000244238D4F0BCA1F1C041BDE8004100F0CD
:102C800047B94FEAD22242EA43524FEAD323A7FB85
:102C900002864FEAD02040EA415007FB03661EEA55
:102CA0000E0F4FEAD12105FB026658BFA6EB005676
:102CB000B6EB00564FEA520E4EEAC37E18EB0E0EEC
:102CC00056EB530EBDD518EB02085E417F1C55F143
:102CD0000005B6E74FF480154FF000074FF00006EF
:102CE0004FF00008ADE7F0BC4FF0000001F1C0412B
:102CF00001F00041BDE8008111EA0C1F0CEA131538
:102D000000D00CE013EA0C1F00F025804FF000000B
:102D1000F0BC81EA030101F00041BDE80081F0BC94
:102D2000BDE8004181EA030100F0F2B8F0BCBDE863
:102D3000004170B500F09EF8097EFC3E00F007B837
:102D400081EA03014FF0000001F00041704781EA81
:102D5000030100F0DDB8F0BCBDE800414FF0000019
:102D600021497047FFFDFBF9F7F5F4F2F0EEEDEBCA
:102D7000E9E8E6E4E3E1E0DEDDDBDAD8D7D5D4D379
:102D8000D1D0CFCDCCCBCAC8C7C6C5C4C2C1C0BFC5
:102D9000BEBDBCBBBAB9B8B7B6B5B4B3B2B1B0AFCB
:102DA000AEADACABAAA9A8A8A7A6A5A4A3A3A2A1AF
:102DB000A09F9F9E9D9C9C9B9A999998979796956A
:102DC00095949393929191908F8F8E8E8D8C8C8B06
:102DD0008B8A89898888878786858584848383828E
:102DE000828181800000FF070000F87F4FEA1153C5
:102DF000A3F58063D3F11E03A8BFD3F1200C08DB39
:102E00004FF0004242EAC12252EA505232FA03F035
:102E1000704709420BD4102BC4BF0020704703F544
:102E2000787CBCF1FF3F05D04FF0FF3070474FF08A
:102E30000000704770B500F01DF800BF4992248073
:102E400000207047F0E710F0004248BF4042B0FA5F
:102E500080F310FA03F10AD0C3F11D0303F5806378
:102E60004FEA415002EB035202EBD12170474FF081
:102E7000000070470EF1020E2EF0030E5EF8046B98
:102E8000364205D4012A43EB030515F5001F12D87D
:102E9000012841EB010C1CF5001F0CD80ED14FEAA4
:102EA000D17C15F5001F0CEB4C0C0CF1020C08BF8B
:102EB0004CEBD37C04E04FF0080C01E04FEAD37CEC
:102EC0000CEB4C0526FA05F606F00706B6F1040CE5
:102ED00006D20EEB860CBDE870404CF0010C60474A
:102EE000DFE80CF0090B02024FF000414FF0000048
:102EF000A1F5002170BD19461046012851EB0104CF
:102F000018BFD4F5001484BF002001F0004170BD4B
:102F10000808A0F500114FEA3101704710B591EA99
:102F2000030F48BF83F000433FF568AD841A71EB8F
:102F3000030C07D212198CF0004C43EB0C03001B5E
:102F400061EB0C01DFF8A4E14FEA1154A4EB135C30
:102F50001EEA430F18BF9EEA445F00F0B08023EAE8
:102F60006E03524221EA0451C3EB6E0338BF5B1E6D
:102F7000DCF1200E25D322FA0CFE10EB0E0043FAF2
:102F80000CFE41EB0E01CCF1200E03FA0EFE10EB0D
:102F90000E0051F10001CCF1200E29D412FA0EF2EC
:102FA00001EB0451BDE8104058BF7047401C1CBFE6
:102FB000B2F1004F704700280CBF491C20F00100FF
:102FC000704712EB020E43EB030218BF4FF0010EE5
:102FD0004EEA4202ACF1200CDCF11E0E54D943FA49
:102FE0000CFE10EB0E0051F1FF31CCF11E0ED5D5C9
:102FF0000EF1010E12FA0EFE404141EB010101EB10
:10300000445C5FEA5C5C10D910EBDE7001EB0451AC
:1030100038BFBEF1004FBDE8104018BF7047002810
:103020000CBF491C20F00100704730D24FEAD42C6D
:1030300011F5001124F400641BD0B1FA81F20B3AAF
:10304000A41AA41ED2F12003914030FA03F31943CD
:10305000904001EBCC71002C01EB0451BDE8104015
:10306000A8BF704701F1C0414FF0000001F00041DE
:103070007047B0FA80F310FA03F100D110BDE41AE2
:10308000173C4805C90AE4E701EB045110BD49109B
:1030900001EB0451BDE810404FEA300002E04FF070
:1030A000000170474A0008BF0042F8D0B2F5001F87
:1030B00028BF704701F000414FF0000070479EEAC2
:1030C000445F07D011EA5E0FBDE8104004BF002145
:1030D00000207047BDE8104070B5FFF7CBFE00BF81
:1030E00040DFF63E83F00041104670470000E0FFED
:1030F0000000C1C081C1400101C3C003800241C2C0
:1031000001C6C006800741C70005C1C581C440048F
:1031100001CCC00C800D41CD000FC1CF81CE400E3F
:10312000000AC1CA81CB400B01C9C009800841C84F
:1031300001D8C018801941D9001BC1DB81DA401ABF
:10314000001EC1DE81DF401F01DDC01D801C41DC8F
:103150000014C1D481D5401501D7C017801641D6BF
:1031600001D2C012801341D30011C1D181D04010CF
:1031700001F0C030803141F10033C1F381F24032BF
:103180000036C1F681F7403701F5C035803441F48F
:10319000003CC1FC81FD403D01FFC03F803E41FE3F
:1031A00001FAC03A803B41FB0039C1F981F840384F
:1031B0000028C1E881E9402901EBC02B802A41EABF
:1031C00001EEC02E802F41EF002DC1ED81EC402C8F
:1031D00001E4C024802541E50027C1E781E64026BF
:1031E0000022C1E281E3402301E1C021802041E0CF
:1031F00001A0C060806141A10063C1A381A24062BF
:103200000066C1A681A7406701A5C065806441A48E
:10321000006CC1AC81AD406D01AFC06F806E41AE3E
:1032200001AAC06A806B41AB0069C1A981A840684E
:103230000078C1B881B9407901BBC07B807A41BABE
:1032400001BEC07E807F41BF007DC1BD81BC407C8E
:1032500001B4C074807541B50077C1B781B64076BE
:103260000072C1B281B3407301B1C071807041B0CE
:103270000050C190819140510193C05380524192BE
:103280000196C056805741970055C195819440548E
:10329000019CC05C805D419D005FC19F819E405E3E
:1032A000005AC19A819B405B0199C059805841984E
:1032B0000188C04880494189004BC18B818A404ABE
:1032C000004EC18E818F404F018DC04D804C418C8E
:1032D0000044C184818540450187C04780464186BE
:1032E0000182C042804341830041C18181804040CE
:1032F0001033000800000020F40000006C010008FA
:1033000004340008F4000020AC0D0000880100081F
:1033100001000000000000000000000000000000AC
:10332000000100000000000001000000000000009B
:1033300000000000E8F7FF1FECF7FF1F76050020F4
:10334000007C000800800008007C00080080000865
:1033500000000000000000000000000076050020D2
:10336000EE050020007C000800800008000000003E
:10337000000000000000000000000000000000004D
:103380000000000000000000000000000080770145
:10339000FA007D00000000000000000000000000B6
:1033A000000000000000000000000000008000009D
:1033B000000000000000000000000000000000000D
:1033C00000000000000000000000000000000000FD
:1033D00000000000000000000000000000000000ED
:1033E00000000000000000000000000000000000DD
:1033F000000102030401020304060708090204068F
:0434000008000000C0
:0400000508000131BD
:00000001FF
