:020000040800F2
:10000000680E0020D101000851120008650900089F
:100010004D120008C9040008771F00080000000006
:10002000000000000000000000000000551500085E
:1000300017050008000000002313000857150008EA
:100040007B1F000821130008591500084B150008F4
:100050000D060008E91400084B0500084F050008CC
:100060005105000853050008550500080105000862
:100070000305000805050008070500080905000834
:100080000B0500080D050008AB030008731F0008EE
:10009000751F0008CD040008CF04000857050008AC
:1000A0005B150008611500085F1500085D15000864
:1000B000651500080D1900080F1900086B090008E4
:1000C000690900086F0900086D0900084F1500084C
:1000D00051150008751A0008A11E0008A31E00088B
:1000E0004D05000849150008711F00081719000880
:1000F0001D1900081B19000819190008AD03000894
:10010000C50600084D150008111900085315000810
:10011000711A0008731A000813190008151900084D
:100120000F05000811050008130500081505000853
:1001300000F002F800F03CF80AA090E8000C8244BD
:100140008344AAF10107DA4501D100F031F8AFF29A
:10015000090EBAE80F0013F0010F18BFFB1A43F0A5
:1001600001031847C02D0000E02D0000103A24BF05
:1001700078C878C1FAD8520724BF30C830C144BF0C
:1001800004680C607047000000230024002500264E
:10019000103A28BF78C1FBD8520728BF30C148BFEA
:1001A0000B6070471FB502F0ABFD1FBD10B510BD51
:1001B00000F0C1F81146FFF7F5FF01F0DFFE00F097
:1001C000DFF803B4FFF7F2FF03BC00F0E7F800002C
:1001D0000348004703480449044A054B70470000A0
:1001E0003101000868060020680E0020680A00201F
:1001F000680A0020032A40F2308010F0030C00F05F
:10020000158011F8013BBCF1020F624498BF11F850
:1002100001CB00F8013B38BF11F8013BA2F1040209
:1002200098BF00F801CB38BF00F8013B11F0030381
:1002300000F04F80083AC0F0088051F8043B083ABB
:1002400051F804CBA0E80810F5E7121D5CBF51F887
:10025000043B40F8043BAFF30080D20724BF11F801
:10026000013B11F801CB48BF11F8012B24BF00F866
:10027000013B00F801CB48BF00F8012B70474FF05D
:10028000000200B5134694469646203922BFA0E8E6
:100290000C50A0E80C50B1F12001BFF4F7AF0907F2
:1002A00028BFA0E80C5048BF0CC05DF804EB8900E3
:1002B00028BF40F8042B08BF704748BF20F8022B26
:1002C00011F0804F18BF00F8012B7047704770473E
:1002D000704710B5203AC0F00B80B1E81850203AB2
:1002E000A0E81850B1E81850A0E81850BFF4F5AFD6
:1002F0005FEA027C24BFB1E81850A0E8185044BF60
:1003000018C918C0BDE810405FEA827C24BF51F8CC
:10031000043B40F8043B08BF7047D20728BF31F8C0
:10032000023B48BF11F8012B28BF20F8023B48BF11
:1003300000F8012B7047754600F028F8AE4605001E
:100340006946534620F00700854618B020B5FFF7F0
:1003500041FFBDE820404FF000064FF000074FF08E
:1003600000084FF0000B21F00701AC46ACE8C009D3
:10037000ACE8C009ACE8C009ACE8C0098D467047DC
:100380000446AFF300802046FFF71BFF004870478C
:1003900008060020004870470C060020014918207C
:1003A000ABBEFEE726000200704770477047002989
:1003B000816802D041F0010101E021F0010181607A
:1003C0007047014689680020490700D50120704721
:1003D000C06C80B27047014689680020090700D5CB
:1003E0000120704730B542680E4B0C791A400B68FB
:1003F00042EA04221343436082680B4B4D791A4052
:10040000D1E9024342EA4502234313438360C26AAF
:10041000097C22F47002491EC9B242EA0151C1624C
:1004200030BD0000FFFEF0FFFDF7F1FF70B50726BD
:1004300009290AD9C568A1F10A0404EB4404A640BD
:10044000B543A3401D43C56007E0056901EB4104C6
:10045000A640B543A3401D4305611F23072A09D2C7
:10046000446B521E02EB820293409C4391400C432A
:10047000446370BD0D2A09D2046BD21F02EB8202C5
:1004800093409C4391400C43046370BDC46A0D3A91
:1004900002EB820293409C4391400C43C46270BDC6
:1004A000816841F00801816070470029816802D0AD
:1004B00041F4A00101E021F4A0018160704781684E
:1004C00041F004018160704700BFFEE7704770474C
:1004D00030B502460B464FF6FF7008E012F8014BAC
:1004E0004440E1B20012054C34F8114060401C0059
:1004F000A3F10105ABB2F1D130BD00000E2D000813
:100500007047704770477047704770477047704733
:10051000704770477047704770B50346002400204D
:1005200010E00E5C451C4D5D46EA0526851C4D5DC0
:1005300046EA0546C51C4D5D46EA056543F824506C
:10054000641C001D9042ECD370BD7047704770472B
:10055000704770477047704770B5034614460022D5
:10056000002015E051F822501D5451F82250C5F3D7
:100570000726451C5E5551F82250C5F30746851CD9
:100580005E5551F822502D0EC61C9D55521C001D63
:10059000A042E7D370BD00000149C8607047000069
:1005A0000020024070B5054640F6FF76304600F068
:1005B00075F8042813D10A4C206940F0020020612C
:1005C0006561206940F040002061304600F066F827
:1005D000012804D0216941F6FD721140216170BDEE
:1005E0000020024008490420CA68D20701D0012037
:1005F0007047CA68520701D502207047C968C9060A
:10060000FBD5032070470000002002407047000027
:1006100004490A6822F010020A600A6802430A606C
:100620007047000000200240F0B505460E460F203E
:1006300000F034F8042816D10B4C206940F001007A
:1006400020612E800F2000F029F841F6FE77042863
:1006500004D1300C68800F2000F020F8012802D06F
:10066000216939402161F0BD0020024004490A6837
:1006700002F038020A600A6802430A60704700000C
:10068000002002400348024941600349416070472D
:100690002301674500200240AB89EFCD00B503463A
:1006A000FFF7A0FF05E0FF20401EFDD1FFF79AFFF6
:1006B0005B1E012802D1002BF5D101E0002B00D1F7
:1006C000052000BD7047000070B52248A0F114025B
:1006D000801A451005EBD5704010401C0422C2EB77
:1006E00080011D480068FFF7F3FE1B490968898AED
:1006F000884215D0002405E000201849096821F837
:100700001400641C1349A1F11402891A481000EB6B
:10071000D071012202EB6101A142EDDC002070BD2D
:10072000002408E00E48006850F824000D490968CC
:1007300041F82400641C0749A1F11402891A4810E9
:1007400000EBD071012202EB6101A142EADC012041
:10075000E5E7000062050020340000202C000020A6
:10076000480000204400002070B504204A49087069
:1007700001204A4908704A480068006810F0080FD4
:1007800006D0474800680068C0B2FF2800D070BD9E
:10079000002500240BE04348006850F8240040493D
:1007A000096851F82410884200D00125641C3E4994
:1007B000A1F11402891A481000EBD071012202EB5A
:1007C0006101A142E7DC05B9E1E7FFF75BFF01202A
:1007D000364908603520FFF7DFFE00203449086005
:1007E0000EE033490968334A531403FB0120FFF735
:1007F000D9FE294908702E480068401C2C49086021
:100800002B48006829490968884203D222480078A9
:100810000428E6D02748284908602349A1F114029A
:10082000891A481000EBD07149104C1C1E48801AE0
:10083000461006EBD6704010401C0422C2EB80012B
:1008400019481438FFF744FE1749143988820024E8
:1008500013E01448006850F824001149096851F861
:100860002410884208D00F4A126852F82410114A06
:1008700002EB8400FFF7D8FE641C0B49A1F11402BF
:10088000891A481000EBD071012202EB6101A142EC
:10089000DFDC00BF7BE7000080000020810000203B
:1008A0004800002044000020620500204000002095
:1008B00038000020003C00083C000020F0B5CB7858
:1008C0000022DC0603F00F0301D58C7823430C884B
:1008D0000F2714F0FF0F4FF0010C1CD0D0F8005080
:1008E0000E880CFA02F42640A64210D1960007FAB0
:1008F00006FE25EA0E0E03FA06F5CE7845EA0E0549
:10090000282E00D14461CE78482E00D10461521CBB
:10091000082AE5D305600A88FF2A1ED94568002207
:1009200002F108060CFA06F40E882640A64210D101
:10093000960007FA06FE25EA0E0E03FA06F5CE78B3
:1009400045EA0E05282E00D14461CE78482E00D10C
:100950000461521C082AE3D34560F0BD4161704731
:100960000161704700BFFEE77047704770477047EE
:100970002DE9FC4106460C46082204F110016846A8
:10098000FFF7EAFD2069C0F3C505382D02D2C5F195
:10099000380001E0C5F1780007463A46094920468B
:1009A00000F012FC08226946204600F00DFC1022DF
:1009B00021463046FFF7D0FD58212046FFF75FFC67
:1009C000BDE8FC818C0000200022426102610549E3
:1009D0000160054941600349C94381600249C94337
:1009E000C16070470123456789ABCDEF2DE9F04326
:1009F00091B080468946D8F80040D8F80450D8F81D
:100A00000860D8F80C704022494601A8FFF784FD21
:100A100005EA060027EA0501084301990844FE4952
:100A200008440444E00140EA54642C4404EA05000C
:100A300026EA0401084302990844F8490844074497
:100A4000380340EA1757274407EA040025EA07015C
:100A5000084303990844F24908440644700440EAF4
:100A6000D6363E4406EA070024EA06010843049904
:100A70000844EC4908440544A80540EA9525354456
:100A800005EA060027EA0501084305990844E649F6
:100A900008440444E00140EA54642C4404EA05009C
:100AA00026EA0401084306990844E049084407443B
:100AB000380340EA1757274407EA040025EA0701EC
:100AC000084307990844DA4908440644700440EA98
:100AD000D6363E4406EA070024EA06010843089990
:100AE0000844D44908440544A80540EA95253544FE
:100AF00005EA060027EA0501084309990844CE499A
:100B000008440444E00140EA54642C4404EA05002B
:100B100026EA040108430A990844C84908440744DE
:100B2000380340EA1757274407EA040025EA07017B
:100B300008430B990844A0F524404F38064470043C
:100B400040EAD6363E4406EA070024EA0601084396
:100B50000C990844BA4908440544A80540EA95257B
:100B6000354405EA060027EA050108430D990844C3
:100B7000B44908440444E00140EA54642C4404EAC3
:100B8000050026EA040108430E990844AE490844CA
:100B90000744380340EA1757274407EA040025EAC8
:100BA000070108430F990844A84908440644700403
:100BB00040EAD6363E4406EA070024EA0601084326
:100BC00010990844A24908440544A80540EA95251F
:100BD000354405EA070026EA07010843029908445C
:100BE0009C4908440444600140EAD4642C4404EA6B
:100BF000060025EA06010843079908449649084477
:100C00000744780240EAD757274407EA050024EA58
:100C1000050108430C990844904908440644B00370
:100C200040EA96463E4406EA040027EA04010843E7
:100C3000019908448A4908440544280540EA1535C5
:100C4000354405EA070026EA0701084306990844E7
:100C5000844908440444600140EAD4642C4404EA12
:100C6000060025EA060108430B9908447E4908441A
:100C70000744780240EAD757274407EA050024EAE8
:100C80000501084310990844784908440644B00314
:100C900040EA96463E4406EA040027EA0401084377
:100CA00005990844724908440544280540EA153569
:100CB000354405EA070026EA070108430A99084473
:100CC0006C4908440444600140EAD4642C4404EABA
:100CD000060025EA060108430F99084466490844BE
:100CE0000744780240EAD757274407EA050024EA78
:100CF0000501084304990844604908440644B003C8
:100D000040EA96463E4406EA040027EA0401084306
:100D1000099908445A4908440544280540EA15350C
:100D2000354405EA070026EA070108430E990844FE
:100D3000544908440444600140EAD4642C4404EA61
:100D4000060025EA06010843039908444E49084471
:100D50000744780240EAD757274407EA050024EA07
:100D60000501084308990844484908440644B0036B
:100D700040EA96463E4406EA040027EA0401084396
:100D80000D990844424908440544280540EA1535B0
:100D9000354485EA06007840069908443D490844F0
:100DA0000444200140EA14742C4484EA0500704095
:100DB00009990844384908440744F80240EA57575B
:100DC000274487EA040068400C99084433490844E2
:100DD0000644300440EA16463E4486EA0700604076
:100DE0000F9908442E4908440544E80540EA552572
:100DF000354485EA060078400299084429490844A8
:100E00000444200140EA14742C4484EA0500704034
:100E100005990844244949E078A46AD756B7C7E839
:100E2000DB702024EECEBDC1AF0F7CF52AC687470C
:100E3000134630A8019546FDD8988069AFF7448BDA
:100E4000BED75C892211906B937198FD8E4379A671
:100E50002108B44962251EF640B340C0515A5E26AF
:100E6000AAC7B6E95D102FD65314440281E6A1D873
:100E7000C8FBD3E7E6CDE121D60737C3870DD5F40C
:100E8000ED145A4505E9E3A9F8A3EFFCD9026F6711
:100E90008A4C2A8D4239FAFF81F6718722619D6D55
:100EA0000C38E5FD44EABEA4A9CFDE4B0844074454
:100EB000F80240EA5757274487EA04006840089937
:100EC0000844A74908440644300440EA16463E4414
:100ED00086EA070060400B990844A249084405448B
:100EE000E80540EA5525354485EA060078400E9924
:100EF00008449D4908440444200140EA14742C44E9
:100F000084EA050070400199084498490844074460
:100F1000F80240EA5757274487EA040068400499DA
:100F20000844934908440644300440EA16463E44C7
:100F300086EA07006040079908448E490844054442
:100F4000E80540EA5525354485EA060078400A99C7
:100F50000844894908440444200140EA14742C449C
:100F600084EA050070400D99084484490844074408
:100F7000F80240EA5757274487EA0400684010996E
:100F800008447F4908440644300440EA16463E447B
:100F900086EA07006040039908447A4908440544FA
:100FA000E80540EA5525354465EA07007040019997
:100FB0000844754908440444A00140EA94642C4460
:100FC00064EA0600684008990844704908440744E8
:100FD000B80240EA9757274467EA050060400F9936
:100FE00008446B4908440644F00340EA56463E4430
:100FF00066EA0400784006990844664908440544B6
:10100000680540EAD525354465EA070070400D992A
:101010000844614908440444A00140EA94642C4413
:1010200064EA06006840049908445C49084407449F
:10103000B80240EA9757274467EA050060400B99D9
:101040000844574908440644F00340EA56463E44E3
:1010500066EA04007840029908445249084405446D
:10106000680540EAD525354465EA070070400999CE
:1010700008444D4908440444A00140EA94642C44C7
:1010800064EA060068401099084448490844074447
:10109000B80240EA9757274467EA0500604007997D
:1010A0000844434908440644F00340EA56463E4497
:1010B00066EA040078400E9908443E490844054415
:1010C000680540EAD525354465EA07007040059972
:1010D0000844394908440444A00140EA94642C447B
:1010E00064EA060068400C990844344908440744FF
:1010F000B80240EA9757274467EA05006040039921
:1011000008442F4908440644F00340EA56463E444A
:1011100066EA040078400A9908442A4908440544CC
:10112000680540EAD5253544D8F800002044C8F8C1
:101130000000D8F804002844C8F80400D8F80800D3
:101140003044C8F80800D8F80C003844C8F80C003F
:10115000402101A8FFF793F811B0BDE8F08300002B
:10116000604BBBF670BCBFBEC67E9B28FA27A1EAC7
:101170008530EFD4051D880439D0D4D9E599DBE654
:10118000F87CA21F6556ACC4442229F497FF2A4379
:10119000A72394AB39A093FCC3595B6592CC0C8F09
:1011A0007DF4EFFFD15D84854F7EA86FE0E62CFED5
:1011B000144301A3A111084E827E53F735F23ABDC4
:1011C000BBD2D72A91D386EB2DE9F0470446884657
:1011D00015462069C0F3C509206900EBC5002061F0
:1011E000B0EBC50F02D26069401C6061606900EB22
:1011F00055716161C9F14007BD421BD304F118016B
:1012000001EB09003A464146FEF7F4FF04F11801EC
:101210002046FFF7EBFB3E4605E008EB06012046C3
:10122000FFF7E4FB403606F13F00A842F5D34FF04C
:10123000000900E00026AA1B08EB060104F11803D0
:1012400003EB0900FEF7D6FFBDE8F08700BFFEE71D
:10125000704708B500214FF0006000F057F82520D6
:101260008DF8000000208DF801008DF802000120AB
:101270008DF80300684600F00FF81C208DF8000080
:1012800000208DF801008DF8020001208DF8030088
:10129000684600F001F808BDF0B50F23C278017868
:1012A0004FF0E024012742B3D4F80C2D467802F425
:1012B000E062C2F5E062120AC2F10405D34082780E
:1012C000AE401A40324315018A07D20E954021F0F4
:1012D00003010B19D3F80064FF2191408E430D40A8
:1012E0002E43C3F800640078410900F01F0004EBAE
:1012F00081018740C1F80071F0BD01F01F008740F7
:10130000480904EB8000C0F88071F0BD024A11402A
:10131000014302480160704780FFFF1F08ED00E0B5
:1013200070477047034A516821F4404101435160BE
:101330007047000000100240044A0029D16901D022
:10134000014300E08143D16170470000001002407A
:10135000044A0029916901D0014300E08143916171
:10136000704700000010024010B500F02BF810206C
:10137000FFF74EF90220FFF779F9002000F0AAF8F4
:10138000002000F0BDF84FF4806000F0AFF84FF49B
:101390008040FFF7C7FF4FF48011002000F0C0F835
:1013A000012000F0B7F800BF392000F073F80028E2
:1013B000FAD0022000F0BEF800BF00F083F8082841
:1013C000FBD110BD0B48016841F00101016041688B
:1013D000094A114041600168084A114001600168F2
:1013E00021F4802101604268002122F4FE02426063
:1013F00081607047001002400000FFF8FFFFF6FE1A
:1014000030B5204A5168204B11F00C0103D004295B
:1014100001D0082901D0036011E05168022401F4D1
:10142000701104EB91415468184D14F4803F02D0C0
:101430005468A40301D5694300E059430160516831
:10144000134B01F0F00109095C5C0168E140416067
:10145000546804F4E064240A1C5D21FA04F48460F6
:10146000546804F46054E40A1B5DD940C1605268BA
:10147000074B02F44042920B1B1F9A5CB1FBF2F146
:10148000016130BD0010024000127A0000093D00E9
:10149000122F0008034600205909094A012901D1E9
:1014A000116804E0022901D1116A00E0516A03F0D9
:1014B0001F02012393400B4200D00120704700001F
:1014C000001002400248406800F00C007047000025
:1014D00000100240034A516821F0F00101435160BD
:1014E000704700000010024070470000034A516836
:1014F00021F4E06101435160704700000010024098
:10150000034A516821F4605141EAC00050607047BD
:101510000010024001490866704700000000424286
:10152000034B5A68084322F47C12104358607047FA
:1015300000100240034A516821F003010143516049
:1015400070470000001002407047704770477047B6
:1015500070477047704770477047704770477047D3
:10156000704700002DE9F05FD1480068052801D1DF
:10157000002002E0CE480068401CCD490860CD48FC
:10158000FEF726FF8246CA48006806282BD2DFE80D
:1015900000F0032B4C6A89A9C7480068C0EB0A40D9
:1015A000C549096801EB2020C3490860096846F66F
:1015B0006052A2EB214001F04EFA8046BF4AC04B78
:1015C00001F0C4F806460022BE4B01F017F80446AD
:1015D00001F014FABC49A1F84600072301220321B7
:1015E000B448FEF723FF8FE0AAF50040B749096829
:1015F000C1EB0040B549096801EB2020B349086000
:10160000096809145A2201FB02F0C11700EB51418D
:10161000C913C1F50041AC4AA2F8441007230122C6
:101620000421A448FEF702FF6EE0A9480068C0EB61
:101630000A40A749096801EB2020A549086008462F
:101640000068001440F61651484343F2F93190FB0C
:10165000F1F09D49A1F84200072301220521954898
:10166000FEF7E4FE50E09B480068C0EB0A40964954
:10167000498A084197490968084496490860924890
:10168000008810F0040F03D008460068001400E042
:1016900050468D49C8870723012206218548FEF759
:1016A000C5FE31E08C480068C0EB0A408649498A93
:1016B00008418949096808448749086082480088C8
:1016C00010F0040F03D008460068001400E05046F4
:1016D0007D49A1F840000723012200217548FEF74B
:1016E000A5FE11E041F67950824506DA41F2B95083
:1016F000824502DD03207949086007230122102179
:101700006C48FEF793FE00BF00BF01216948FEF759
:10171000CCFE7348006848B371480068401E7049A9
:10172000086034D16F480078012820D101036E4849
:10173000FFF716F9012240F227716C4800F0BCFB5C
:101740006A48008810F0800F21D069480068694914
:10175000096888421BDA664801680068401C644AD0
:1017600010606548405C6149091D08800FE04FF436
:1017700080515D48FFF7F2F84FF400515A48FFF7E7
:10178000EDF8012240F22551584800F095FB5B48E6
:1017900000685B49884204DC58480068801C57494F
:1017A00008604E480068012813D15448006847F289
:1017B000305188420DDD4448808F40F0200042497E
:1017C000888746480068012803D1C1034D48FFF7C8
:1017D000C7F84A48006847F23051884208DD4A4855
:1017E000007828B93848808F40F020003649888733
:1017F0003A480068012803D1C1034248FFF7B0F816
:101800003648006803284DD13C48006847F2305103
:10181000884202DA43F6D10B18E02B48808F10F093
:10182000030006D0012807D0022808D003280CD1D5
:1018300008E043F6D10B08E045F23A5B05E047F2D9
:10184000A21B02E048F60B6B00BF00BF2B480068EC
:1018500046F2A811884201DA45F23A5B274800684F
:1018600044F62061884201DA47F2A21B234800684F
:1018700043F69821884201DA48F60B6B1F4800684E
:1018800042F21071884201DA4AF6742B1B48006854
:1018900041F28831884201DA41F6684B4FF08041CD
:1018A000A1F838B00121880700F039F8BDE8F09FB1
:1018B0004C000020002401406000002029BFE78187
:1018C0003E14214000406F404E0500205C00002087
:1018D0005800002050000020540000206400002028
:1018E0000800002010000020000C014000380140DA
:1018F000040000200C000020CC0000206800002024
:10190000F0490200000801400000002070477047C5
:101910007047704770477047704770477047C943BA
:10192000018270470029018802D041F0010102E0E4
:1019300040F2FE321140018070470000F0B5028C89
:1019400022F001020284058C8288038B0C8823F02C
:1019500070030E8925F002051C434B882E43CF8867
:101960000C4D33438786A84202D00B4DA8420DD1BF
:101970004D8923F008031D4325F004068B8822F4CB
:10198000034533438E89CA892E43324382800483C0
:101990000384F0BD002C014000340140028B22F092
:1019A00008020A430283704770B5028C22F01002CD
:1019B0000284028C8388048B22F0200224F4E04508
:1019C0000C88164E240645EA14440D892D0542EA7A
:1019D00015454A88120545EA1242CD88B04205876E
:1019E00002D00F4DA84215D14D8922F080022D055D
:1019F00042EA15458A8825F04005120545EA12425B
:101A00008D89C989AD0423F40C4343EA1545890443
:101A100045EA114383800483028470BD002C014099
:101A200000340140028B22F4006242EA012101836A
:101A30007047000010B5028802F08F020280CA8849
:101A40004B8804881A43224302808A88064C01236B
:101A500082850A88A0420285838202D0034A90428E
:101A600001D1097A018610BD002C014000340140EB
:101A7000704770472DE9F047FB48008800F0FF08E9
:101A800018F0800F01D04FF0020918F0080F02D0B3
:101A9000F548001D048818F0200F01D04FF004090C
:101AA000F1480C30008800F0FF08B9F1020F06D0B1
:101AB000B9F1040F31D0B9F10C0F70D12CE0EA4824
:101AC000008810F0800F10D0E8480068E8490968E5
:101AD00088420ADAE54801680068401CE34A106061
:101AE000E448405CE049091D0880E0480068E0499E
:101AF000096888420FD11420DF4908600020DF49BF
:101B00000870DA490860DA490860002240F227715B
:101B1000D54800F0D1F9C0E100BFD348001D0088CE
:101B2000D7490870D148006810B101283CD10DE0B8
:101B3000D3480078012804D1D1480078CD490870F5
:101B400003E04FF0FF30C949086086E1CC480078D7
:101B5000C849487008464078042821D00846407893
:101B600003281DD0084640780F2819D00846407831
:101B7000102815D008464078062811D0084640782D
:101B800001280DD008464078022809D00846407840
:101B9000052805D04FF0FF30B449086003E07BE131
:101BA0000820B349086058E1B5480178B148AF4A08
:101BB00012688154AD48006806280CD1AD484078C1
:101BC000102803D0AB4840780F2804D1A948807969
:101BD0000930A7490860A6480068801EA349096823
:101BE00088427DDA4FF0FF30A0490860A0480168C4
:101BF000A048FEF76DFC18B100209D4908602CE15B
:101C00004FF400519F48FEF7ABFE002240F22551F1
:101C1000954800F051F99748C0789649897800EBCB
:101C20000125944840799349097900EB01269148B0
:101C3000407805280AD004DC03283FD004287AD154
:101C40007AE006281CD01028F9D1A7E041F661609F
:101C5000854202D88848006840B18520854948708F
:101C60000220887003208249086008E0062080492D
:101C70000860804840797F49097900EB0124CAE077
:101C800042F2D060854202D87B48006840B186208D
:101C900078494870022088700320754908600CE07C
:101CA000062073490860734840797249097900EB4E
:101CB00001207549096821F81500ACE0A81942F225
:101CC0001071884204D8A81902D06B48006850B13E
:101CD000832068494870022088700320644900E02E
:101CE000BAE0086026E07006000E62498870084677
:101CF0008078C01C5E490860002419E0281902D1D0
:101D000001206249086028195F49096831F810000C
:101D10000012032101EB4401564A505428195A4934
:101D2000096831F81000042101EB44015054641C8F
:101D3000B442E3D96FE063E0A819402804D8A81999
:101D400002D04D48006840B184204A4948700220C2
:101D500088700320464908601FE07006000E454960
:101D6000887008468078C01C41490860002412E051
:101D70002819474931F810000012032101EB4401F2
:101D80003C4A50542819424931F81000042101EB13
:101D900044015054641CB442EAD93CE0A81942F210
:101DA0001071884204D8A81902D03348006840B1A5
:101DB0009020304948700220887003202C49086028
:101DC0001DE02C4840792B49097900EB01260024BD
:101DD00010E0082000EB44002649085C072101EBD5
:101DE0004401244A515C00EB01202749096821F88D
:101DF0001400641CB442ECD306201D4908600AE0BC
:101E00001C48407880301B494870012088700320AE
:101E10001749086000BF00BF154801681548FEF764
:101E200057FB0746124802680068401C104B1860B8
:101E300010488754C7F30721184602680068401C01
:101E400018600C48815414200B49086001200B498C
:101E5000087000200F49086000BF00BF03480068F9
:101E6000401C0249086018E00038014004000020CE
:101E70000C000020CC0000200800002010000020F2
:101E800083000020000C01402C00002020000020D6
:101E9000CC0400201C00002000BF00BFBDE8F0877C
:101EA000704770470029818902D041F4005101E058
:101EB00021F400518181704710B5C1F3421301F044
:101EC0001F040121A140012B01D10C3004E0022BA1
:101ED00001D1103000E01430002A026801D00A431A
:101EE00000E08A43026010BD30B50446008A85B028
:101EF0000D464CF6FF710840E98801432182A08914
:101F00004EF6F3110840A9882A8911436A890243D1
:101F10001143A181A08A4FF6FF410840A9890143DE
:101F2000A1826846FFF76CFA1048844201D10398F9
:101F300000E0029819214843296864228900B0FB17
:101F4000F1F0B0FBF2F109010B096FF018056B43DA
:101F5000322500EB830005EB0010B0FBF2F000F03F
:101F60000F000843208105B030BD0000003801405B
:101F700070477047704700BFFEE770479AB0002473
:101F80004FF000656846FEF71FFDFE4A2946684689
:101F9000FFF71AF9694616A8FEF7EAFC0CE00120E3
:101FA00000EB440016A9085C11F8141040EA012166
:101FB000F54820F81410641C082CF0DB4FF48170F5
:101FC000F1495439A1F86400FFF7CEF901214FF42B
:101FD000C820FFF7BDF901210320FFF7ADF901216A
:101FE00040F21D20FFF7B4F9E8484068E84908438B
:101FF000E64948604FF4C050E64908801020C87098
:1020000002208870E448FEF759FC7820E1490880F6
:102010000020C87002208870DF48FEF74FFC4FF4A4
:102020000070DC490880032088701820C870DA48E6
:10203000FEF744FC4FF48060D64908800320887086
:102040004820C870D448FEF739FC4FF41E70D149BF
:1020500008801820C87003208870D048FEF72EFC36
:102060004FF47040CB4908801020C870032088705E
:10207000CA48FEF723FC4FF40050C64908801420DC
:10208000C87002208870C648FEF718FC4FF4004064
:10209000C04908801020C87002208870C048FEF730
:1020A0000DFC0020BF490860087148714FF46020A2
:1020B00088604FF40060C86001200874BA48006866
:1020C00040F40000B8490860B649B7480838FEF740
:1020D00089F90121B4480838FEF769F9B24808388F
:1020E000FEF7DEF900BFB0480838FEF774F90028A3
:1020F000F9D1AD480838FEF7E2F94BF68030AB492C
:10210000888000200880C880488008724FF0804096
:10211000FFF790FC6020A64908800120488042F625
:10212000E060C880002008814FF08040FFF73CFC51
:102130000821C806FFF776FC01208107888101216C
:102140008007FFF7EFFB45F6C050984988800320D1
:1021500008800020C88048809648FFF76BFC60200C
:1021600093490880012048800020C8800881914858
:10217000FFF7E4FB08218F48FFF710FC4FF4004005
:102180008C494431088001218A48FFF7CBFB4FF48A
:1021900080708649888000200880C88048808648F2
:1021A000FFF748FC60208249088001204880802099
:1021B000C880002008818048FFF7C0FB08217E48C6
:1021C000FFF7ECFB4FF400407B49443108800D20C1
:1021D00079492031088001217748FFF7A3FB4FF4AC
:1021E00080707249888000200880C88048807348C9
:1021F000FFF720FC60206E49088001204880802085
:10220000C880002008816D48FFF7CEFB08216B488D
:10221000FFF708FC602066490880012048800A20FA
:10222000C880002008816548FFF788FB08216348C3
:10223000FFF7B4FB01216148FFF774FB4FF48051B5
:102240005648FEF78BFB4FF400515448FEF786FBCF
:102250004D485438808F20F020004B4954398887EE
:1022600057480068012803D1C1034B48FEF776FBAD
:102270004FF4E1305349086000208880C88008810D
:1022800088810C2048815048FFF72EFE012240F241
:1022900027714D48FFF710FE012240F225514A48B0
:1022A000FFF70AFE01214848FFF7FCFD00BF3E484A
:1022B0000838FEF786F80028F9D140F6B8303249E0
:1022C000543948804FF47A6088804FF40040C880C9
:1022D0008881FEF7F9F900202B49543988873B485B
:1022E00000680068A1F84800384800680068000CE1
:1022F000A1F84A00364800680068A1F84C00FEF7D3
:10230000A8FF6BE130BF20485438C088A0F50040DA
:10231000C0015A2190FBF1F0C0F18000274934310F
:102320000880194854388089A0F50040C001C821B0
:1023300090FBF1F080302049343108802548007846
:10234000012861D110485438B0F8400040F6B83147
:10235000484301140C485438008AB1EB400F4FDD5C
:1023600009485438C08F40F6B83148430114064834
:102370005438C089B1EB400F42DD03485438B0F8FF
:10238000400029E0FFFF0100A205002000000140FD
:10239000000900028400002000080140000C0140F8
:1023A00000100140D805002008240140EC05002061
:1023B000F6050020004801400044014000040040B0
:1023C00064000020C80500200038014024000020DF
:1023D000280000200000002040F6B83148430114D6
:1023E0007F484089B1EB400F0ADD7D48C08F40F641
:1023F000B831484301147A480089B1EB400F02DC40
:10240000002078490870A5E07548B0F8400040F613
:10241000B831484300140A2190FBF1F17048B0F83C
:10242000400040F6B832504301EB20406C49098A25
:10243000884210DD4FF480516B48FEF791FA4FF45B
:1024400000616948FEF78AFA6548808F40F0020013
:10245000634988870AE04FF480516348FEF77EFAAB
:102460005F48808F20F002005D4988875C48C08FFC
:1024700040F6B831484300140A2190FBF1F1584866
:10248000C08F40F6B832504301EB20405449C9890F
:10249000884210DD4FF400615348FEF761FA4FF4B3
:1024A00080515148FEF75AFA4D48808F40F00100A4
:1024B0004B4988870AE04FF400614B48FEF74EFA1B
:1024C0004748808F20F00100454988874448B0F88C
:1024D000400040F6B831484300140A2190FBF1F166
:1024E0003F48B0F8400040F6B832504301EB20407E
:1024F0003B494989884206DD3948808F40F0080011
:102500003749888705E03648808F20F00800344935
:1025100088873348C08F40F6B831484300140A21F9
:1025200090FBF1F12E48C08F40F6B832504301EBDA
:1025300020402B490989884206DD2948808F40F0D8
:1025400004002749888705E02548808F20F0040093
:10255000234988872248008810F0020F05D04FF4E5
:1025600080412248FEF7FAF904E04FF480411F4809
:10257000FEF7F6F91A48008810F0010F05D072B680
:1025800071B6FEF7F1F862B661B6154840880002F0
:1025900040F6165190FBF1F0401C15490880104898
:1025A0008088B0F5FA7F19DB0D488088B0F5FA5FB6
:1025B00014DC0B49898849000E4A92FBF1F0C117DF
:1025C00000EB9171C1F38F010B4A1180114608880D
:1025D00000EBD0714910084A0832118092E60000E1
:1025E0004E0500200000002000080140000C0140C2
:1025F00038040040001C4E0E2C48014010B591EAF2
:10260000030F48BF83F0004300F19882841A71EBF6
:10261000030C05D2121943EB0C03001B61EB0C01F8
:10262000DFF824E14FEA1154A4EB135C1EEA430FD8
:1026300018BF9EEA445F73D023EA0E03DCF1200E3C
:1026400021EA045143F4801332D322FA0CFE10EB3A
:102650000E0023FA0CFE41EB0E01CCF1200E03FA22
:102660000EFE10EB0E0051F10001B1F5801FCCF110
:10267000200E32D201EB045112FA0EF2BDE81040E6
:1026800058BF7047401C38BF5FEA420218BF70470E
:10269000002814BF20F0010041F100014FEA41037E
:1026A00013F5001F38BF7047A1F1C04100F038BAE0
:1026B000012A43EB0302ACF1200CDCF11F0E32BF08
:1026C0004FF0000E23FA0CF310EB030041EB045122
:1026D000B4EB115FD0D0A1EB045101F58011490892
:1026E0005FEA300001EB04510ED350F1000038BF17
:1026F00012FA0EFE08D1BDE81040C9E7401C38BFF1
:102700005FEA4202CAD1C3E7BDE810404FEA410385
:1027100013F5001F38BF7047A1F1C04100F000BAA7
:102720009EEA445F08D011EA5E0FBDE8104004BF86
:1027300001F0004100207047BDE8104070B500F086
:10274000A1F900BF64FBBE3E0000E0FF2DE9C041DF
:1027500030B4DFF8A0C23CEA111418BF3CEA1314ED
:1027600000F0EC8081EA03051CEA111444EAD574F8
:1027700018BF1CEA131500F0C780A4EB05044FF046
:10278000004545EAC12145EAC32341EA505143EAE5
:10279000525304F17F74994204F500344FEAC0208B
:1027A0004FEAC22208BF904200F09C804FEA1365B6
:1027B0000FF24016765D4FEA134506FB05F7C7F1A9
:1027C000807706FB07F74FEAD737A7FB0368764207
:1027D000C8F58038A7FB06CE38BFA8F1010807FB73
:1027E00008E64FF0000EA6FB028CE6FB03CEDCF100
:1027F000000CCEF1004E38BFAEF1010EA6FB0C5816
:102800004FF000074FF00005E6FB0E87A1FB08C65E
:10281000A0FB07CE16EB0E0645F10005E1FB0765B0
:1028200015F1E04E7EBFA4F580345FEA46066D41A7
:1028300016F1800745F100054FEA17274FEA0666B3
:1028400047EA0567A6F1DE46B6F1805F4FEA152537
:102850001FD9384624F0010C05EBC471BCF1FE6FA2
:1028600001EB0C1102D8F0BCBDE8008124425CBF32
:1028700001F5801E9EEAC47F02D4F0BCBDE8008151
:10288000244238D4F0BCA1F1C041BDE8004100F0C1
:1028900047B94FEAD22242EA43524FEAD323A7FB79
:1028A00002864FEAD02040EA415007FB03661EEA49
:1028B0000E0F4FEAD12105FB026658BFA6EB00566A
:1028C000B6EB00564FEA520E4EEAC37E18EB0E0EE0
:1028D00056EB530EBDD518EB02085E417F1C55F137
:1028E0000005B6E74FF480154FF000074FF00006E3
:1028F0004FF00008ADE7F0BC4FF0000001F1C0411F
:1029000001F00041BDE8008111EA0C1F0CEA13152B
:1029100000D00CE013EA0C1F00F025804FF00000FF
:10292000F0BC81EA030101F00041BDE80081F0BC88
:10293000BDE8004181EA030100F0F2B8F0BCBDE857
:10294000004170B500F09EF8097EFC3E00F007B82B
:1029500081EA03014FF0000001F00041704781EA75
:10296000030100F0DDB8F0BCBDE800414FF000000D
:1029700021497047FFFDFBF9F7F5F4F2F0EEEDEBBE
:10298000E9E8E6E4E3E1E0DEDDDBDAD8D7D5D4D36D
:10299000D1D0CFCDCCCBCAC8C7C6C5C4C2C1C0BFB9
:1029A000BEBDBCBBBAB9B8B7B6B5B4B3B2B1B0AFBF
:1029B000AEADACABAAA9A8A8A7A6A5A4A3A3A2A1A3
:1029C000A09F9F9E9D9C9C9B9A999998979796955E
:1029D00095949393929191908F8F8E8E8D8C8C8BFA
:1029E0008B8A898988888787868585848483838282
:1029F000828181800000FF070000F87F4FEA1153B9
:102A0000A3F58063D3F11E03A8BFD3F1200C08DB2C
:102A10004FF0004242EAC12252EA505232FA03F029
:102A2000704709420BD4102BC4BF0020704703F538
:102A3000787CBCF1FF3F05D04FF0FF3070474FF07E
:102A40000000704770B500F01DF800BF4992248067
:102A500000207047F0E710F0004248BF4042B0FA53
:102A600080F310FA03F10AD0C3F11D0303F580636C
:102A70004FEA415002EB035202EBD12170474FF075
:102A8000000070470EF1020E2EF0030E5EF8046B8C
:102A9000364205D4012A43EB030515F5001F12D871
:102AA000012841EB010C1CF5001F0CD80ED14FEA98
:102AB000D17C15F5001F0CEB4C0C0CF1020C08BF7F
:102AC0004CEBD37C04E04FF0080C01E04FEAD37CE0
:102AD0000CEB4C0526FA05F606F00706B6F1040CD9
:102AE00006D20EEB860CBDE870404CF0010C60473E
:102AF000DFE80CF0090B02024FF000414FF000003C
:102B0000A1F5002170BD19461046012851EB0104C2
:102B100018BFD4F5001484BF002001F0004170BD3F
:102B20000808A0F500114FEA3101704710B591EA8D
:102B3000030F48BF83F000433FF568AD841A71EB83
:102B4000030C07D212198CF0004C43EB0C03001B52
:102B500061EB0C01DFF8A4E14FEA1154A4EB135C24
:102B60001EEA430F18BF9EEA445F00F0B08023EADC
:102B70006E03524221EA0451C3EB6E0338BF5B1E61
:102B8000DCF1200E25D322FA0CFE10EB0E0043FAE6
:102B90000CFE41EB0E01CCF1200E03FA0EFE10EB01
:102BA0000E0051F10001CCF1200E29D412FA0EF2E0
:102BB00001EB0451BDE8104058BF7047401C1CBFDA
:102BC000B2F1004F704700280CBF491C20F00100F3
:102BD000704712EB020E43EB030218BF4FF0010ED9
:102BE0004EEA4202ACF1200CDCF11E0E54D943FA3D
:102BF0000CFE10EB0E0051F1FF31CCF11E0ED5D5BD
:102C00000EF1010E12FA0EFE404141EB010101EB03
:102C1000445C5FEA5C5C10D910EBDE7001EB0451A0
:102C200038BFBEF1004FBDE8104018BF7047002804
:102C30000CBF491C20F00100704730D24FEAD42C61
:102C400011F5001124F400641BD0B1FA81F20B3AA3
:102C5000A41AA41ED2F12003914030FA03F31943C1
:102C6000904001EBCC71002C01EB0451BDE8104009
:102C7000A8BF704701F1C0414FF0000001F00041D2
:102C80007047B0FA80F310FA03F100D110BDE41AD6
:102C9000173C4805C90AE4E701EB045110BD49108F
:102CA00001EB0451BDE810404FEA300002E04FF064
:102CB000000170474A0008BF0042F8D0B2F5001F7B
:102CC00028BF704701F000414FF0000070479EEAB6
:102CD000445F07D011EA5E0FBDE8104004BF002139
:102CE00000207047BDE8104070B5FFF7CBFE00BF75
:102CF00040DFF63E83F00041104670470000E0FFE1
:102D000010B5FDF747FB4FF00001016010BD00005A
:102D1000C1C081C1400101C3C003800241C201C6DC
:102D2000C006800741C70005C1C581C4400401CC6D
:102D3000C00C800D41CD000FC1CF81CE400E000AE6
:102D4000C1CA81CB400B01C9C009800841C801D864
:102D5000C018801941D9001BC1DB81DA401A001E5E
:102D6000C1DE81DF401F01DDC01D801C41DC00147D
:102D7000C1D481D5401501D7C017801641D601D2E4
:102D8000C012801341D30011C1D181D0401001F095
:102D9000C030803141F10033C1F381F2403200365E
:102DA000C1F681F7403701F5C035803441F4003C6D
:102DB000C1FC81FD403D01FFC03F803E41FE01FA64
:102DC000C03A803B41FB0039C1F981F84038002806
:102DD000C1E881E9402901EBC02B802A41EA01EEDC
:102DE000C02E802F41EF002DC1ED81EC402C01E47D
:102DF000C024802541E50027C1E781E64026002266
:102E0000C1E281E3402301E1C021802041E001A033
:102E1000C060806141A10063C1A381A240620066DD
:102E2000C1A681A7406701A5C065806441A4006C6C
:102E3000C1AC81AD406D01AFC06F806E41AE01AAE3
:102E4000C06A806B41AB0069C1A981A84068007865
:102E5000C1B881B9407901BBC07B807A41BA01BE5B
:102E6000C07E807F41BF007DC1BD81BC407C01B47C
:102E7000C074807541B50077C1B781B640760072E5
:102E8000C1B281B3407301B1C071807041B00050D4
:102E9000C190819140510193C0538052419201965B
:102EA000C056805741970055C19581944054019C6C
:102EB000C05C805D419D005FC19F819E405E005A65
:102EC000C19A819B405B0199C05980584198018803
:102ED000C04880494189004BC18B818A404A004EDD
:102EE000C18E818F404F018DC04D804C418C00447C
:102EF000C184818540450187C04780464186018263
:102F0000C042804341830041C1818180404002042E
:102F10000608000000000102030401020304060782
:102F200008090000442F000800000020CC00000029
:102F30006C01000810300008CC0000209C0D00003F
:102F400088010008010000000000000000000000EF
:102F5000000000000001000000000000010000006F
:102F60000000000000000000E8F7FF1FECF7FF1F63
:102F70004E050020003C0008003C00080000000056
:102F800000000000000000004E050020003C00088A
:102F90000000000000000000000000000000000031
:102FA0000000000000000000000000000000000021
:102FB00000807701FA007D000000000000000000A2
:102FC0000000000000000000000000000000000001
:102FD0008000000000000000000000000000000071
:102FE00000000000000000000000000000000000E1
:102FF00000000000000000000000000000000000D1
:1030000000000000000000000000000000000000C0
:0400000508000131BD
:00000001FF
