:020000040800F2
:10000000280E0020D1010008BB070008AB0700083C
:10001000B70700088D0300088B14000800000000DB
:100020000000000000000000000000004B0B000872
:10003000DB030008000000008F0800084D0B0008DB
:100040008F1400088D0800084F0B0008230A0008D1
:1000500061040008C1090008DD030008E10300088D
:10006000E3030008E5030008E7030008C5030008F0
:10007000C7030008C9030008CB030008CD0300082C
:10008000CF030008D10300086F020008871400089E
:10009000891400089103000893030008E90300088D
:1000A000510B0008570B0008550B0008530B0008B4
:1000B000590B0008BD0E0008BF0E0008B10700086C
:1000C000AF070008B5070008B3070008450B000894
:1000D000470B0008251000085114000853140008AD
:1000E000DF030008210A000885140008C70E000875
:1000F000CD0E0008CB0E0008C90E000871020008E2
:1001000019050008250A0008C10E0008490B00085F
:100110002110000823100008C30E0008C50E0008B7
:10012000D3030008D5030008D7030008D90300084B
:1001300000F002F800F03CF80AA090E8000C8244BD
:100140008344AAF10107DA4501D100F031F8AFF29A
:10015000090EBAE80F0013F0010F18BFFB1A43F0A5
:10016000010318475021000070210000103A24BFFD
:1001700078C878C1FAD8520724BF30C830C144BF0C
:1001800004680C607047000000230024002500264E
:10019000103A28BF78C1FBD8520728BF30C148BFEA
:1001A0000B6070471FB501F07DFF1FBD10B510BD7E
:1001B00000F023F81146FFF7F5FF01F069F900F0B0
:1001C00041F803B4FFF7F2FF03BC00F049F8000068
:1001D0000348004703480449044A054B70470000A0
:1001E0003101000828060020280E0020280A0020DF
:1001F000280A0020704770477047754600F028F8BD
:10020000AE4605006946534620F00700854618B003
:1002100020B5FFF7DFFFBDE820404FF000064FF0AC
:1002200000074FF000084FF0000B21F00701AC462B
:10023000ACE8C009ACE8C009ACE8C009ACE8C0094A
:100240008D4670470446AFF300802046FFF7B9FFA4
:1002500000487047C405002000487047C8050020CA
:1002600001491820ABBEFEE7260002007047704728
:1002700070470029816802D041F0010101E021F0BE
:10028000010181607047014689680020490700D557
:1002900001207047C06C80B2704701468968002019
:1002A000090700D50120704730B542680E4B0C7924
:1002B0001A400B6842EA04221343436082680B4BE6
:1002C0004D791A40D1E9024342EA450223431343E0
:1002D0008360C26A097C22F47002491EC9B242EAF4
:1002E0000151C16230BD0000FFFEF0FFFDF7F1FFDC
:1002F00070B5072609290AD9C568A1F10A0404EBDB
:100300004404A640B543A3401D43C56007E005690A
:1003100001EB4104A640B543A3401D4305611F23E3
:10032000072A09D2446B521E02EB820293409C437F
:1003300091400C43446370BD0D2A09D2046BD21F57
:1003400002EB820293409C4391400C43046370BDD6
:10035000C46A0D3A02EB820293409C4391400C43E5
:10036000C46270BD816841F0080181607047002956
:10037000816802D041F4A00101E021F4A001816074
:100380007047816841F004018160704700BFFEE75B
:100390007047704730B502460B464FF6FF7008E0D5
:1003A00012F8014B4440E1B20012054C34F8114000
:1003B00060401C00A3F10105ABB2F1D130BD0000DB
:1003C000B220000870477047704770477047704709
:1003D0007047704770477047704770477047704765
:1003E0007047704770477047704700000149C86008
:1003F000704700000020024070B5054640F6FF76C9
:10040000304600F075F8042813D10A4C206940F0FA
:10041000020020616561206940F0400020613046A3
:1004200000F066F8012804D0216941F6FD72114000
:10043000216170BD0020024008490420CA68D2072B
:1004400001D001207047CA68520701D502207047C9
:10045000C968C906FBD50320704700000020024090
:100460007047000004490A6822F010020A600A6816
:1004700002430A607047000000200240F0B50546C4
:100480000E460F2000F034F8042816D10B4C2069DA
:1004900040F0010020612E800F2000F029F841F685
:1004A000FE77042804D1300C68800F2000F020F87B
:1004B000012802D0216939402161F0BD00200240AD
:1004C00004490A6802F038020A600A6802430A60B6
:1004D0007047000000200240034802494160034980
:1004E000416070472301674500200240AB89EFCD92
:1004F00000B50346FFF7A0FF05E0FF20401EFDD139
:10050000FFF79AFF5B1E012802D1002BF5D101E015
:10051000002B00D1052000BD7047000070B52248B7
:10052000A0F11402801A451005EBD5704010401C54
:100530000422C2EB80011D480068FFF72BFF1B4916
:100540000968898A884215D0002405E000201849EE
:10055000096821F81400641C1349A1F11402891AD6
:10056000481000EBD071012202EB6101A142EDDCE9
:10057000002070BD002408E00E48006850F82400F8
:100580000D49096841F82400641C0749A1F11402CF
:10059000891A481000EBD071012202EB6101A142DF
:1005A000EADC0120E5E700001E0500203000002005
:1005B00028000020440000204000002070B50420E6
:1005C00043490870012043490870002500240BE0CE
:1005D0004148006850F824004049096851F8241047
:1005E000884200D00125641C3D49A1F11402891AFA
:1005F000481000EBD071012202EB6101A142E7DC5F
:1006000005B970BDFFF768FF012036490860352045
:10061000FFF7ECFE0020344908600EE0324909681B
:10062000324A531403FB0120FFF7E6FE2849087005
:100630002D480068401C2C4908602B480068294957
:100640000968884203D2224800780428E6D0274867
:10065000274908602249A1F11402891A481000EBC9
:10066000D07149104C1C1E48801A461006EBD670FB
:100670004010401C0422C2EB800119481438FFF7D7
:1006800089FE174914398882002413E01248006853
:1006900050F824001149096851F82410884208D004
:1006A0000D4A126852F82410104A02EB8400FFF73A
:1006B000E5FE641C0A49A1F11402891A481000EBF6
:1006C000D071012202EB6101A142DFDC00BF98E79B
:1006D0007C0000207D00002040000020440000201D
:1006E0001E0500203C00002034000020003C0008D3
:1006F00038000020F0B5CB780022DC0603F00F03B1
:1007000001D58C7823430C880F2714F0FF0F4FF08E
:10071000010C1CD0D0F800500E880CFA02F42640D0
:10072000A64210D1960007FA06FE25EA0E0E03FA3D
:1007300006F5CE7845EA0E05282E00D14461CE7824
:10074000482E00D10461521C082AE5D305600A88AE
:10075000FF2A1ED94568002202F108060CFA06F4A9
:100760000E882640A64210D1960007FA06FE25EA1A
:100770000E0E03FA06F5CE7845EA0E05282E00D1B6
:100780004461CE78482E00D10461521C082AE3D37C
:100790004560F0BD0246926800200A4200D0012068
:1007A0007047416170470161704700BFFEE77047C5
:1007B00070477047704700BFFEE7704708B50021DB
:1007C0004FF0006000F058F825208DF80000002060
:1007D0008DF801008DF8020001208DF803006846B5
:1007E00000F00FF81C208DF8000000208DF80100AB
:1007F0008DF8020001208DF80300684600F001F832
:1008000008BDF0B50F23C27801784FF0E02401272E
:1008100042B3D4F80C2D467802F4E062C2F5E062EF
:10082000120AC2F10405D3408278AE401A40324326
:1008300015018A07D20E954021F003010B19D3F858
:100840000064FF2191408E430D402E43C3F80064A5
:100850000078410900F01F0004EB81018740C1F8D6
:100860000071F0BD01F01F008740480904EB8000D3
:10087000C0F88071F0BD0000024A114001430248F7
:100880000160704780FFFF1F08ED00E07047704770
:10089000034A516821F44041014351607047000010
:1008A00000100240044A0029D16901D0014300E050
:1008B0008143D1617047000000100240044A0029C2
:1008C000916901D0014300E08143916170470000CC
:1008D0000010024010B500F02BF81020FFF7C2FD09
:1008E0000220FFF7EDFD002000F060F8002000F08E
:1008F00073F84FF4806000F065F84FF48040FFF724
:10090000C7FF4FF48011002000F076F8012000F0BE
:100910006DF800BF392000F029F80028FAD0022035
:1009200000F074F800BF00F039F80828FBD110BDC2
:100930000B48016841F0010101604168094A11401A
:1009400041600168084A11400160016821F480217A
:1009500001604268002122F4FE024260816070471B
:10096000001002400000FFF8FFFFF6FE03460020E3
:100970005909094A012901D1116804E0022901D16C
:10098000116A00E0516A03F01F02012393400B42F9
:1009900000D001207047000000100240024840686B
:1009A00000F00C007047000000100240034A51683C
:1009B00021F0F00101435160704700000010024037
:1009C00070470000034A516821F4E061014351601F
:1009D0007047000000100240034A516821F4605142
:1009E00041EAC000506070470010024001490866AB
:1009F0007047000000004242034B5A68084322F44B
:100A00007C1210435860704700100240034A51683E
:100A100021F00301014351607047000000100240C3
:100A2000704770477047000070B5064600254FF4C8
:100A300000514348FFF7B7FE4FF400414048FFF72D
:100A4000B2FE4FF400513E48FFF7ABFE4FF40041B9
:100A50003B48FFF7A6FE4FF400413948FFF7A3FEDD
:100A60004FF400513648FFF79EFE4FF400413448E2
:100A7000FFF797FE4FF400513148FFF792FE002434
:100A80001BE0C4F1070101208840304205D04FF43B
:100A900000512B48FFF787FE04E04FF4005128482F
:100AA000FFF77FFE4FF400412548FFF77CFE4FF42F
:100AB00000412348FFF775FE641C082CE1DB4FF46E
:100AC00000511F48FFF76FFE4FF400411C48FFF72D
:100AD0006AFE4FF400411A48FFF763FE002425E048
:100AE0004FF400411648FFF75EFE4FF400411448F2
:100AF000FFF757FE6D00082C10D1A1021048FFF738
:100B000050FE21030E48FFF74EFE21030C48FFF76D
:100B100048FEA1020A48FFF746FE06E04FF40051E6
:100B20000748FFF737FE00B16D1C641C0F2CD7DBA4
:100B30004FF400510248FFF734FE681070BD00000A
:100B4000001001407047704770477047704770470A
:100B500070477047704770472DE9F05FC2480068E2
:100B6000052801D1002002E0BF480068401CBE49B2
:100B70000860BE48FFF78EFB8246BB480068062827
:100B80002BD2DFE800F0032B4C6A89A9B848006833
:100B9000C0EB0A40B649096801EB2020B44908605F
:100BA000096846F66052A2EB214001F026F9804622
:100BB000B04AB14B00F09CFF06460022AF4B00F05C
:100BC000EFFE044601F0ECF8AD49A1F8460007231A
:100BD00001220321A548FFF78BFB8FE0AAF5004017
:100BE000A8490968C1EB0040A649096801EB20202B
:100BF000A4490860096809145A2201FB02F0C117D0
:100C000000EB5141C913C1F500419D4AA2F84410BF
:100C10000723012204219548FFF76AFB6EE09A48FA
:100C20000068C0EB0A409849096801EB202096490A
:100C3000086008460068001440F61651484343F225
:100C4000F93190FBF1F08E49A1F84200072301220F
:100C500005218648FFF74CFB50E08C480068C0EB4C
:100C60000A408749498A08418849096808448749F0
:100C700008608348008810F0040F03D0084600681D
:100C8000001400E050467E49C88707230122062150
:100C90007648FFF72DFB31E07D480068C0EB0A4045
:100CA0007749498A08417A490968084478490860BF
:100CB0007348008810F0040F03D008460068001441
:100CC00000E050466E49A1F84000072301220021B0
:100CD0006648FFF70DFB11E041F67950824506DAD0
:100CE00041F2B950824502DD03206A4908600723BA
:100CF000012210215D48FFF7FBFA00BF00BF012170
:100D00005A48FFF734FB6448006848B362480068FB
:100D1000401E6149086034D160480078012820D124
:100D200001035F48FFF73FFD012240F227715D4854
:100D300000F090FB5B48008810F0800F21D05A48EB
:100D400000685A49096888421BDA574801680068F8
:100D5000401C554A10605648405C5249091D0880A5
:100D60000FE04FF480514E48FFF71BFD4FF4005148
:100D70004B48FFF716FD012240F22551494800F08B
:100D800069FB4C48006847F23051884204DA494810
:100D90000068801C474908603E48006801280AD165
:100DA0004448006847F23051884204DD4FF4004166
:100DB0004148FFF7F8FC3748006803284DD13D480B
:100DC000006847F23051884202DA43F6D10B18E04E
:100DD0002B48808F10F0030006D0012807D002288E
:100DE00008D003280CD108E043F6D10B08E045F207
:100DF0003A5B05E047F2A21B02E048F60B6B00BF2E
:100E000000BF2C48006846F2A811884201DA45F27A
:100E10003A5B2848006844F62061884201DA47F2CC
:100E2000A21B2448006843F69821884201DA48F65C
:100E30000B6B2048006842F21071884201DA4AF6D2
:100E4000742B1C48006841F28831884201DA41F66F
:100E5000684B4FF08041A1F838B00121880700F0BD
:100E600036F8BDE8F09F0000480000200024014053
:100E70005C00002029BFE7813E14214000406F4004
:100E80000A05002058000020540000204C000020DB
:100E90005000002060000020040000200C00002012
:100EA000000C014000380140000000200800002034
:100EB000880000206400002000080140704770474F
:100EC0007047704770477047704770477047C94315
:100ED000018270470029018802D041F0010102E03F
:100EE00040F2FE321140018070470000F0B5028CE4
:100EF00022F001020284058C8288038B0C8823F087
:100F000070030E8925F002051C434B882E43CF88C1
:100F10000C4D33438786A84202D00B4DA8420DD119
:100F20004D8923F008031D4325F004068B8822F425
:100F3000034533438E89CA892E433243828004831A
:100F40000384F0BD002C014000340140028B22F0EC
:100F500008020A430283704770B5028C22F0100227
:100F60000284028C8388048B22F0200224F4E04562
:100F70000C88164E240645EA14440D892D0542EAD4
:100F800015454A88120545EA1242CD88B0420587C8
:100F900002D00F4DA84215D14D8922F080022D05B7
:100FA00042EA15458A8825F04005120545EA1242B5
:100FB0008D89C989AD0423F40C4343EA154589049E
:100FC00045EA114383800483028470BD002C0140F4
:100FD00000340140028B22F4006242EA01210183C5
:100FE0007047000010B5028802F08F020280CA88A4
:100FF0004B8804881A43224302808A88064C0123C6
:1010000082850A88A0420285838202D0034A9042E8
:1010100001D1097A018610BD002C01400034014045
:10102000704770472DE9F047FB48008800F0FF0843
:1010300018F0800F01D04FF0020918F0080F02D00D
:10104000F548001D048818F0200F01D04FF0040966
:10105000F1480C30008800F0FF08B9F1020F06D00B
:10106000B9F1040F31D0B9F10C0F70D12CE0EA487E
:10107000008810F0800F10D0E8480068E84909683F
:1010800088420ADAE54801680068401CE34A1060BB
:10109000E448405CE049091D0880E0480068E049F8
:1010A000096888420FD11420DF4908600020DF4919
:1010B0000870DA490860DA490860002240F22771B6
:1010C000D54800F0C7F9C0E100BFD348001D008833
:1010D000D7490870D148006810B101283CD10DE013
:1010E000D3480078012804D1D1480078CD49087050
:1010F00003E04FF0FF30C949086086E1CC48007832
:10110000C849487008464078042821D008464078ED
:1011100003281DD0084640780F2819D0084640788B
:10112000102815D008464078062811D00846407887
:1011300001280DD008464078022809D0084640789A
:10114000052805D04FF0FF30B449086003E07BE18B
:101150000820B349086058E1B5480178B148AF4A62
:1011600012688154AD48006806280CD1AD4840781B
:10117000102803D0AB4840780F2804D1A9488079C3
:101180000930A7490860A6480068801EA34909687D
:1011900088427DDA4FF0FF30A0490860A04801681E
:1011A000A048FFF7F7F818B100209D4908602CE12E
:1011B0004FF400519F48FFF7F6FA002240F2255104
:1011C000954800F047F99748C0789649897800EB30
:1011D0000125944840799349097900EB012691480B
:1011E000407805280AD004DC03283FD004287AD1AF
:1011F0007AE006281CD01028F9D1A7E041F66160FA
:10120000854202D88848006840B1852085494870E9
:101210000220887003208249086008E00620804987
:101220000860804840797F49097900EB0124CAE0D1
:1012300042F2D060854202D87B48006840B18620E7
:1012400078494870022088700320754908600CE0D6
:10125000062073490860734840797249097900EBA8
:1012600001207549096821F81500ACE0A81942F27F
:101270001071884204D8A81902D06B48006850B198
:10128000832068494870022088700320644900E088
:10129000BAE0086026E07006000E624988700846D1
:1012A0008078C01C5E490860002419E0281902D12A
:1012B00001206249086028195F49096831F8100067
:1012C0000012032101EB4401564A505428195A498F
:1012D000096831F81000042101EB44015054641CEA
:1012E000B442E3D96FE063E0A819402804D8A819F4
:1012F00002D04D48006840B184204A49487002201D
:1013000088700320464908601FE07006000E4549BA
:10131000887008468078C01C41490860002412E0AB
:101320002819474931F810000012032101EB44014C
:101330003C4A50542819424931F81000042101EB6D
:1013400044015054641CB442EAD93CE0A81942F26A
:101350001071884204D8A81902D03348006840B1FF
:101360009020304948700220887003202C49086082
:101370001DE02C4840792B49097900EB0126002417
:1013800010E0082000EB44002649085C072101EB2F
:101390004401244A515C00EB01202749096821F8E7
:1013A0001400641CB442ECD306201D4908600AE016
:1013B0001C48407880301B49487001208870032009
:1013C0001749086000BF00BF154801681548FEF7BF
:1013D000E1FF0746124802680068401C104B186085
:1013E00010488754C7F30721184602680068401C5C
:1013F00018600C48815414200B49086001200B49E7
:10140000087000200F49086000BF00BF0348006853
:10141000401C0249086018E000380140000000202C
:101420000800002088000020040000200C0000209C
:101430007F000020000C0140280000201C0000203C
:10144000880400201800002000BF00BFBDE8F0871E
:101450007047704710B5C1F3421301F01F0401211A
:10146000A140012B01D10C3004E0022B01D110303E
:1014700000E01430002A026801D00A4300E08A43E9
:10148000026010BD70477047704700BFFEE77047AD
:10149000FFF720FA01214FF4C820FFF70FFA0121CE
:1014A0000320FFF7FFF9012140F21D20FFF706FAA4
:1014B000FE484068FE490843FC4948604FF4C0506C
:1014C000FC4908801020C87002208870FA48FFF795
:1014D00011F97820F74908800020C8700220887030
:1014E000F548FFF707F94FF40070F2490880032030
:1014F00088701820C870F048FFF7FCF84FF480603F
:10150000EC490880032088704820C870EA48FFF73B
:10151000F1F84FF41E70E74908801820C8700320C6
:101520008870E648FFF7E6F84FF47040E14908801C
:101530001020C87003208870E048FFF7DBF84FF4F4
:101540000050DC4908801420C87002208870DC48F4
:10155000FFF7D0F84FF40040D64908801020C8703B
:1015600002208870D648FFF7C5F80020D5490860EA
:10157000087148714FF4602088604FF40060C860C3
:1015800001200874D048006840F40000CE4908608B
:10159000CC49CD480838FEF787FE0121CA480838F3
:1015A000FEF767FEC8480838FEF7DCFE00BFC648F5
:1015B0000838FEF772FE0028F9D1C3480838FEF754
:1015C000E0FE4BF68030C149888000200880C8804A
:1015D000488008724FF08040FFF704FD6020BC494E
:1015E00008800120488042F6E060C8800020088121
:1015F0004FF08040FFF7B0FC0821C806FFF7EAFC77
:1016000001208107888101218007FFF763FC45F6EF
:10161000C050AE498880032008800020C8804880E0
:10162000AC48FFF7DFFC6020A94908800120488012
:101630000020C8800881A748FFF758FC0821A5486A
:10164000FFF784FC4FF40040A24944310880012197
:10165000A048FFF73FFC4FF480709C498880002031
:101660000880C88048809C48FFF7BCFC60209849EF
:101670000880012048808020C8800020088196488A
:10168000FFF734FC08219448FFF760FC4FF400405A
:101690009149443108800D208F4920310880012173
:1016A0008D48FFF717FC4FF4807088498880002030
:1016B0000880C88048808948FFF794FC60208449EE
:1016C0000880012048808020C8800020088183484D
:1016D000FFF742FC08218148FFF77CFC60207C4931
:1016E0000880012048800A20C880002008817B48AB
:1016F000FFF7FCFB08217948FFF728FC0121774818
:10170000FFF7E8FB4FF480516C48FFF74AF84FF4BD
:1017100000516A48FFF745F84FF400416648FFF76B
:1017200040F842F2AC006E490880C8146C49083198
:101730000880D0206A49091F088000BF00BF6248A6
:101740000838FEF7A0FD0028F9D140F6B830654909
:1017500048804FF47A6088804FF40040C8808881C8
:10176000FEF7DCFE00205F4988875F48006800685C
:10177000A1F848005C4800680068000CA1F84A0025
:101780005A4800680068A1F84C000320FFF74CF9A4
:10179000FFF714F8F8E030BF5248C088A0F50040C9
:1017A000C0015A2190FBF1F0C0F180004B49343167
:1017B00008804C488089A0F50040C001C82190FBFA
:1017C000F1F080304449343108804648018AB0F84D
:1017D000400040F6B8325043B1EB204F10DA4FF4DE
:1017E00080513548FEF7DFFF4FF400613248FEF7C5
:1017F000D8FF3C48808F40F001003A4988870AE0D2
:101800004FF480512C48FEF7CCFF3648808F20F0F3
:101810000100344988873348C189C08F40F6B83207
:101820005043B1EB204F10DA4FF400612248FEF72D
:10183000BAFF4FF480512048FEF7B3FF2948808F4C
:1018400040F00200274988870AE04FF400611A48F7
:10185000FEF7A7FF2348808F20F0020021498887E8
:1018600020484189B0F8400040F6B8325043B1EB0F
:10187000204F06DA1B48808F40F004001949888702
:1018800005E01848808F20F0040016498887154825
:101890000189C08F40F6B8325043B1EB204F29DAAE
:1018A0001048808F40F008000E4921E00000014000
:1018B000000900028000002000080140000C0140E7
:1018C000001001409405002008240140A8050020D4
:1018D000B2050020004801400044014000040040DF
:1018E0000C3801400A0500202000002024000020C0
:1018F000888705E02548808F20F0080023498887E5
:101900002248008810F0020F05D04FF48041204893
:10191000FEF747FF04E04FF480411D48FEF743FF08
:101920001A48008810F0010F05D072B671B6FEF7A4
:1019300045FE62B661B615484088000240F6165171
:1019400090FBF1F0401C1349088010488088B0F5E6
:10195000FA7F19DB0D488088B0F5FA5F14DC0B497B
:10196000898849000C4A92FBF1F0C11700EB917194
:10197000C1F38F01094A11801146088800EBD0712C
:101980004910064A0832118005E700000A050020C8
:10199000000C014038040040001C4E0E2C48014051
:1019A00010B591EA030F48BF83F0004300F198821D
:1019B000841A71EB030C05D2121943EB0C03001BC4
:1019C00061EB0C01DFF824E14FEA1154A4EB135C46
:1019D0001EEA430F18BF9EEA445F73D023EA0E034A
:1019E000DCF1200E21EA045143F4801332D322FAB1
:1019F0000CFE10EB0E0023FA0CFE41EB0E01CCF1B5
:101A0000200E03FA0EFE10EB0E0051F10001B1F5AD
:101A1000801FCCF1200E32D201EB045112FA0EF2EB
:101A2000BDE8104058BF7047401C38BF5FEA420213
:101A300018BF7047002814BF20F0010041F10001D9
:101A40004FEA410313F5001F38BF7047A1F1C041B1
:101A500000F038BA012A43EB0302ACF1200CDCF1B0
:101A60001F0E32BF4FF0000E23FA0CF310EB0300F1
:101A700041EB0451B4EB115FD0D0A1EB045101F55F
:101A8000801149085FEA300001EB04510ED350F198
:101A9000000038BF12FA0EFE08D1BDE81040C9E7B9
:101AA000401C38BF5FEA4202CAD1C3E7BDE810401C
:101AB0004FEA410313F5001F38BF7047A1F1C04141
:101AC00000F000BA9EEA445F08D011EA5E0FBDE85C
:101AD000104004BF01F0004100207047BDE81040F5
:101AE00070B500F0A1F900BF64FBBE3E0000E0FF4E
:101AF0002DE9C04130B4DFF8A0C23CEA111418BF90
:101B00003CEA131400F0EC8081EA03051CEA11148E
:101B100044EAD57418BF1CEA131500F0C780A4EB83
:101B200005044FF0004545EAC12145EAC32341EAD7
:101B3000505143EA525304F17F74994204F5003442
:101B40004FEAC0204FEAC22208BF904200F09C80BA
:101B50004FEA13650FF24016765D4FEA134506FB18
:101B600005F7C7F1807706FB07F74FEAD737A7FBE2
:101B700003687642C8F58038A7FB06CE38BFA8F1C7
:101B8000010807FB08E64FF0000EA6FB028CE6FBFF
:101B900003CEDCF1000CCEF1004E38BFAEF1010EE9
:101BA000A6FB0C584FF000074FF00005E6FB0E8730
:101BB000A1FB08C6A0FB07CE16EB0E0645F10005FB
:101BC000E1FB076515F1E04E7EBFA4F580345FEAC6
:101BD00046066D4116F1800745F100054FEA1727CB
:101BE0004FEA066647EA0567A6F1DE46B6F1805F72
:101BF0004FEA15251FD9384624F0010C05EBC471B6
:101C0000BCF1FE6F01EB0C1102D8F0BCBDE8008105
:101C100024425CBF01F5801E9EEAC47F02D4F0BC62
:101C2000BDE80081244238D4F0BCA1F1C041BDE838
:101C3000004100F047B94FEAD22242EA43524FEA4C
:101C4000D323A7FB02864FEAD02040EA415007FB8E
:101C500003661EEA0E0F4FEAD12105FB026658BF4C
:101C6000A6EB0056B6EB00564FEA520E4EEAC37E84
:101C700018EB0E0E56EB530EBDD518EB02085E4165
:101C80007F1C55F10005B6E74FF480154FF00007B3
:101C90004FF000064FF00008ADE7F0BC4FF0000039
:101CA00001F1C04101F00041BDE8008111EA0C1FC3
:101CB0000CEA131500D00CE013EA0C1F00F025808D
:101CC0004FF00000F0BC81EA030101F00041BDE8E3
:101CD0000081F0BCBDE8004181EA030100F0F2B8E8
:101CE000F0BCBDE8004170B500F09EF8097EFC3EF6
:101CF00000F007B881EA03014FF0000001F0004155
:101D0000704781EA030100F0DDB8F0BCBDE8004196
:101D10004FF0000021497047FFFDFBF9F7F5F4F2A1
:101D2000F0EEEDEBE9E8E6E4E3E1E0DEDDDBDAD876
:101D3000D7D5D4D3D1D0CFCDCCCBCAC8C7C6C5C4D4
:101D4000C2C1C0BFBEBDBCBBBAB9B8B7B6B5B4B3EB
:101D5000B2B1B0AFAEADACABAAA9A8A8A7A6A5A4D6
:101D6000A3A3A2A1A09F9F9E9D9C9C9B9A9999989A
:101D70009797969595949393929191908F8F8E8E3D
:101D80008D8C8C8B8B8A89898888878786858584CA
:101D900084838382828181800000FF070000F87FB6
:101DA0004FEA1153A3F58063D3F11E03A8BFD3F10B
:101DB000200C08DB4FF0004242EAC12252EA5052A6
:101DC00032FA03F0704709420BD4102BC4BF002035
:101DD000704703F5787CBCF1FF3F05D04FF0FF3032
:101DE00070474FF00000704770B500F01DF800BF5D
:101DF0004992248000207047F0E710F0004248BF6D
:101E00004042B0FA80F310FA03F10AD0C3F11D0387
:101E100003F580634FEA415002EB035202EBD121FC
:101E200070474FF0000070470EF1020E2EF0030EC7
:101E30005EF8046B364205D4012A43EB030515F521
:101E4000001F12D8012841EB010C1CF5001F0CD813
:101E50000ED14FEAD17C15F5001F0CEB4C0C0CF1A8
:101E6000020C08BF4CEBD37C04E04FF0080C01E0FF
:101E70004FEAD37C0CEB4C0526FA05F606F0070674
:101E8000B6F1040C06D20EEB860CBDE870404CF0A7
:101E9000010C6047DFE80CF0090B02024FF0004133
:101EA0004FF00000A1F5002170BD19461046012831
:101EB00051EB010418BFD4F5001484BF002001F0D9
:101EC000004170BD0808A0F500114FEA31017047CC
:101ED00010B591EA030F48BF83F000433FF568ADAA
:101EE000841A71EB030C07D212198CF0004C43EBEF
:101EF0000C03001B61EB0C01DFF8A4E14FEA115465
:101F0000A4EB135C1EEA430F18BF9EEA445F00F087
:101F1000B08023EA6E03524221EA0451C3EB6E0300
:101F200038BF5B1EDCF1200E25D322FA0CFE10EB2D
:101F30000E0043FA0CFE41EB0E01CCF1200E03FA29
:101F40000EFE10EB0E0051F10001CCF1200E29D451
:101F500012FA0EF201EB0451BDE8104058BF704771
:101F6000401C1CBFB2F1004F704700280CBF491C39
:101F700020F00100704712EB020E43EB030218BF82
:101F80004FF0010E4EEA4202ACF1200CDCF11E0EC5
:101F900054D943FA0CFE10EB0E0051F1FF31CCF195
:101FA0001E0ED5D50EF1010E12FA0EFE404141EB88
:101FB000010101EB445C5FEA5C5C10D910EBDE7060
:101FC00001EB045138BFBEF1004FBDE8104018BF0F
:101FD000704700280CBF491C20F00100704730D228
:101FE0004FEAD42C11F5001124F400641BD0B1FA8F
:101FF00081F20B3AA41AA41ED2F12003914030FAC8
:1020000003F31943904001EBCC71002C01EB045118
:10201000BDE81040A8BF704701F1C0414FF000007B
:1020200001F000417047B0FA80F310FA03F100D1DB
:1020300010BDE41A173C4805C90AE4E701EB045156
:1020400010BD491001EB0451BDE810404FEA3000CB
:1020500002E04FF0000170474A0008BF0042F8D08C
:10206000B2F5001F28BF704701F000414FF000009B
:1020700070479EEA445F07D011EA5E0FBDE810404A
:1020800004BF002100207047BDE8104070B5FFF785
:10209000CBFE00BF40DFF63E83F0004110467047A4
:1020A0000000E0FF10B5FEF7D7F84FF00001016027
:1020B00010BD0000C1C081C1400101C3C003800246
:1020C00041C201C6C006800741C70005C1C581C421
:1020D000400401CCC00C800D41CD000FC1CF81CE9A
:1020E000400E000AC1CA81CB400B01C9C00980085B
:1020F00041C801D8C018801941D9001BC1DB81DA61
:10210000401A001EC1DE81DF401F01DDC01D801CA2
:1021100041DC0014C1D481D5401501D7C017801609
:1021200041D601D2C012801341D30011C1D181D058
:10213000401001F0C030803141F10033C1F381F231
:1021400040320036C1F681F7403701F5C0358034A2
:1021500041F4003CC1FC81FD403D01FFC03F803E99
:1021600041FE01FAC03A803B41FB0039C1F981F8D8
:1021700040380028C1E881E9402901EBC02B802AC2
:1021800041EA01EEC02E802F41EF002DC1ED81EC20
:10219000402C01E4C024802541E50027C1E781E609
:1021A00040260022C1E281E3402301E1C0218020DA
:1021B00041E001A0C060806141A10063C1A381A290
:1021C00040620066C1A681A7406701A5C065806422
:1021D00041A4006CC1AC81AD406D01AFC06F806E99
:1021E00041AE01AAC06A806B41AB0069C1A981A858
:1021F00040680078C1B881B9407901BBC07B807A62
:1022000041BA01BEC07E807F41BF007DC1BD81BC9F
:10221000407C01B4C074807541B50077C1B781B608
:1022200040760072C1B281B3407301B1C071807059
:1022300041B00050C190819140510193C0538052F0
:1022400041920196C056805741970055C19581949F
:102250004054019CC05C805D419D005FC19F819E98
:10226000405E005AC19A819B405B0199C0598058D9
:1022700041980188C04880494189004BC18B818ABF
:10228000404A004EC18E818F404F018DC04D804C21
:10229000418C0044C184818540450187C047804608
:1022A00041860182C042804341830041C1818180D7
:1022B00040400000D42200080000002088000000F8
:1022C0006C0100085C23000888000020A00D0000BD
:1022D000880100080000000000000000000000006D
:1022E00000010000000000000100000000000000EC
:1022F00000000000E8F7FF1FECF7FF1F0A050020B1
:10230000003C0008003C0008000000000000000045
:10231000000000000A050020003C0008000000004A
:1023200000000000000000000000000000000000AD
:1023300000000000000000000000000000807701A5
:10234000FA007D0000000000000000000000000016
:0C23500000000000000000000000000081
:0400000508000131BD
:00000001FF
