:020000040800F2
:10000000700E0020CD010008F50D0008BD050008A8
:10001000F30D000829040008CB16000800000000BA
:1000200000000000000000000000000005110008B2
:100030007304000800000000B30E00080711000858
:10004000CD160008B10E000809110008FB100008C9
:10005000E104000899100008A1040008A5040008A4
:10006000A7040008A9040008AB0400085D04000808
:100070005F040008610400086304000865040008C8
:1000800067040008690400089F030008C7160008F9
:10009000C91600082B0400082D040008AD04000850
:1000A0000B110008111100080F1100080D110008B4
:1000B00015110008991100089B110008C1050008DE
:1000C000BF050008C5050008C3050008FF100008AB
:1000D0000111000805130008B5150008B715000840
:1000E000A3040008F9100008C5160008A3110008B1
:1000F000A9110008A7110008A5110008A103000814
:1001000011050008FD1000089D11000803110008EA
:1001100001130008031300089F110008A111000833
:100120006B0400086D0400086F04000871040008E7
:1001300000F002F800F03AF80AA090E8000C8244BF
:100140008344AAF10107DA4501D100F02FF8AFF29C
:10015000090EBAE80F0013F0010F18BFFB1A43F0A5
:1001600001031847E8190000081A0000103A24BFDC
:1001700078C878C1FAD8520724BF30C830C144BF0C
:1001800004680C607047000000230024002500264E
:10019000103A28BF78C1FBD8520728BF30C148BFEA
:1001A0000B6070471FB51FBD10B510BD00F0C1F842
:1001B0001146FFF7F7FF01F08BFA00F0DFF803B408
:1001C000FFF7F2FF03BC00F0E3F80000034800472C
:1001D00003480449044A054B7047000031010008F8
:1001E00070060020700E0020700A0020700A0020A7
:1001F000032A40F2308010F0030C00F0158011F853
:10020000013BBCF1020F624498BF11F801CB00F82A
:10021000013B38BF11F8013BA2F1040298BF00F87E
:1002200001CB38BF00F8013B11F0030300F04F8011
:10023000083AC0F0088051F8043B083A51F804CB62
:10024000A0E80810F5E7121D5CBF51F8043B40F828
:10025000043BAFF30080D20724BF11F8013B11F833
:1002600001CB48BF11F8012B24BF00F8013B00F877
:1002700001CB48BF00F8012B70474FF0000200B5DA
:10028000134694469646203922BFA0E80C50A0E8B9
:100290000C50B1F12001BFF4F7AF090728BFA0E867
:1002A0000C5048BF0CC05DF804EB890028BF40F833
:1002B000042B08BF704748BF20F8022B11F0804F75
:1002C00018BF00F8012B704770477047704710B592
:1002D000203AC0F00B80B1E81850203AA0E818503E
:1002E000B1E81850A0E81850BFF4F5AF5FEA027CFF
:1002F00024BFB1E81850A0E8185044BF18C918C06E
:10030000BDE810405FEA827C24BF51F8043B40F80E
:10031000043B08BF7047D20728BF31F8023B48BFF3
:1003200011F8012B28BF20F8023B48BF00F8012B31
:100330007047754600F028F8AE46050069465346FA
:1003400020F00700854618B020B5FFF741FFBDE853
:1003500020404FF000064FF000074FF000084FF02C
:10036000000B21F00701AC46ACE8C009ACE8C009BD
:10037000ACE8C009ACE8C0098D4670470446AFF34D
:1003800000802046FFF71BFF004870471006002042
:1003900001491820ABBEFEE72600020070477047F7
:1003A0007047002904D0816841F0010181607047E5
:1003B000816821F001018160704701460020896851
:1003C0000907002900DA01207047000010B54268D3
:1003D0000E4B1A400C790B6842EA04221343436027
:1003E00082680B4B1A40D1E9024323434C7942EA1D
:1003F000440213438360C26A22F47002097C491EDE
:10040000C9B242EA0151C16210BD0000FFFEF0FF17
:10041000FDF7F1FF816841F0080181607047816854
:1004200041F0040181607047FEE7704770470000AB
:1004300030B502464FF6FF70074D07E012F8013B5A
:100440004340DBB2040A35F8130060400B00A1F111
:10045000010189B2F2D130BD4C19000870477047D4
:1004600070477047704770477047704770477047D4
:1004700070477047F0B5002400230EE0CD18CE5C25
:100480006F7846EA0726AF78ED783F0447EA0565BE
:100490002E4340F82460641C1B1D9342EED3F0BD34
:1004A000704770477047704770477047704770B526
:1004B0000023002411E011F82350055531F8235092
:1004C0002E0A05196E7051F82360360CAE7051F883
:1004D0002360360EEE705B1C241D9442EBD370BD7E
:1004E0007047000004490A6822F010020A600A6896
:1004F00002430A607047000000200240034A11686E
:1005000001F03801014311607047000000200240F3
:1005100070472DE9F0410022CC7804F00F03E40687
:10052000002C01DA8C7823430C780F274FF0010C54
:10053000E4B105680CFA02F40E882640A64211D1F7
:10054000960007FA06F825EA080503FA06F848EACD
:100550000505CE78282E02D0482E02D002E0446154
:1005600000E00461521C082AE4D305600A88FF2ACF
:100570001ED94568002202F108060CFA06F40E881E
:100580002640A64210D1960007FA06F825EA08058B
:1005900003FA06F848EA0505CE78282E00D1446112
:1005A000CE78482E00D10461521C082AE3D345605E
:1005B000BDE8F0814161704701617047FEE7704717
:1005C00070477047704700007CB505460C4608220E
:1005D00004F110016846FFF76AFF208AC0F3C502E4
:1005E000382A02D2C2F1380201E0C2F17802094988
:1005F000204600F0C5FB08226946204600F0C0FBFB
:10060000102221462846FFF752FF58212046FFF7C7
:1006100034FE7CBD240000200021416101610549B8
:100620000160054941600349C94381600249C943EA
:10063000C16070470123456789ABCDEF2DE9F041DB
:1006400090B00446D4F800806568A668E768402248
:100650006846FFF70FFF05EA060027EA0501084391
:10066000FE4908440099414408444FEA706041192A
:1006700001EA050026EA01021043F94A1044019AF2
:100680003A4410444FEA3050431803EA010025EA87
:1006900003021043F34A1044029A324410444FEAD2
:1006A000F030184400EA030221EA00063243EE4E1D
:1006B0003244039E35442A444FEAB222024402EAFD
:1006C000000523EA02063543E84E3544049E3144D2
:1006D00029444FEA7161114401EA020520EA01064A
:1006E0003543E34E3544059E33442B444FEA3353A0
:1006F0005D1805EA010322EA05063343DD4E334463
:10070000069E304418444FEAF030431903EA0500CE
:1007100021EA03063043D84E3044079E3244104449
:100720004FEAB020C21802EA030025EA020630436D
:10073000D24E3044089E314408444FEA706081181C
:1007400001EA020023EA01063043CD4E3044099EFF
:10075000354428444FEA3050084400EA010522EAB3
:10076000000635430A9EA5F524454F3D33442B44EE
:100770004FEAF3331D1805EA000321EA0506334367
:10078000C04E33440B9E32441A444FEAB2222A44EC
:1007900002EA050320EA02063343BB4E33440C9EB3
:1007A000314419444FEA71618B1803EA020125EACA
:1007B00003063143B54E31440D9E304408444FEAA0
:1007C0003050C11801EA030022EA01063043B04E5E
:1007D00030440E9E354428444FEAF030084400EA85
:1007E000010523EA00063543AA4E35440F9E3244E4
:1007F0002A444FEAB222151805EA010220EA01064E
:100800003243A54E3244019E33441A444FEAF26209
:100810002A4402EA000325EA000633439F4E33448C
:10082000069E314419444FEAF1518B1803EA050141
:1008300022EA050631439A4E31440B9E3044084467
:100840004FEAB040C11801EA020023EA0206304331
:10085000944E3044009E354428444FEA30300844DA
:1008600000EA030521EA030635438F4E3544059E11
:1008700032442A444FEAF262024402EA010520EAC5
:1008800001063543894E35440A9E33442B444FEAD2
:10089000F353134403EA000522EA00063543844E6D
:1008A00035440F9E314429444FEAB141194401EACD
:1008B000020523EA020635437E4E3544049E304449
:1008C00028444FEA3030084400EA030521EA0306D1
:1008D0003543794E3544099E32442A444FEAF26248
:1008E000024402EA010520EA01063543734E35440D
:1008F0000E9E33442B444FEAF353134403EA00059E
:1009000022EA000635436E4E3544039E31442944A5
:100910004FEAB141194401EA020523EA02063543D0
:10092000684E3544089E304428444FEA303008442D
:1009300000EA030521EA03063543634E35440D9E64
:1009400032442A444FEAF262024402EA010520EAF4
:10095000010635435D4E3544029E33442B444FEA35
:10096000F353134403EA000522EA00063543584EC8
:100970003544079E314429444FEAB141194401EA04
:10098000020523EA02063543524E35440C9E30449C
:1009900028444FEA30300844059D4F4E154480EA04
:1009A00001025A4032442A444FEA32720244089DFE
:1009B0004A4E1D4482EA00034B4033442B444FEA25
:1009C000735313440B9D464E0D4483EA020141408C
:1009D000314429444FEA314119440E9D414E0544AA
:1009E00081EA03005040304428444FEA7020084414
:1009F000019D3D4E154480EA01025A4032442A448A
:100A00004FEA32720244049D384E1D4482EA0003CC
:100A10004B4033442B444FEA73531344079D344EE9
:100A20000D4483EA02014140314429444FEA3141F7
:100A3000CD180A992F4E014485EA030050403044F6
:100A400008444FEA702028440D992B4E0A4480EA4E
:100A5000050159403144114450E0000078A46AD7A0
:100A600056B7C7E8DB702024EECEBDC1AF0F7CF5D2
:100A70002AC68747134630A8019546FDD898806955
:100A8000AFF7448BBED75C892211906B937198FDB0
:100A90008E4379A62108B44962251EF640B340C0B2
:100AA000515A5E26AAC7B6E95D102FD653144402E8
:100AB00081E6A1D8C8FBD3E7E6CDE121D60737C34D
:100AC000870DD5F4ED145A4505E9E3A9F8A3EFFC29
:100AD000D9026F678A4C2A8D4239FAFF81F67187F5
:100AE00022619D6D0C38E5FD44EABEA4A9CFDE4B22
:100AF000604BBBF670BCBFBEC67E9B284FEA31710F
:100B00000144009A874E134481EA00026A4032444D
:100B10001A444FEA72525318039A834E154483EADB
:100B20000102424032442A444FEA32421A44069DAE
:100B30007E4E054482EA03004840304428444FEA90
:100B400070201044099D7A4E0D4480EA02015940FC
:100B5000314429444FEA317101440C9D754E1D44C6
:100B600081EA0003534033442B444FEA73535D182A
:100B70000F9B714E134485EA0102424032441A44ED
:100B80004FEA32422A44029B6C4E034482EA05003B
:100B90004840304418444FEA702083180098684E4B
:100BA000014463EA05005040304408444FEAB06015
:100BB00018440799634E0D4460EA020159403144DC
:100BC00029444FEAB1510D180E995F4E0A4465EA67
:100BD00003014140314411444FEA71412944059ACF
:100BE0005A4E134461EA00026A4032441A444FEA02
:100BF000F2220A440C9B564E034462EA0500484028
:100C0000304418444FEAB0601044039B514E1D44D9
:100C100060EA0103534033442B444FEAB3531D1899
:100C20000A9B4D4E0B4465EA020141403144194490
:100C30004FEA71414B190199484E0A4463EA000199
:100C40006940314411444FEAF121CA180899444ED1
:100C5000014462EA05005840304408444FEAB0605D
:100C600081180F983F4E054461EA0300504030441C
:100C700028444FEAB050451806983B4E034465EAB5
:100C800002004840304418444FEA704028440D9B0D
:100C9000364E134460EA01026A4032441A444FEA75
:100CA000F2220244049B324E0B4462EA05014140A9
:100CB000314419444FEAB16111440B9B2D4E1D4440
:100CC00061EA0003534033442B444FEAB3530B44CF
:100CD000029D294E054463EA0200484030442844FE
:100CE0004FEA70401844099D244E154460EA010201
:100CF0005A4032442A444FEAF222024425682944E9
:100D00002160616811446160A1680844A060E068E6
:100D10001844E06040216846FFF7AFFA10B0BDE824
:100D2000F0810000FA27A1EA8530EFD4051D880480
:100D300039D0D4D9E599DBE6F87CA21F6556ACC45E
:100D4000442229F497FF2A43A72394AB39A093FCAC
:100D5000C3595B6592CC0C8F7DF4EFFFD15D848528
:100D60004F7EA86FE0E62CFE144301A3A111084EAC
:100D7000827E53F735F23ABDBBD2D72A91D386EBA8
:100D80002DE9F04105460F4616462969C1F3C50015
:100D900001EBC6012961B1EBC60F02D26969491C9A
:100DA0006961696901EB56716961C0F14004A6424D
:100DB00016D32844183022463946FFF719FA05F1B0
:100DC00018012846FFF73AFC04E039192846FFF7D6
:100DD00035FC403404F13F00B042F6D3002000E07F
:100DE0000024321B39192844BDE8F0411830FFF7C0
:100DF000FFB9FEE7704738B500214FF0006000F002
:100E00004DF825208DF8000000248DF801408DF864
:100E1000024001258DF80350684600F00DF81C20B3
:100E20008DF800008DF801408DF802408DF80350D8
:100E3000684600F001F838BDF0B50F23C2780126EE
:100E400001784FF0E027002A1BD0124A126802F402
:100E5000E062C2F5E062120AC2F10404D3404578B0
:100E6000A54082781A402A4312010B4BCA540078DD
:100E700000F01F018E40400907EB8000C0F80061C0
:100E8000F0BD01F01F008640480907EB8000C0F864
:100E90008061F0BD0CED00E000E400E0024A11408A
:100EA000014302480160704780FFFF1F08ED00E02A
:100EB00070477047034A516821F440410143516033
:100EC0007047000000100240054A002903D0D16994
:100ED0000143D1617047D1698143D16170470000FE
:100EE00000100240054A002903D091690143916135
:100EF0007047916981439161704700000010024082
:100F000010B500F029F81020FFF7ECFA0220FFF7E7
:100F1000F5FA002000F0B6F8002000F0C9F84FF410
:100F2000806000F0BBF84FF48040FFF7C3FF4FF440
:100F30008011002000F0CCF8012000F0C3F8392027
:100F400000F080F80028FAD0022000F0CBF800F082
:100F500091F80828FBD110BD0C48016841F001014F
:100F6000016041680A4A114041600168094A114024
:100F70000160016821F480210160416821F4FE01D3
:100F800041604FF41F018160704700000010024073
:100F90000000FFF8FFFFF6FE10B5264A516801F089
:100FA0000C01254B002927D0042927D0082927D058
:100FB0000360516801F0F0010909204B5C5C016895
:100FC000E1404160546804F4E064240A1C5D21FAA5
:100FD00004F48460546804F46054E40A1B5DD9404E
:100FE000C160526802F44042920B144B1B1F9A5C82
:100FF000B1FBF2F1016110BD0360DAE70360D8E7ED
:10100000516801F47011536803F48033022404EB37
:10101000914133B153689B0307D5094B5943016094
:10102000C7E7074B59430160C3E7034B59430160CE
:10103000BFE700000010024000127A0068000020A4
:1010400000093D00034600205909094A01290AD038
:1010500002290AD0516A03F01F02012393400B4278
:1010600000D0012070471168F5E7116AF3E700002E
:10107000001002400248406800F00C007047000079
:1010800000100240034A516821F0F0010143516011
:10109000704700000010024070470000034A51688A
:1010A00021F4E061014351607047000000100240EC
:1010B000034A516821F4605141EAC0005060704712
:1010C00000100240014908667047000000004242DB
:1010D000034B5A6822F47C1208431043586070474F
:1010E00000100240034A516821F00301014351609E
:1010F000704700000010024070477047704770470B
:101100007047704770477047704770477047704727
:101110007047000070B51C4CA068002816D0401E17
:10112000A06013D122781948194D4FF48051012A3B
:1011300012D00446FFF73EFA69142046FFF73AFA48
:10114000012240F22551284600F042FABDE87040E5
:101150000121880700F029B8FFF72EFA012240F29A
:101160002771284600F034FA28880006EED5E16899
:1011700060688842EADA411C61600649085C0449FB
:10118000091D0880E2E7000000000020000C01407B
:101190000038014078000020704770477047704762
:1011A00070477047704770477047C9430182704766
:1011B000002904D0018841F00101018070470188B5
:1011C00021F001010180704770B5028C22F01002FD
:1011D0000284028C8388048B24F4E04424F4407657
:1011E0000D884FF6FF7404EA0525354322F02002EE
:1011F0000E8904EA061616434A8804EA02123243AC
:10120000114EB04202D0114EB04217D122F08002EE
:101210004E8904EA0616164326F040068A8804EA38
:101220000212324323F4806323F400638E8904EABC
:1012300086061E43CB8904EA8303334383800583F8
:10124000C9880187028470BD002C01400034014030
:10125000028B22F400624FF6FF7303EA012111436F
:101260000183704730B502881B4C1C4DA0420DD045
:10127000A8420BD0B0F1804F08D0194B984205D04E
:10128000184B984202D0184B984203D122F07003B9
:101290004A881A43154B984206D0154B984203D002
:1012A00022F44073CA881A4302808A8882850A8899
:1012B0000285A0420AD0A84208D00E4A904205D02A
:1012C0000D4A904202D00D4A904201D1097A01861E
:1012D0000121818230BD0000002C0140003401401A
:1012E0000004004000080040000C004000100040D6
:1012F000001400400040014000440140004801400B
:10130000704770472DE9F047A44F3888C0B20206F5
:10131000002A00DA0221A24B020700D51A888006B3
:1013200000D504219E48083000889F4C00269D4D22
:1013300062684FF0140A02290FD0042901D00C2949
:101340007DD11888C1B261704FF0FF3302B3012A1A
:1013500028D0A954062A3BD042E0398838460F06E7
:101360009149C96805D58A4203DA571C6760AA5CAF
:101370001A8062688A427ED1C4F808A0267066602E
:10138000E660BDE8F047002240F2277100F020B986
:101390008648B0F8D000884202D009B1636067E0A7
:1013A000297065E0697004290FD003290DD00F2939
:1013B0000BD0102909D0062907D0012905D0022910
:1013C00003D0052901D0636052E00820E0604FE0BF
:1013D0006878102801D00F2802D1A8790930E06080
:1013E000E168881E904243DA63606E48FFF720F898
:1013F00008B1E6603CE04FF400516D48FFF7DCF8BF
:10140000002240F22551384600F0E2F8E878A97849
:1014100000EB012069792A7901EB02216A78032324
:1014200001274FF0020C4FF0060942F21078052A0E
:1014300023D005DC032A41D0042A05D166E01AE056
:10144000062A29D0102A78D080326A70AF70E36003
:101450005448E168FEF7ECFFE268511CA854C0F361
:101460000722481CE0606A54C4F808A0277026616F
:101470006068401C6060BDE8F08741F661618842A9
:1014800001D8A06828B18520687085F802C0E360A3
:10149000DEE7C4F80C90DBE742F2D062904201D85C
:1014A000A2682AB18620687085F802C0E360CFE7A1
:1014B000C4F80C90A26922F81010C9E74218521E15
:1014C000424501D2A2682AB18320687085F802C023
:1014D000E360BDE74A06120EAA70D21CE260002249
:1014E000D4F818800FE0831800D1676138F813C072
:1014F0004FEA1C2905EB420C8CF8039018F81330C6
:101500008CF80430521C8A42EDD9A1E74218521ED1
:10151000402A01D2A2682AB18420687085F802C0EE
:10152000E36095E74A06120EAA70D21CE260002220
:10153000DFF87890A9F182090CE00EE0831839F801
:1015400013C005EB42034FEA1C2883F8038083F89D
:1015500004C0521C8A42F1D97AE74218521E424511
:1015600001D2A2682AB19020687085F802C0E360B9
:101570006EE70022D4F818800BE005EB420393F8E5
:1015800008C0DB790CEB032302EB000C28F81C30BD
:10159000521C8A42F1D3C4F80C9059E7003801403C
:1015A000043801407800002000000020FA040020E8
:1015B000000C014070477047002904D0818941F434
:1015C000005181817047818921F4005181817047E8
:1015D00010B540F66A13C1F3421301F01F04012154
:1015E000A140012B07D0022B07D014303AB102687A
:1015F0000A43026010BD0C30F8E71030F6E70268CD
:101600008A43026010BD000030B585B004460D4627
:10161000208A4CF6FF710840E98801432182A089A5
:101620004EF6F3110840A9882A8911436A890243BA
:101630001143A181A08A4FF6FF410840A9890143C7
:10164000A1826846FFF7A8FC1D48844201D1039897
:1016500000E00298A189090408D500EBC00101EB64
:10166000001029684900B0FBF1F007E000EBC00171
:1016700001EB001029688900B0FBF1F06422B0FB97
:10168000F2F109010B096FF018056B4300EB8300C1
:10169000A3891D044FF0320307D503EBC000B0FB54
:1016A000F2F000F00700084306E003EB0010B0FB87
:1016B000F2F000F00F000843208105B030BD0000BB
:1016C00000380140704770477047FEE770470000E0
:1016D0009AB000244FF000656846FEF79DFF914ADE
:1016E00029466846FFF74CFB694616A8FEF76CFFD3
:1016F0008D4E16A80BE000EB440110F81420497839
:1017000041EA022106EB4402A2F8A410641C082C52
:10171000F1DB4FF48170A6F8B40083480127A0F8EC
:10172000C670FFF7EDFB01214FF4C820FFF7DAFB8D
:1017300001210320FFF7C8FB012140F21D20FFF724
:10174000D1FB7A4841687A4A11434160794C4FF4A1
:10175000C05020801020E0700220A0702146764802
:10176000FEF7D7FE782020800025E5700220A070CB
:1017700021467148FEF7CDFE780220804FF0030924
:1017800084F802901820E07021466B48FEF7C1FEF5
:10179000B80220800320A0704820E07021466648EF
:1017A000FEF7B7FE4FF41E7020801820E070032073
:1017B000A070DFF8888121464046FEF7AAFE4FF46C
:1017C000704020801020E0700320A0702146404629
:1017D000FEF79FFE4FF4005BA4F800B01420E07009
:1017E0000220A070DFF858A121465046FEF791FE76
:1017F000F80320801020E0700220A070214650469F
:10180000FEF787FE4848E630056005714571464998
:101810004FF46020E6318860F802C860084607741B
:101820004848016841F400010160464C3E49083CCB
:10183000E6312046FEF7CAFD01212046FEF7B1FD44
:101840002046FEF7E7FD2046FEF7B7FD0028FAD157
:101850002046FEF7E4FD344C4BF68030FA34A0808D
:101860002580E580658025724FF0804A21465046EC
:10187000FFF7F8FC04F10A0060210180478042F67E
:10188000E061C180058101465046FFF79DFC0821BB
:101890005046FFF7DDFCAAF80C7001215046FFF717
:1018A00087FC45F6C050A080A4F80090E5806580D4
:1018B0004FF480514046FEF77DFE59464046FEF704
:1018C00079FE36F88C0F20F020003080194820383F
:1018D000C069012803D1C1031748FEF76BFE124807
:1018E0004FF4E131D63001608580C5800581858166
:1018F0000C214181144C01462046FFF785FE012250
:1019000040F227712046FFF763FE012240F2255185
:101910002046FFF75DFE01212046FFF74DFEFFF751
:101920006AFAFEE7FFFF0100FA0400200000014010
:10193000000900022000002000080140000C0140C6
:101940000010014008240140003801400000C1C0DF
:1019500081C1400101C3C003800241C201C6C0066B
:10196000800741C70005C1C581C4400401CCC00C3B
:10197000800D41CD000FC1CF81CE400E000AC1CAFB
:1019800081CB400B01C9C009800841C801D8C018EB
:10199000801941D9001BC1DB81DA401A001EC1DE6B
:1019A00081DF401F01DDC01D801C41DC0014C1D45B
:1019B00081D5401501D7C017801641D601D2C0127B
:1019C000801341D30011C1D181D0401001F0C0304B
:1019D000803141F10033C1F381F240320036C1F66B
:1019E00081F7403701F5C035803441F4003CC1FC3B
:1019F00081FD403D01FFC03F803E41FE01FAC03AFB
:101A0000803B41FB0039C1F981F840380028C1E82A
:101A100081E9402901EBC02B802A41EA01EEC02E6A
:101A2000802F41EF002DC1ED81EC402C01E4C0245A
:101A3000802541E50027C1E781E640260022C1E27A
:101A400081E3402301E1C021802041E001A0C0608A
:101A5000806141A10063C1A381A240620066C1A66A
:101A600081A7406701A5C065806441A4006CC1AC3A
:101A700081AD406D01AFC06F806E41AE01AAC06AFA
:101A8000806B41AB0069C1A981A840680078C1B8EA
:101A900081B9407901BBC07B807A41BA01BEC07E6A
:101AA000807F41BF007DC1BD81BC407C01B4C0745A
:101AB000807541B50077C1B781B640760072C1B27A
:101AC00081B3407301B1C071807041B00050C190CA
:101AD000819140510193C053805241920196C0566A
:101AE000805741970055C19581944054019CC05C3A
:101AF000805D419D005FC19F819E405E005AC19AFA
:101B0000819B405B0199C059805841980188C04829
:101B100080494189004BC18B818A404A004EC18E69
:101B2000818F404F018DC04D804C418C0044C18459
:101B3000818540450187C047804641860182C04279
:101B4000804341830041C181818040406C1B00087B
:101B500000000020780000006C010008E41B000871
:101B600078000020F80D0000880100080000000047
:101B70000000000000000000000000000000000065
:101B800000000000FA040020000000000000000037
:101B900080000000000000000000000000000000C5
:101BA0000000000000000000000000000000000035
:101BB0000000000000000000000000000000000025
:101BC0000000000000000000000000000000000015
:101BD00002040608000000000102030401020304DD
:041BE00006070809E3
:0400000508000131BD
:00000001FF
